{
  "_format": "hh-sol-artifact-1",
  "contractName": "SupplyChain",
  "sourceName": "contracts/SupplyChain.sol",
  "abi": [
    {
      "inputs": [
        {
          "internalType": "address",
          "name": "admin",
          "type": "address"
        }
      ],
      "stateMutability": "nonpayable",
      "type": "constructor"
    },
    {
      "inputs": [],
      "name": "AccessControlBadConfirmation",
      "type": "error"
    },
    {
      "inputs": [
        {
          "internalType": "address",
          "name": "account",
          "type": "address"
        },
        {
          "internalType": "bytes32",
          "name": "neededRole",
          "type": "bytes32"
        }
      ],
      "name": "AccessControlUnauthorizedAccount",
      "type": "error"
    },
    {
      "inputs": [],
      "name": "BatchAlreadyRegistered",
      "type": "error"
    },
    {
      "inputs": [],
      "name": "BatchLimitReached",
      "type": "error"
    },
    {
      "inputs": [],
      "name": "BatchNotActive",
      "type": "error"
    },
    {
      "inputs": [],
      "name": "DeadlineExpired",
      "type": "error"
    },
    {
      "inputs": [],
      "name": "ECDSAInvalidSignature",
      "type": "error"
    },
    {
      "inputs": [
        {
          "internalType": "uint256",
          "name": "length",
          "type": "uint256"
        }
      ],
      "name": "ECDSAInvalidSignatureLength",
      "type": "error"
    },
    {
      "inputs": [
        {
          "internalType": "bytes32",
          "name": "s",
          "type": "bytes32"
        }
      ],
      "name": "ECDSAInvalidSignatureS",
      "type": "error"
    },
    {
      "inputs": [],
      "name": "InvalidBatch",
      "type": "error"
    },
    {
      "inputs": [],
      "name": "InvalidReceiver",
      "type": "error"
    },
    {
      "inputs": [],
      "name": "InvalidShortString",
      "type": "error"
    },
    {
      "inputs": [],
      "name": "InvalidSignature",
      "type": "error"
    },
    {
      "inputs": [],
      "name": "NoPendingTransfer",
      "type": "error"
    },
    {
      "inputs": [],
      "name": "NotAuthorized",
      "type": "error"
    },
    {
      "inputs": [],
      "name": "ProductAlreadyExists",
      "type": "error"
    },
    {
      "inputs": [],
      "name": "ProductNotFound",
      "type": "error"
    },
    {
      "inputs": [],
      "name": "StakeRequired",
      "type": "error"
    },
    {
      "inputs": [
        {
          "internalType": "string",
          "name": "str",
          "type": "string"
        }
      ],
      "name": "StringTooLong",
      "type": "error"
    },
    {
      "inputs": [],
      "name": "TransferAlreadyPending",
      "type": "error"
    },
    {
      "anonymous": false,
      "inputs": [
        {
          "indexed": true,
          "internalType": "uint256",
          "name": "batchId",
          "type": "uint256"
        },
        {
          "indexed": true,
          "internalType": "address",
          "name": "manufacturer",
          "type": "address"
        },
        {
          "indexed": false,
          "internalType": "uint256",
          "name": "maxUnits",
          "type": "uint256"
        },
        {
          "indexed": false,
          "internalType": "uint256",
          "name": "stake",
          "type": "uint256"
        }
      ],
      "name": "BatchRegistered",
      "type": "event"
    },
    {
      "anonymous": false,
      "inputs": [],
      "name": "EIP712DomainChanged",
      "type": "event"
    },
    {
      "anonymous": false,
      "inputs": [
        {
          "indexed": true,
          "internalType": "uint256",
          "name": "productId",
          "type": "uint256"
        },
        {
          "indexed": true,
          "internalType": "uint256",
          "name": "batchId",
          "type": "uint256"
        },
        {
          "indexed": true,
          "internalType": "address",
          "name": "owner",
          "type": "address"
        },
        {
          "indexed": false,
          "internalType": "bytes32",
          "name": "metadataHash",
          "type": "bytes32"
        }
      ],
      "name": "ProductMinted",
      "type": "event"
    },
    {
      "anonymous": false,
      "inputs": [
        {
          "indexed": true,
          "internalType": "bytes32",
          "name": "role",
          "type": "bytes32"
        },
        {
          "indexed": true,
          "internalType": "bytes32",
          "name": "previousAdminRole",
          "type": "bytes32"
        },
        {
          "indexed": true,
          "internalType": "bytes32",
          "name": "newAdminRole",
          "type": "bytes32"
        }
      ],
      "name": "RoleAdminChanged",
      "type": "event"
    },
    {
      "anonymous": false,
      "inputs": [
        {
          "indexed": true,
          "internalType": "bytes32",
          "name": "role",
          "type": "bytes32"
        },
        {
          "indexed": true,
          "internalType": "address",
          "name": "account",
          "type": "address"
        },
        {
          "indexed": true,
          "internalType": "address",
          "name": "sender",
          "type": "address"
        }
      ],
      "name": "RoleGranted",
      "type": "event"
    },
    {
      "anonymous": false,
      "inputs": [
        {
          "indexed": true,
          "internalType": "bytes32",
          "name": "role",
          "type": "bytes32"
        },
        {
          "indexed": true,
          "internalType": "address",
          "name": "account",
          "type": "address"
        },
        {
          "indexed": true,
          "internalType": "address",
          "name": "sender",
          "type": "address"
        }
      ],
      "name": "RoleRevoked",
      "type": "event"
    },
    {
      "anonymous": false,
      "inputs": [
        {
          "indexed": true,
          "internalType": "uint256",
          "name": "productId",
          "type": "uint256"
        },
        {
          "indexed": true,
          "internalType": "address",
          "name": "from",
          "type": "address"
        },
        {
          "indexed": true,
          "internalType": "address",
          "name": "to",
          "type": "address"
        }
      ],
      "name": "TransferAccepted",
      "type": "event"
    },
    {
      "anonymous": false,
      "inputs": [
        {
          "indexed": true,
          "internalType": "uint256",
          "name": "productId",
          "type": "uint256"
        },
        {
          "indexed": true,
          "internalType": "address",
          "name": "from",
          "type": "address"
        },
        {
          "indexed": true,
          "internalType": "address",
          "name": "to",
          "type": "address"
        },
        {
          "indexed": false,
          "internalType": "bytes32",
          "name": "locationHash",
          "type": "bytes32"
        }
      ],
      "name": "TransferInitiated",
      "type": "event"
    },
    {
      "inputs": [],
      "name": "DEFAULT_ADMIN_ROLE",
      "outputs": [
        {
          "internalType": "bytes32",
          "name": "",
          "type": "bytes32"
        }
      ],
      "stateMutability": "view",
      "type": "function"
    },
    {
      "inputs": [],
      "name": "DISTRIBUTOR",
      "outputs": [
        {
          "internalType": "bytes32",
          "name": "",
          "type": "bytes32"
        }
      ],
      "stateMutability": "view",
      "type": "function"
    },
    {
      "inputs": [],
      "name": "INSPECTOR",
      "outputs": [
        {
          "internalType": "bytes32",
          "name": "",
          "type": "bytes32"
        }
      ],
      "stateMutability": "view",
      "type": "function"
    },
    {
      "inputs": [],
      "name": "MANUFACTURER",
      "outputs": [
        {
          "internalType": "bytes32",
          "name": "",
          "type": "bytes32"
        }
      ],
      "stateMutability": "view",
      "type": "function"
    },
    {
      "inputs": [
        {
          "internalType": "uint256",
          "name": "productId",
          "type": "uint256"
        }
      ],
      "name": "acceptTransfer",
      "outputs": [],
      "stateMutability": "nonpayable",
      "type": "function"
    },
    {
      "inputs": [
        {
          "internalType": "uint256",
          "name": "productId",
          "type": "uint256"
        },
        {
          "internalType": "uint256",
          "name": "nonce",
          "type": "uint256"
        },
        {
          "internalType": "uint256",
          "name": "deadline",
          "type": "uint256"
        },
        {
          "internalType": "bytes",
          "name": "signature",
          "type": "bytes"
        }
      ],
      "name": "acceptTransferWithSig",
      "outputs": [],
      "stateMutability": "nonpayable",
      "type": "function"
    },
    {
      "inputs": [
        {
          "internalType": "uint256",
          "name": "",
          "type": "uint256"
        }
      ],
      "name": "batches",
      "outputs": [
        {
          "internalType": "address",
          "name": "manufacturer",
          "type": "address"
        },
        {
          "internalType": "uint256",
          "name": "maxUnits",
          "type": "uint256"
        },
        {
          "internalType": "uint256",
          "name": "minted",
          "type": "uint256"
        },
        {
          "internalType": "uint256",
          "name": "stake",
          "type": "uint256"
        },
        {
          "internalType": "bool",
          "name": "active",
          "type": "bool"
        }
      ],
      "stateMutability": "view",
      "type": "function"
    },
    {
      "inputs": [],
      "name": "eip712Domain",
      "outputs": [
        {
          "internalType": "bytes1",
          "name": "fields",
          "type": "bytes1"
        },
        {
          "internalType": "string",
          "name": "name",
          "type": "string"
        },
        {
          "internalType": "string",
          "name": "version",
          "type": "string"
        },
        {
          "internalType": "uint256",
          "name": "chainId",
          "type": "uint256"
        },
        {
          "internalType": "address",
          "name": "verifyingContract",
          "type": "address"
        },
        {
          "internalType": "bytes32",
          "name": "salt",
          "type": "bytes32"
        },
        {
          "internalType": "uint256[]",
          "name": "extensions",
          "type": "uint256[]"
        }
      ],
      "stateMutability": "view",
      "type": "function"
    },
    {
      "inputs": [
        {
          "internalType": "bytes32",
          "name": "role",
          "type": "bytes32"
        }
      ],
      "name": "getRoleAdmin",
      "outputs": [
        {
          "internalType": "bytes32",
          "name": "",
          "type": "bytes32"
        }
      ],
      "stateMutability": "view",
      "type": "function"
    },
    {
      "inputs": [
        {
          "internalType": "bytes32",
          "name": "role",
          "type": "bytes32"
        },
        {
          "internalType": "address",
          "name": "account",
          "type": "address"
        }
      ],
      "name": "grantRole",
      "outputs": [],
      "stateMutability": "nonpayable",
      "type": "function"
    },
    {
      "inputs": [
        {
          "internalType": "bytes32",
          "name": "role",
          "type": "bytes32"
        },
        {
          "internalType": "address",
          "name": "account",
          "type": "address"
        }
      ],
      "name": "grantRoleSafe",
      "outputs": [],
      "stateMutability": "nonpayable",
      "type": "function"
    },
    {
      "inputs": [
        {
          "internalType": "bytes32",
          "name": "role",
          "type": "bytes32"
        },
        {
          "internalType": "address",
          "name": "account",
          "type": "address"
        }
      ],
      "name": "hasRole",
      "outputs": [
        {
          "internalType": "bool",
          "name": "",
          "type": "bool"
        }
      ],
      "stateMutability": "view",
      "type": "function"
    },
    {
      "inputs": [
        {
          "internalType": "uint256",
          "name": "productId",
          "type": "uint256"
        },
        {
          "internalType": "address",
          "name": "to",
          "type": "address"
        },
        {
          "internalType": "bytes32",
          "name": "locationHash",
          "type": "bytes32"
        }
      ],
      "name": "initiateTransfer",
      "outputs": [],
      "stateMutability": "nonpayable",
      "type": "function"
    },
    {
      "inputs": [
        {
          "internalType": "uint256",
          "name": "productId",
          "type": "uint256"
        },
        {
          "internalType": "address",
          "name": "to",
          "type": "address"
        },
        {
          "internalType": "bytes32",
          "name": "locationHash",
          "type": "bytes32"
        },
        {
          "internalType": "uint256",
          "name": "nonce",
          "type": "uint256"
        },
        {
          "internalType": "uint256",
          "name": "deadline",
          "type": "uint256"
        },
        {
          "internalType": "bytes",
          "name": "signature",
          "type": "bytes"
        }
      ],
      "name": "initiateTransferWithSig",
      "outputs": [],
      "stateMutability": "nonpayable",
      "type": "function"
    },
    {
      "inputs": [
        {
          "internalType": "uint256",
          "name": "productId",
          "type": "uint256"
        },
        {
          "internalType": "uint256",
          "name": "batchId",
          "type": "uint256"
        },
        {
          "internalType": "bytes32",
          "name": "metadataHash",
          "type": "bytes32"
        }
      ],
      "name": "mintProduct",
      "outputs": [],
      "stateMutability": "nonpayable",
      "type": "function"
    },
    {
      "inputs": [
        {
          "internalType": "address",
          "name": "",
          "type": "address"
        }
      ],
      "name": "nonces",
      "outputs": [
        {
          "internalType": "uint256",
          "name": "",
          "type": "uint256"
        }
      ],
      "stateMutability": "view",
      "type": "function"
    },
    {
      "inputs": [
        {
          "internalType": "uint256",
          "name": "productId",
          "type": "uint256"
        }
      ],
      "name": "ownerOf",
      "outputs": [
        {
          "internalType": "address",
          "name": "",
          "type": "address"
        }
      ],
      "stateMutability": "view",
      "type": "function"
    },
    {
      "inputs": [
        {
          "internalType": "uint256",
          "name": "productId",
          "type": "uint256"
        }
      ],
      "name": "productBatch",
      "outputs": [
        {
          "internalType": "uint256",
          "name": "",
          "type": "uint256"
        }
      ],
      "stateMutability": "view",
      "type": "function"
    },
    {
      "inputs": [
        {
          "internalType": "uint256",
          "name": "batchId",
          "type": "uint256"
        },
        {
          "internalType": "uint256",
          "name": "maxUnits",
          "type": "uint256"
        }
      ],
      "name": "registerBatch",
      "outputs": [],
      "stateMutability": "payable",
      "type": "function"
    },
    {
      "inputs": [
        {
          "internalType": "bytes32",
          "name": "role",
          "type": "bytes32"
        },
        {
          "internalType": "address",
          "name": "callerConfirmation",
          "type": "address"
        }
      ],
      "name": "renounceRole",
      "outputs": [],
      "stateMutability": "nonpayable",
      "type": "function"
    },
    {
      "inputs": [
        {
          "internalType": "bytes32",
          "name": "role",
          "type": "bytes32"
        },
        {
          "internalType": "address",
          "name": "account",
          "type": "address"
        }
      ],
      "name": "revokeRole",
      "outputs": [],
      "stateMutability": "nonpayable",
      "type": "function"
    },
    {
      "inputs": [
        {
          "internalType": "bytes4",
          "name": "interfaceId",
          "type": "bytes4"
        }
      ],
      "name": "supportsInterface",
      "outputs": [
        {
          "internalType": "bool",
          "name": "",
          "type": "bool"
        }
      ],
      "stateMutability": "view",
      "type": "function"
    }
  ],
  "bytecode": "0x6101606040523480156200001257600080fd5b5060405162001d7f38038062001d7f833981016040819052620000359162000279565b6040518060400160405280600b81526020016a29bab838363ca1b430b4b760a91b815250604051806040016040528060018152602001603160f81b815250620000896001836200014660201b90919060201c565b610120526200009a81600262000146565b61014052815160208084019190912060e052815190820120610100524660a0526200012860e05161010051604080517f8b73c3c69bb8fe3d512ecc4cf759cc79239f7b179b0ffacaa9a75d522b39400f60208201529081019290925260608201524660808201523060a082015260009060c00160405160208183030381529060405280519060200120905090565b60805250503060c0526200013e6000826200017f565b505062000494565b600060208351101562000166576200015e836200022d565b905062000179565b8162000173848262000352565b5060ff90505b92915050565b6000828152602081815260408083206001600160a01b038516845290915281205460ff1662000224576000838152602081815260408083206001600160a01b03861684529091529020805460ff19166001179055620001db3390565b6001600160a01b0316826001600160a01b0316847f2f8788117e7eff1d82e926ec794901d17c78024a50270940304540a733656f0d60405160405180910390a450600162000179565b50600062000179565b600080829050601f8151111562000264578260405163305a27a960e01b81526004016200025b91906200041e565b60405180910390fd5b805162000271826200046f565b179392505050565b6000602082840312156200028c57600080fd5b81516001600160a01b0381168114620002a457600080fd5b9392505050565b634e487b7160e01b600052604160045260246000fd5b600181811c90821680620002d657607f821691505b602082108103620002f757634e487b7160e01b600052602260045260246000fd5b50919050565b601f8211156200034d576000816000526020600020601f850160051c81016020861015620003285750805b601f850160051c820191505b81811015620003495782815560010162000334565b5050505b505050565b81516001600160401b038111156200036e576200036e620002ab565b62000386816200037f8454620002c1565b84620002fd565b602080601f831160018114620003be5760008415620003a55750858301515b600019600386901b1c1916600185901b17855562000349565b600085815260208120601f198616915b82811015620003ef57888601518255948401946001909101908401620003ce565b50858210156200040e5787850151600019600388901b60f8161c191681555b5050505050600190811b01905550565b60006020808352835180602085015260005b818110156200044e5785810183015185820160400152820162000430565b506000604082860101526040601f19601f8301168501019250505092915050565b80516020808301519190811015620002f75760001960209190910360031b1b16919050565b60805160a05160c05160e051610100516101205161014051611890620004ef6000396000610ec901526000610e970152600061117d01526000611155015260006110b0015260006110da0152600061110401526118906000f3fe6080604052600436106101355760003560e01c806384b0196e116100ab578063b35eee191161006f578063b35eee191461042c578063cd407f371461044c578063d1685cc01461046c578063d547741f1461048c578063d5afc4b4146104ac578063de901eae146104cc57600080fd5b806384b0196e1461030f57806391d14854146103375780639c26149f14610357578063a217fddf1461038b578063b32c4d8d146103a057600080fd5b806349ec99ee116100fd57806349ec99ee1461020f5780634fbf313b146102435780636352211e14610263578063656e49fa1461029b578063797d7cc9146102ae5780637ecebe00146102e257600080fd5b806301ffc9a71461013a578063248a9ca31461016f578063274fae7c146101ad5780632f2ff15d146101cf57806336568abe146101ef575b600080fd5b34801561014657600080fd5b5061015a6101553660046114b5565b6104ec565b60405190151581526020015b60405180910390f35b34801561017b57600080fd5b5061019f61018a3660046114e6565b60009081526020819052604090206001015490565b604051908152602001610166565b3480156101b957600080fd5b506101cd6101c83660046114e6565b610523565b005b3480156101db57600080fd5b506101cd6101ea36600461151b565b610530565b3480156101fb57600080fd5b506101cd61020a36600461151b565b61055b565b34801561021b57600080fd5b5061019f7f6659d833875b88922d2576dad6c137a09ba676496bb2010bf8a72397792167a081565b34801561024f57600080fd5b506101cd61025e366004611590565b610593565b34801561026f57600080fd5b5061028361027e3660046114e6565b6106cf565b6040516001600160a01b039091168152602001610166565b6101cd6102a93660046115f1565b610715565b3480156102ba57600080fd5b5061019f7f6708279cb5b7899861c476830845b35dc693bcddf85695a204b94cda1c82583481565b3480156102ee57600080fd5b5061019f6102fd366004611613565b60066020526000908152604090205481565b34801561031b57600080fd5b50610324610835565b6040516101669796959493929190611674565b34801561034357600080fd5b5061015a61035236600461151b565b61087b565b34801561036357600080fd5b5061019f7f85faced7bde13e1a7dad704b895f006e704f207617d68166b31ba2d79624862d81565b34801561039757600080fd5b5061019f600081565b3480156103ac57600080fd5b506103f86103bb3660046114e6565b6003602081905260009182526040909120805460018201546002830154938301546004909301546001600160a01b03909216939092909160ff1685565b604080516001600160a01b03909616865260208601949094529284019190915260608301521515608082015260a001610166565b34801561043857600080fd5b5061019f6104473660046114e6565b6108a4565b34801561045857600080fd5b506101cd61046736600461170d565b6108de565b34801561047857600080fd5b506101cd610487366004611788565b610a2e565b34801561049857600080fd5b506101cd6104a736600461151b565b610bd9565b3480156104b857600080fd5b506101cd6104c736600461151b565b610bfe565b3480156104d857600080fd5b506101cd6104e73660046117b4565b610c13565b60006001600160e01b03198216637965db0b60e01b148061051d57506301ffc9a760e01b6001600160e01b03198316145b92915050565b61052d3382610c1f565b50565b60008281526020819052604090206001015461054b81610d32565b6105558383610d3c565b50505050565b6001600160a01b03811633146105845760405163334bd91960e11b815260040160405180910390fd5b61058e8282610dce565b505050565b428310156105b457604051631ab7da6b60e01b815260040160405180910390fd5b604080517fb9b22616824a0fdd55759e861704fd4e426236bb7ea523e53a363ce2f3bb5e206020820152908101869052606081018590526080810184905260009060a001604051602081830303815290604052805190602001209050600061065d84848080601f0160208091040260200160405190810160405280939291908181526020018383808284376000920191909152506106579250869150610e399050565b90610e66565b6001600160a01b038116600090815260066020526040902054909150861461069857604051638baa579f60e01b815260040160405180910390fd5b6106a38660016117e9565b6001600160a01b0382166000908152600660205260409020556106c68188610c1f565b50505050505050565b6000818152600460205260408120600381015460ff16610702576040516379de4af560e01b815260040160405180910390fd5b600101546001600160a01b031692915050565b7f6659d833875b88922d2576dad6c137a09ba676496bb2010bf8a72397792167a061073f81610d32565b34600003610760576040516337c2e99960e21b815260040160405180910390fd5b81600003610781576040516333b094a160e01b815260040160405180910390fd5b6000838152600360205260409020600481015460ff16156107b557604051630fa992d560e31b815260040160405180910390fd5b80546001600160a01b031916339081178255600180830185905560006002840155346003840181905560048401805460ff191690921790915560405186917f393e916c1dfc22d76701413768477926c03c62e090a22793b40c4e1bac3f0f009161082791888252602082015260400190565b60405180910390a350505050565b600060608060008060006060610849610e90565b610851610ec2565b60408051600080825260208201909252600f60f81b9b939a50919850469750309650945092509050565b6000918252602082815260408084206001600160a01b0393909316845291905290205460ff1690565b6000818152600460205260408120600381015460ff166108d7576040516379de4af560e01b815260040160405180910390fd5b5492915050565b428310156108ff57604051631ab7da6b60e01b815260040160405180910390fd5b604080517fc67e7f265b2128fb39ce2a871a16cd8421fee5213cde6fa5f562d0759c3aefb760208201529081018890526001600160a01b03871660608201526080810186905260a0810185905260c0810184905260009060e00160405160208183030381529060405280519060200120905060006109b884848080601f0160208091040260200160405190810160405280939291908181526020018383808284376000920191909152506106579250869150610e399050565b6001600160a01b03811660009081526006602052604090205490915086146109f357604051638baa579f60e01b815260040160405180910390fd5b6109fe8660016117e9565b6001600160a01b038216600090815260066020526040902055610a23818a8a8a610eef565b505050505050505050565b7f6659d833875b88922d2576dad6c137a09ba676496bb2010bf8a72397792167a0610a5881610d32565b60008481526004602052604090206003015460ff1615610a8b57604051637afeb2e160e01b815260040160405180910390fd5b6000838152600360205260409020600481015460ff16610abe57604051635ae7a89560e11b815260040160405180910390fd5b80546001600160a01b03163314610ae85760405163ea8e4eb560e01b815260040160405180910390fd5b8060010154816002015410610b105760405163479290cf60e01b815260040160405180910390fd5b6001816002016000828254610b2591906117e9565b90915550506040805160808101825285815233602080830182815283850188815260016060860181815260008d81526004865288902096518755925190860180546001600160a01b0319166001600160a01b03909216919091179055516002850155516003909301805460ff1916931515939093179092559151858152869188917f70bcbf02d2425e532f5c505d1be92ea51a88e339ec8350ccdd2c8ed88e65218491015b60405180910390a45050505050565b600082815260208190526040902060010154610bf481610d32565b6105558383610dce565b6000610c0981610d32565b61058e8383610530565b61058e33848484610eef565b6000818152600460205260409020600381015460ff16610c52576040516379de4af560e01b815260040160405180910390fd5b6000828152600560205260409020600281015460ff16610c855760405163357a03ed60e21b815260040160405180910390fd5b80546001600160a01b03858116911614610cb25760405163ea8e4eb560e01b815260040160405180910390fd5b600180830180546001600160a01b038781166001600160a01b03198084168217909455600088815260056020526040808220805490961686559585018190556002909401805460ff19169055935191169291839187917f9cc86532afd4843c8838f17d7972e7f29389fe47d6712b6666af2d42df29ab3891a45050505050565b61052d8133611061565b6000610d48838361087b565b610dc6576000838152602081815260408083206001600160a01b03861684529091529020805460ff19166001179055610d7e3390565b6001600160a01b0316826001600160a01b0316847f2f8788117e7eff1d82e926ec794901d17c78024a50270940304540a733656f0d60405160405180910390a450600161051d565b50600061051d565b6000610dda838361087b565b15610dc6576000838152602081815260408083206001600160a01b0386168085529252808320805460ff1916905551339286917ff6391f5c32d9c69d2a47ea670b442974b53935d1edc7fd64eb21e047a839171b9190a450600161051d565b600061051d610e466110a3565b8360405161190160f01b8152600281019290925260228201526042902090565b600080600080610e7686866111ce565b925092509250610e86828261121b565b5090949350505050565b6060610ebd7f000000000000000000000000000000000000000000000000000000000000000060016112d4565b905090565b6060610ebd7f000000000000000000000000000000000000000000000000000000000000000060026112d4565b6000838152600460205260409020600381015460ff16610f22576040516379de4af560e01b815260040160405180910390fd5b60018101546001600160a01b03868116911614610f525760405163ea8e4eb560e01b815260040160405180910390fd5b60008481526005602052604090206002015460ff1615610f855760405163a8b2461360e01b815260040160405180910390fd5b6001600160a01b0383161580610fac5750846001600160a01b0316836001600160a01b0316145b15610fca57604051631e4ec46b60e01b815260040160405180910390fd5b604080516060810182526001600160a01b038581168083526020808401878152600185870181815260008c815260058552889020965187546001600160a01b031916908716178755915190860155516002909401805460ff19169415159490941790935592518581529088169187917fae06b6db978feac2debb593397295212069ab4d158ccc78101767a183e4feef39101610bca565b61106b828261087b565b61109f5760405163e2517d3f60e01b81526001600160a01b0382166004820152602481018390526044015b60405180910390fd5b5050565b6000306001600160a01b037f0000000000000000000000000000000000000000000000000000000000000000161480156110fc57507f000000000000000000000000000000000000000000000000000000000000000046145b1561112657507f000000000000000000000000000000000000000000000000000000000000000090565b610ebd604080517f8b73c3c69bb8fe3d512ecc4cf759cc79239f7b179b0ffacaa9a75d522b39400f60208201527f0000000000000000000000000000000000000000000000000000000000000000918101919091527f000000000000000000000000000000000000000000000000000000000000000060608201524660808201523060a082015260009060c00160405160208183030381529060405280519060200120905090565b600080600083516041036112085760208401516040850151606086015160001a6111fa8882858561137f565b955095509550505050611214565b50508151600091506002905b9250925092565b600082600381111561122f5761122f61180a565b03611238575050565b600182600381111561124c5761124c61180a565b0361126a5760405163f645eedf60e01b815260040160405180910390fd5b600282600381111561127e5761127e61180a565b0361129f5760405163fce698f760e01b815260048101829052602401611096565b60038260038111156112b3576112b361180a565b0361109f576040516335e2f38360e21b815260048101829052602401611096565b606060ff83146112ee576112e78361144e565b905061051d565b8180546112fa90611820565b80601f016020809104026020016040519081016040528092919081815260200182805461132690611820565b80156113735780601f1061134857610100808354040283529160200191611373565b820191906000526020600020905b81548152906001019060200180831161135657829003601f168201915b5050505050905061051d565b600080807f7fffffffffffffffffffffffffffffff5d576e7357a4501ddfe92f46681b20a08411156113ba5750600091506003905082611444565b604080516000808252602082018084528a905260ff891692820192909252606081018790526080810186905260019060a0016020604051602081039080840390855afa15801561140e573d6000803e3d6000fd5b5050604051601f1901519150506001600160a01b03811661143a57506000925060019150829050611444565b9250600091508190505b9450945094915050565b6060600061145b8361148d565b604080516020808252818301909252919250600091906020820181803683375050509182525060208101929092525090565b600060ff8216601f81111561051d57604051632cd44ac360e21b815260040160405180910390fd5b6000602082840312156114c757600080fd5b81356001600160e01b0319811681146114df57600080fd5b9392505050565b6000602082840312156114f857600080fd5b5035919050565b80356001600160a01b038116811461151657600080fd5b919050565b6000806040838503121561152e57600080fd5b8235915061153e602084016114ff565b90509250929050565b60008083601f84011261155957600080fd5b50813567ffffffffffffffff81111561157157600080fd5b60208301915083602082850101111561158957600080fd5b9250929050565b6000806000806000608086880312156115a857600080fd5b853594506020860135935060408601359250606086013567ffffffffffffffff8111156115d457600080fd5b6115e088828901611547565b969995985093965092949392505050565b6000806040838503121561160457600080fd5b50508035926020909101359150565b60006020828403121561162557600080fd5b6114df826114ff565b6000815180845260005b8181101561165457602081850181015186830182015201611638565b506000602082860101526020601f19601f83011685010191505092915050565b60ff60f81b881681526000602060e0602084015261169560e084018a61162e565b83810360408501526116a7818a61162e565b606085018990526001600160a01b038816608086015260a0850187905284810360c08601528551808252602080880193509091019060005b818110156116fb578351835292840192918401916001016116df565b50909c9b505050505050505050505050565b600080600080600080600060c0888a03121561172857600080fd5b87359650611738602089016114ff565b955060408801359450606088013593506080880135925060a088013567ffffffffffffffff81111561176957600080fd5b6117758a828b01611547565b989b979a50959850939692959293505050565b60008060006060848603121561179d57600080fd5b505081359360208301359350604090920135919050565b6000806000606084860312156117c957600080fd5b833592506117d9602085016114ff565b9150604084013590509250925092565b8082018082111561051d57634e487b7160e01b600052601160045260246000fd5b634e487b7160e01b600052602160045260246000fd5b600181811c9082168061183457607f821691505b60208210810361185457634e487b7160e01b600052602260045260246000fd5b5091905056fea2646970667358221220b4e3c95b4a5c3d9b143646a9cbcd34bae750d31475ce3822dff3176855f5c28d64736f6c63430008180033",
  "linkReferences": {},
  "deployedLinkReferences": {}
}