{"abi":[{"type":"constructor","inputs":[{"name":"admin","type":"address","internalType":"address"}],"stateMutability":"nonpayable"},{"type":"function","name":"DEFAULT_ADMIN_ROLE","inputs":[],"outputs":[{"name":"","type":"bytes32","internalType":"bytes32"}],"stateMutability":"view"},{"type":"function","name":"DISPUTE_RESOLUTION_WINDOW","inputs":[],"outputs":[{"name":"","type":"uint256","internalType":"uint256"}],"stateMutability":"view"},{"type":"function","name":"DISTRIBUTOR","inputs":[],"outputs":[{"name":"","type":"bytes32","internalType":"bytes32"}],"stateMutability":"view"},{"type":"function","name":"INSPECTOR","inputs":[],"outputs":[{"name":"","type":"bytes32","internalType":"bytes32"}],"stateMutability":"view"},{"type":"function","name":"MANUFACTURER","inputs":[],"outputs":[{"name":"","type":"bytes32","internalType":"bytes32"}],"stateMutability":"view"},{"type":"function","name":"REFUND_WINDOW","inputs":[],"outputs":[{"name":"","type":"uint256","internalType":"uint256"}],"stateMutability":"view"},{"type":"function","name":"TRANSFER_TIMEOUT","inputs":[],"outputs":[{"name":"","type":"uint256","internalType":"uint256"}],"stateMutability":"view"},{"type":"function","name":"acceptTransfer","inputs":[{"name":"productId","type":"uint256","internalType":"uint256"}],"outputs":[],"stateMutability":"nonpayable"},{"type":"function","name":"acceptTransferWithSig","inputs":[{"name":"productId","type":"uint256","internalType":"uint256"},{"name":"nonce","type":"uint256","internalType":"uint256"},{"name":"deadline","type":"uint256","internalType":"uint256"},{"name":"signature","type":"bytes","internalType":"bytes"}],"outputs":[],"stateMutability":"nonpayable"},{"type":"function","name":"approveRelayer","inputs":[{"name":"relayer","type":"address","internalType":"address"}],"outputs":[],"stateMutability":"nonpayable"},{"type":"function","name":"approvedRelayers","inputs":[{"name":"","type":"address","internalType":"address"}],"outputs":[{"name":"","type":"bool","internalType":"bool"}],"stateMutability":"view"},{"type":"function","name":"batches","inputs":[{"name":"","type":"uint256","internalType":"uint256"}],"outputs":[{"name":"manufacturer","type":"address","internalType":"address"},{"name":"maxUnits","type":"uint256","internalType":"uint256"},{"name":"minted","type":"uint256","internalType":"uint256"},{"name":"stake","type":"uint256","internalType":"uint256"},{"name":"active","type":"bool","internalType":"bool"}],"stateMutability":"view"},{"type":"function","name":"claimRefund","inputs":[{"name":"productId","type":"uint256","internalType":"uint256"}],"outputs":[],"stateMutability":"nonpayable"},{"type":"function","name":"eip712Domain","inputs":[],"outputs":[{"name":"fields","type":"bytes1","internalType":"bytes1"},{"name":"name","type":"string","internalType":"string"},{"name":"version","type":"string","internalType":"string"},{"name":"chainId","type":"uint256","internalType":"uint256"},{"name":"verifyingContract","type":"address","internalType":"address"},{"name":"salt","type":"bytes32","internalType":"bytes32"},{"name":"extensions","type":"uint256[]","internalType":"uint256[]"}],"stateMutability":"view"},{"type":"function","name":"executeMetaTx","inputs":[{"name":"user","type":"address","internalType":"address"},{"name":"productId","type":"uint256","internalType":"uint256"},{"name":"to","type":"address","internalType":"address"},{"name":"locationHash","type":"bytes32","internalType":"bytes32"},{"name":"nonce","type":"uint256","internalType":"uint256"},{"name":"deadline","type":"uint256","internalType":"uint256"},{"name":"signature","type":"bytes","internalType":"bytes"}],"outputs":[],"stateMutability":"nonpayable"},{"type":"function","name":"getBatchMetadata","inputs":[{"name":"batchId","type":"uint256","internalType":"uint256"}],"outputs":[{"name":"manufacturer","type":"address","internalType":"address"},{"name":"maxUnits","type":"uint256","internalType":"uint256"},{"name":"minted","type":"uint256","internalType":"uint256"},{"name":"stake","type":"uint256","internalType":"uint256"},{"name":"status","type":"string","internalType":"string"}],"stateMutability":"view"},{"type":"function","name":"getBatchProductCount","inputs":[{"name":"batchId","type":"uint256","internalType":"uint256"}],"outputs":[{"name":"","type":"uint256","internalType":"uint256"}],"stateMutability":"view"},{"type":"function","name":"getBatchStatus","inputs":[{"name":"batchId","type":"uint256","internalType":"uint256"}],"outputs":[{"name":"","type":"string","internalType":"string"}],"stateMutability":"view"},{"type":"function","name":"getRoleAdmin","inputs":[{"name":"role","type":"bytes32","internalType":"bytes32"}],"outputs":[{"name":"","type":"bytes32","internalType":"bytes32"}],"stateMutability":"view"},{"type":"function","name":"grantRole","inputs":[{"name":"role","type":"bytes32","internalType":"bytes32"},{"name":"account","type":"address","internalType":"address"}],"outputs":[],"stateMutability":"nonpayable"},{"type":"function","name":"grantRoleSafe","inputs":[{"name":"role","type":"bytes32","internalType":"bytes32"},{"name":"account","type":"address","internalType":"address"}],"outputs":[],"stateMutability":"nonpayable"},{"type":"function","name":"hasRole","inputs":[{"name":"role","type":"bytes32","internalType":"bytes32"},{"name":"account","type":"address","internalType":"address"}],"outputs":[{"name":"","type":"bool","internalType":"bool"}],"stateMutability":"view"},{"type":"function","name":"initiateTransfer","inputs":[{"name":"productId","type":"uint256","internalType":"uint256"},{"name":"to","type":"address","internalType":"address"},{"name":"locationHash","type":"bytes32","internalType":"bytes32"}],"outputs":[],"stateMutability":"nonpayable"},{"type":"function","name":"initiateTransferWithSig","inputs":[{"name":"productId","type":"uint256","internalType":"uint256"},{"name":"to","type":"address","internalType":"address"},{"name":"locationHash","type":"bytes32","internalType":"bytes32"},{"name":"nonce","type":"uint256","internalType":"uint256"},{"name":"deadline","type":"uint256","internalType":"uint256"},{"name":"signature","type":"bytes","internalType":"bytes"}],"outputs":[],"stateMutability":"nonpayable"},{"type":"function","name":"isDisputeActive","inputs":[{"name":"productId","type":"uint256","internalType":"uint256"}],"outputs":[{"name":"","type":"bool","internalType":"bool"}],"stateMutability":"view"},{"type":"function","name":"mintProduct","inputs":[{"name":"productId","type":"uint256","internalType":"uint256"},{"name":"batchId","type":"uint256","internalType":"uint256"},{"name":"metadataHash","type":"bytes32","internalType":"bytes32"}],"outputs":[],"stateMutability":"nonpayable"},{"type":"function","name":"nonces","inputs":[{"name":"","type":"address","internalType":"address"}],"outputs":[{"name":"","type":"uint256","internalType":"uint256"}],"stateMutability":"view"},{"type":"function","name":"ownerOf","inputs":[{"name":"productId","type":"uint256","internalType":"uint256"}],"outputs":[{"name":"","type":"address","internalType":"address"}],"stateMutability":"view"},{"type":"function","name":"productBatch","inputs":[{"name":"productId","type":"uint256","internalType":"uint256"}],"outputs":[{"name":"","type":"uint256","internalType":"uint256"}],"stateMutability":"view"},{"type":"function","name":"raiseDispute","inputs":[{"name":"productId","type":"uint256","internalType":"uint256"},{"name":"reasonHash","type":"bytes32","internalType":"bytes32"}],"outputs":[],"stateMutability":"nonpayable"},{"type":"function","name":"registerBatch","inputs":[{"name":"batchId","type":"uint256","internalType":"uint256"},{"name":"maxUnits","type":"uint256","internalType":"uint256"}],"outputs":[],"stateMutability":"payable"},{"type":"function","name":"renounceRole","inputs":[{"name":"role","type":"bytes32","internalType":"bytes32"},{"name":"callerConfirmation","type":"address","internalType":"address"}],"outputs":[],"stateMutability":"nonpayable"},{"type":"function","name":"resolveDispute","inputs":[{"name":"productId","type":"uint256","internalType":"uint256"},{"name":"winner","type":"address","internalType":"address"}],"outputs":[],"stateMutability":"nonpayable"},{"type":"function","name":"revokeRole","inputs":[{"name":"role","type":"bytes32","internalType":"bytes32"},{"name":"account","type":"address","internalType":"address"}],"outputs":[],"stateMutability":"nonpayable"},{"type":"function","name":"supportsInterface","inputs":[{"name":"interfaceId","type":"bytes4","internalType":"bytes4"}],"outputs":[{"name":"","type":"bool","internalType":"bool"}],"stateMutability":"view"},{"type":"event","name":"BatchRegistered","inputs":[{"name":"batchId","type":"uint256","indexed":true,"internalType":"uint256"},{"name":"manufacturer","type":"address","indexed":true,"internalType":"address"},{"name":"maxUnits","type":"uint256","indexed":false,"internalType":"uint256"},{"name":"stake","type":"uint256","indexed":false,"internalType":"uint256"}],"anonymous":false},{"type":"event","name":"BatchStatusChanged","inputs":[{"name":"batchId","type":"uint256","indexed":true,"internalType":"uint256"},{"name":"status","type":"string","indexed":false,"internalType":"string"},{"name":"timestamp","type":"uint256","indexed":false,"internalType":"uint256"}],"anonymous":false},{"type":"event","name":"DisputeRaised","inputs":[{"name":"productId","type":"uint256","indexed":true,"internalType":"uint256"},{"name":"disputer","type":"address","indexed":true,"internalType":"address"},{"name":"reason","type":"string","indexed":false,"internalType":"string"},{"name":"timestamp","type":"uint256","indexed":false,"internalType":"uint256"}],"anonymous":false},{"type":"event","name":"DisputeResolved","inputs":[{"name":"productId","type":"uint256","indexed":true,"internalType":"uint256"},{"name":"winner","type":"address","indexed":true,"internalType":"address"},{"name":"slashedAmount","type":"uint256","indexed":false,"internalType":"uint256"},{"name":"timestamp","type":"uint256","indexed":false,"internalType":"uint256"}],"anonymous":false},{"type":"event","name":"EIP712DomainChanged","inputs":[],"anonymous":false},{"type":"event","name":"MetaTxExecuted","inputs":[{"name":"relayer","type":"address","indexed":true,"internalType":"address"},{"name":"user","type":"address","indexed":true,"internalType":"address"},{"name":"nonce","type":"uint256","indexed":false,"internalType":"uint256"}],"anonymous":false},{"type":"event","name":"ProductMinted","inputs":[{"name":"productId","type":"uint256","indexed":true,"internalType":"uint256"},{"name":"batchId","type":"uint256","indexed":true,"internalType":"uint256"},{"name":"owner","type":"address","indexed":true,"internalType":"address"},{"name":"metadataHash","type":"bytes32","indexed":false,"internalType":"bytes32"}],"anonymous":false},{"type":"event","name":"ProvenanceRecorded","inputs":[{"name":"productId","type":"uint256","indexed":true,"internalType":"uint256"},{"name":"handler","type":"address","indexed":true,"internalType":"address"},{"name":"locationHash","type":"bytes32","indexed":false,"internalType":"bytes32"},{"name":"action","type":"string","indexed":false,"internalType":"string"},{"name":"timestamp","type":"uint256","indexed":false,"internalType":"uint256"}],"anonymous":false},{"type":"event","name":"RelayerApproved","inputs":[{"name":"relayer","type":"address","indexed":true,"internalType":"address"},{"name":"approved","type":"bool","indexed":false,"internalType":"bool"}],"anonymous":false},{"type":"event","name":"RoleAdminChanged","inputs":[{"name":"role","type":"bytes32","indexed":true,"internalType":"bytes32"},{"name":"previousAdminRole","type":"bytes32","indexed":true,"internalType":"bytes32"},{"name":"newAdminRole","type":"bytes32","indexed":true,"internalType":"bytes32"}],"anonymous":false},{"type":"event","name":"RoleGranted","inputs":[{"name":"role","type":"bytes32","indexed":true,"internalType":"bytes32"},{"name":"account","type":"address","indexed":true,"internalType":"address"},{"name":"sender","type":"address","indexed":true,"internalType":"address"}],"anonymous":false},{"type":"event","name":"RoleRevoked","inputs":[{"name":"role","type":"bytes32","indexed":true,"internalType":"bytes32"},{"name":"account","type":"address","indexed":true,"internalType":"address"},{"name":"sender","type":"address","indexed":true,"internalType":"address"}],"anonymous":false},{"type":"event","name":"TransferAccepted","inputs":[{"name":"productId","type":"uint256","indexed":true,"internalType":"uint256"},{"name":"from","type":"address","indexed":true,"internalType":"address"},{"name":"to","type":"address","indexed":true,"internalType":"address"}],"anonymous":false},{"type":"event","name":"TransferInitiated","inputs":[{"name":"productId","type":"uint256","indexed":true,"internalType":"uint256"},{"name":"from","type":"address","indexed":true,"internalType":"address"},{"name":"to","type":"address","indexed":true,"internalType":"address"},{"name":"locationHash","type":"bytes32","indexed":false,"internalType":"bytes32"}],"anonymous":false},{"type":"error","name":"AccessControlBadConfirmation","inputs":[]},{"type":"error","name":"AccessControlUnauthorizedAccount","inputs":[{"name":"account","type":"address","internalType":"address"},{"name":"neededRole","type":"bytes32","internalType":"bytes32"}]},{"type":"error","name":"BatchAlreadyRegistered","inputs":[]},{"type":"error","name":"BatchLimitReached","inputs":[]},{"type":"error","name":"BatchNotActive","inputs":[]},{"type":"error","name":"DeadlineExpired","inputs":[]},{"type":"error","name":"DisputeAlreadyResolved","inputs":[]},{"type":"error","name":"DisputeNotActive","inputs":[]},{"type":"error","name":"ECDSAInvalidSignature","inputs":[]},{"type":"error","name":"ECDSAInvalidSignatureLength","inputs":[{"name":"length","type":"uint256","internalType":"uint256"}]},{"type":"error","name":"ECDSAInvalidSignatureS","inputs":[{"name":"s","type":"bytes32","internalType":"bytes32"}]},{"type":"error","name":"InvalidBatch","inputs":[]},{"type":"error","name":"InvalidReceiver","inputs":[]},{"type":"error","name":"InvalidShortString","inputs":[]},{"type":"error","name":"InvalidSignature","inputs":[]},{"type":"error","name":"NoPendingTransfer","inputs":[]},{"type":"error","name":"NoRelayerApproval","inputs":[]},{"type":"error","name":"NotAuthorized","inputs":[]},{"type":"error","name":"ProductAlreadyExists","inputs":[]},{"type":"error","name":"ProductNotFound","inputs":[]},{"type":"error","name":"StakeRequired","inputs":[]},{"type":"error","name":"StringTooLong","inputs":[{"name":"str","type":"string","internalType":"string"}]},{"type":"error","name":"TransferAlreadyPending","inputs":[]}],"bytecode":{"object":"0x61016060405234801562000011575f80fd5b5060405162002f6338038062002f63833981016040819052620000349162000271565b6040518060400160405280600b81526020016a29bab838363ca1b430b4b760a91b815250604051806040016040528060018152602001603160f81b815250620000886001836200014360201b90919060201c565b610120526200009981600262000143565b61014052815160208084019190912060e052815190820120610100524660a0526200012660e05161010051604080517f8b73c3c69bb8fe3d512ecc4cf759cc79239f7b179b0ffacaa9a75d522b39400f60208201529081019290925260608201524660808201523060a08201525f9060c00160405160208183030381529060405280519060200120905090565b60805250503060c0526200013b5f826200017b565b50506200047c565b5f60208351101562000162576200015a8362000226565b905062000175565b816200016f84826200033e565b5060ff90505b92915050565b5f828152602081815260408083206001600160a01b038516845290915281205460ff166200021e575f838152602081815260408083206001600160a01b03861684529091529020805460ff19166001179055620001d53390565b6001600160a01b0316826001600160a01b0316847f2f8788117e7eff1d82e926ec794901d17c78024a50270940304540a733656f0d60405160405180910390a450600162000175565b505f62000175565b5f80829050601f815111156200025c578260405163305a27a960e01b81526004016200025391906200040a565b60405180910390fd5b8051620002698262000458565b179392505050565b5f6020828403121562000282575f80fd5b81516001600160a01b038116811462000299575f80fd5b9392505050565b634e487b7160e01b5f52604160045260245ffd5b600181811c90821680620002c957607f821691505b602082108103620002e857634e487b7160e01b5f52602260045260245ffd5b50919050565b601f8211156200033957805f5260205f20601f840160051c81016020851015620003155750805b601f840160051c820191505b8181101562000336575f815560010162000321565b50505b505050565b81516001600160401b038111156200035a576200035a620002a0565b62000372816200036b8454620002b4565b84620002ee565b602080601f831160018114620003a8575f8415620003905750858301515b5f19600386901b1c1916600185901b17855562000402565b5f85815260208120601f198616915b82811015620003d857888601518255948401946001909101908401620003b7565b5085821015620003f657878501515f19600388901b60f8161c191681555b505060018460011b0185555b505050505050565b5f602080835283518060208501525f5b8181101562000438578581018301518582016040015282016200041a565b505f604082860101526040601f19601f8301168501019250505092915050565b80516020808301519190811015620002e8575f1960209190910360031b1b16919050565b60805160a05160c05160e051610100516101205161014051612a95620004ce5f395f61215601525f61212401525f61229201525f61226a01525f6121c501525f6121ef01525f6122190152612a955ff3fe6080604052600436106101fc575f3560e01c8063636bf26d116101135780639c26149f1161009d578063cd407f371161006d578063cd407f37146106b5578063d1685cc0146106d4578063d547741f146106f3578063d5afc4b414610712578063de901eae14610731575f80fd5b80639c26149f146105c6578063a217fddf146105f9578063b32c4d8d1461060c578063b35eee1914610696575f80fd5b806384b0196e116100e357806384b0196e1461050c57806387065deb146105335780638cba8b6a1461054957806391d14854146105775780639912627f14610596575f80fd5b8063636bf26d1461047c578063656e49fa1461049b578063797d7cc9146104ae5780637ecebe00146104e1575f80fd5b80632f2ff15d116101945780634fab0a54116101645780634fab0a54146103d25780634fbf313b146103f15780635b7baf64146104105780635c9808291461042f5780636352211e14610445575f80fd5b80632f2ff15d1461034257806336568abe1461036157806349ec99ee146103805780634e99b86f146103b3575f80fd5b80631deeca10116101cf5780631deeca1014610298578063248a9ca3146102c9578063274fae7c146102f75780632d1bbc8e14610316575f80fd5b806301ffc9a7146102005780630772d2d7146102345780630e33599d146102615780631153b5f314610282575b5f80fd5b34801561020b575f80fd5b5061021f61021a3660046125b8565b610750565b60405190151581526020015b60405180910390f35b34801561023f575f80fd5b5061025361024e3660046125e6565b610786565b60405190815260200161022b565b34801561026c575f80fd5b5061028061027b366004612618565b6107cb565b005b34801561028d575f80fd5b506102536212750081565b3480156102a3575f80fd5b5061021f6102b23660046125e6565b5f9081526006602052604090206002015460ff1690565b3480156102d4575f80fd5b506102536102e33660046125e6565b5f9081526020819052604090206001015490565b348015610302575f80fd5b506102806103113660046125e6565b610b84565b348015610321575f80fd5b506103356103303660046125e6565b610b91565b60405161022b9190612685565b34801561034d575f80fd5b5061028061035c366004612618565b610c43565b34801561036c575f80fd5b5061028061037b366004612618565b610c6d565b34801561038b575f80fd5b506102537f6659d833875b88922d2576dad6c137a09ba676496bb2010bf8a72397792167a081565b3480156103be575f80fd5b506102806103cd3660046126dc565b610ca5565b3480156103dd575f80fd5b506102806103ec366004612761565b610e92565b3480156103fc575f80fd5b5061028061040b36600461277a565b610ef9565b34801561041b575f80fd5b5061028061042a3660046125e6565b611025565b34801561043a575f80fd5b5061025362093a8081565b348015610450575f80fd5b5061046461045f3660046125e6565b611240565b6040516001600160a01b03909116815260200161022b565b348015610487575f80fd5b506102806104963660046127d6565b611285565b6102806104a93660046127d6565b611422565b3480156104b9575f80fd5b506102537f6708279cb5b7899861c476830845b35dc693bcddf85695a204b94cda1c82583481565b3480156104ec575f80fd5b506102536104fb366004612761565b600b6020525f908152604090205481565b348015610517575f80fd5b506105206115aa565b60405161022b97969594939291906127f6565b34801561053e575f80fd5b506102536203f48081565b348015610554575f80fd5b5061021f610563366004612761565b600a6020525f908152604090205460ff1681565b348015610582575f80fd5b5061021f610591366004612618565b6115ec565b3480156105a1575f80fd5b506105b56105b03660046125e6565b611614565b60405161022b95949392919061288d565b3480156105d1575f80fd5b506102537f85faced7bde13e1a7dad704b895f006e704f207617d68166b31ba2d79624862d81565b348015610604575f80fd5b506102535f81565b348015610617575f80fd5b506106626106263660046125e6565b600360208190525f9182526040909120805460018201546002830154938301546004909301546001600160a01b03909216939092909160ff1685565b604080516001600160a01b03909616865260208601949094529284019190915260608301521515608082015260a00161022b565b3480156106a1575f80fd5b506102536106b03660046125e6565b6116f4565b3480156106c0575f80fd5b506102806106cf3660046128ca565b61172d565b3480156106df575f80fd5b506102806106ee36600461293f565b611873565b3480156106fe575f80fd5b5061028061070d366004612618565b611b34565b34801561071d575f80fd5b5061028061072c366004612618565b611b58565b34801561073c575f80fd5b5061028061074b366004612968565b611b6c565b5f6001600160e01b03198216637965db0b60e01b148061078057506301ffc9a760e01b6001600160e01b03198316145b92915050565b5f818152600360205260408120600481015460ff166107b857604051635ae7a89560e11b815260040160405180910390fd5b50505f9081526008602052604090205490565b5f6107d581611b78565b5f838152600660205260409020600281015460ff16610807576040516303b9ba8b60e31b815260040160405180910390fd5b6002810154610100900460ff16156108325760405163f10068b560e01b815260040160405180910390fd5b62093a80816003015461084591906129ae565b42111561086557604051631ab7da6b60e01b815260040160405180910390fd5b5f848152600460209081526040808320805484526003835281842054888552600590935290832090926001600160a01b039283169287168390036109a6575060058401546040515f906001600160a01b0385169083908381818185875af1925050503d805f81146108f1576040519150601f19603f3d011682016040523d82523d5f602084013e6108f6565b606091505b505090508061093c5760405162461bcd60e51b815260206004820152600d60248201526c1499599d5b990819985a5b1959609a1b60448201526064015b60405180910390fd5b836001600160a01b0316895f80516020612a408339815191525f801b426040516109989291909182526060602083018190526010908301526f111254d415551157d49151955391115160821b6080830152604082015260a00190565b60405180910390a350610a7d565b600382015460ff1615610a7d57600285600501546109c491906129c1565b90508060095f8a81526020019081526020015f205f8282546109e691906129e0565b90915550506040515f906001600160a01b0389169083908381818185875af1925050503d805f8114610a33576040519150601f19603f3d011682016040523d82523d5f602084013e610a38565b606091505b5050905080610a7b5760405162461bcd60e51b815260206004820152600f60248201526e151c985b9cd9995c8819985a5b1959608a1b6044820152606401610933565b505b600382015460ff1615610ac0575f88815260056020526040812080546001600160a01b0319168155600181018290556002810191909155600301805460ff191690555b60028501805461ffff1916610100179055604080518281524260208201526001600160a01b038916918a917f5bbfc37a6f395570449ddbe2c9147a0830640899e7736be39a8b8520cf2b55a9910160405180910390a3866001600160a01b0316885f80516020612a408339815191525f801b42604051610b729291909182526060602083018190526010908301526f111254d415551157d49154d3d315915160821b6080830152604082015260a00190565b60405180910390a35050505050505050565b610b8e3382611b82565b50565b5f81815260036020526040902060048101546060919060ff16610bc757604051635ae7a89560e11b815260040160405180910390fd5b5f8381526007602052604081205460ff1690816001811115610beb57610beb6129f3565b14610c1a576040518060400160405280600c81526020016b119553131657d3525395115160a21b815250610c3b565b6040518060400160405280600781526020016610d4915055115160ca1b8152505b949350505050565b5f82815260208190526040902060010154610c5d81611b78565b610c678383611d56565b50505050565b6001600160a01b0381163314610c965760405163334bd91960e11b815260040160405180910390fd5b610ca08282611de5565b505050565b335f908152600a602052604090205460ff16610cd457604051634843aa9360e11b815260040160405180910390fd5b42831015610cf557604051631ab7da6b60e01b815260040160405180910390fd5b604080517fc67e7f265b2128fb39ce2a871a16cd8421fee5213cde6fa5f562d0759c3aefb760208201529081018890526001600160a01b03871660608201526080810186905260a0810185905260c081018490525f9060e0016040516020818303038152906040528051906020012090505f610db184848080601f0160208091040260200160405190810160405280939291908181526020018383808284375f92019190915250610dab9250869150611e4e9050565b90611e7a565b9050896001600160a01b0316816001600160a01b031614610de557604051638baa579f60e01b815260040160405180910390fd5b6001600160a01b038a165f908152600b60205260409020548614610e1c57604051638baa579f60e01b815260040160405180910390fd5b6001600160a01b038a165f908152600b6020526040902080546001019055610e468a8a8a8a611ea2565b6040518681526001600160a01b038b169033907f7263a9d4ec443510c87eba2fb38533c494e3e72aa5fe5445520c7bfd9ce2efbd9060200160405180910390a350505050505050505050565b5f610e9c81611b78565b6001600160a01b0382165f818152600a6020908152604091829020805460ff1916600190811790915591519182527ff4f23f635d7e7e15ed8eb61931987998e776fc6790838a020ac49e51e00b76ba910160405180910390a25050565b42831015610f1a57604051631ab7da6b60e01b815260040160405180910390fd5b604080517fb9b22616824a0fdd55759e861704fd4e426236bb7ea523e53a363ce2f3bb5e20602082015290810186905260608101859052608081018490525f9060a0016040516020818303038152906040528051906020012090505f610fba84848080601f0160208091040260200160405190810160405280939291908181526020018383808284375f92019190915250610dab9250869150611e4e9050565b6001600160a01b0381165f908152600b60205260409020549091508614610ff457604051638baa579f60e01b815260040160405180910390fd5b6001600160a01b0381165f908152600b602052604090208054600101905561101c8188611b82565b50505050505050565b5f8181526006602052604090206002810154610100900460ff161561105d5760405163f10068b560e01b815260040160405180910390fd5b600281015460ff16611082576040516303b9ba8b60e31b815260040160405180910390fd5b80600401544210156110a757604051631ab7da6b60e01b815260040160405180910390fd5b5f828152600460205260409020600381015460ff166110d9576040516379de4af560e01b815260040160405180910390fd5b80545f9081526003602052604080822054600585015460028601805461ffff191661010017905591516001600160a01b039091169290839083908381818185875af1925050503d805f8114611149576040519150601f19603f3d011682016040523d82523d5f602084013e61114e565b606091505b505090508061118f5760405162461bcd60e51b815260206004820152600d60248201526c1499599d5b990819985a5b1959609a1b6044820152606401610933565b604080518381524260208201526001600160a01b0385169188917f5bbfc37a6f395570449ddbe2c9147a0830640899e7736be39a8b8520cf2b55a9910160405180910390a3826001600160a01b0316865f80516020612a408339815191525f801b426040516112309291909182526060602083018190526010908301526f111254d415551157d49151955391115160821b6080830152604082015260a00190565b60405180910390a3505050505050565b5f818152600460205260408120600381015460ff16611272576040516379de4af560e01b815260040160405180910390fd5b600101546001600160a01b031692915050565b5f828152600460205260409020600381015460ff166112b7576040516379de4af560e01b815260040160405180910390fd5b5f8381526006602052604090206002810154610100900460ff16156112ef5760405163f10068b560e01b815260040160405180910390fd5b600281015460ff16156113155760405163f10068b560e01b815260040160405180910390fd5b5f8481526009602052604090205481546001600160a01b03191633178255600180830185905560028301805461ffff1916909117905542600383018190556113619062127500906129ae565b60048301556005820181905560408051818152600e818301526d111a5cdc1d5d19481c985a5cd95960921b60608201524260208201529051339187917f9d956e00a78b28b7f3b6b25c60a4729355093de02cac8715ceb237725c0f58209181900360800190a3604080515f8152606060208201819052600e908201526d111254d415551157d4905254d15160921b60808201524291810191909152339086905f80516020612a408339815191529060a0015b60405180910390a35050505050565b7f6659d833875b88922d2576dad6c137a09ba676496bb2010bf8a72397792167a061144c81611b78565b345f0361146c576040516337c2e99960e21b815260040160405180910390fd5b815f0361148c576040516333b094a160e01b815260040160405180910390fd5b5f838152600360205260409020600481015460ff16156114bf57604051630fa992d560e31b815260040160405180910390fd5b80546001600160a01b03191633908117825560018083018590555f60028401819055346003850181905560048501805460ff1990811690941790558782526007602090815260408084208054909516909455600881528383209290925582518781529182015286917f393e916c1dfc22d76701413768477926c03c62e090a22793b40c4e1bac3f0f00910160405180910390a3604080518181526007818301526610d4915055115160ca1b6060820152426020820152905185917fd1f1a368b113312abe993c35d4fe6ddec3e14d22fcc65a0bfd2787fe1350e465919081900360800190a250505050565b5f6060805f805f60606115bb61211d565b6115c361214f565b604080515f80825260208201909252600f60f81b9b939a50919850469750309650945092509050565b5f918252602082815260408084206001600160a01b0393909316845291905290205460ff1690565b5f818152600360205260408120600481015482918291829160609160ff1661164f57604051635ae7a89560e11b815260040160405180910390fd5b5f8781526007602052604081205460ff169080826001811115611674576116746129f3565b146116a3576040518060400160405280600c81526020016b119553131657d3525395115160a21b8152506116c4565b6040518060400160405280600781526020016610d4915055115160ca1b8152505b8354600185015460028601546003909601546001600160a01b039092169c909b5094995097509550919350505050565b5f818152600460205260408120600381015460ff16611726576040516379de4af560e01b815260040160405180910390fd5b5492915050565b4283101561174e57604051631ab7da6b60e01b815260040160405180910390fd5b604080517fc67e7f265b2128fb39ce2a871a16cd8421fee5213cde6fa5f562d0759c3aefb760208201529081018890526001600160a01b03871660608201526080810186905260a0810185905260c081018490525f9060e0016040516020818303038152906040528051906020012090505f61180484848080601f0160208091040260200160405190810160405280939291908181526020018383808284375f92019190915250610dab9250869150611e4e9050565b6001600160a01b0381165f908152600b6020526040902054909150861461183e57604051638baa579f60e01b815260040160405180910390fd5b6001600160a01b0381165f908152600b6020526040902080546001019055611868818a8a8a611ea2565b505050505050505050565b7f6659d833875b88922d2576dad6c137a09ba676496bb2010bf8a72397792167a061189d81611b78565b5f8481526004602052604090206003015460ff16156118cf57604051637afeb2e160e01b815260040160405180910390fd5b5f838152600360205260409020600481015460ff1661190157604051635ae7a89560e11b815260040160405180910390fd5b80546001600160a01b0316331461192b5760405163ea8e4eb560e01b815260040160405180910390fd5b80600101548160020154106119535760405163479290cf60e01b815260040160405180910390fd5b6001816002015f82825461196791906129ae565b90915550505f84815260086020526040812080546001929061198a9084906129ae565b9091555050604080516080810182528581523360208083019182528284018781526001606085018181525f8c815260049094529590922093518455915183820180546001600160a01b0319166001600160a01b039092169190911790559051600283015591516003918201805460ff19169115159190911790559082015490820154611a1691906129c1565b5f868152600960205260409020556001810154600282015403611aa7575f84815260076020908152604091829020805460ff191660011790558151828152600c928101929092526b119553131657d3525395115160a21b6060830152429082015284907fd1f1a368b113312abe993c35d4fe6ddec3e14d22fcc65a0bfd2787fe1350e4659060800160405180910390a25b336001600160a01b031684867f70bcbf02d2425e532f5c505d1be92ea51a88e339ec8350ccdd2c8ed88e65218486604051611ae491815260200190565b60405180910390a4604080515f81526060602082018190526006908201526513525395115160d21b60808201524291810191909152339086905f80516020612a408339815191529060a001611413565b5f82815260208190526040902060010154611b4e81611b78565b610c678383611de5565b5f611b6281611b78565b610ca08383610c43565b610ca033848484611ea2565b610b8e813361217c565b5f818152600460205260409020600381015460ff16611bb4576040516379de4af560e01b815260040160405180910390fd5b5f828152600560205260409020600381015460ff16611be65760405163357a03ed60e21b815260040160405180910390fd5b6203f4808160020154611bf991906129ae565b421115611c1957604051631ab7da6b60e01b815260040160405180910390fd5b80546001600160a01b03858116911614611c465760405163ea8e4eb560e01b815260040160405180910390fd5b5f8381526006602052604090206002015460ff1615611c78576040516303b9ba8b60e31b815260040160405180910390fd5b600180830180546001600160a01b038781166001600160a01b031980841682179094555f8881526005602052604080822080549096168655958501819055600285018190556003909401805460ff19169055935191169291839187917f9cc86532afd4843c8838f17d7972e7f29389fe47d6712b6666af2d42df29ab3891a4846001600160a01b0316845f80516020612a40833981519152846001015442604051611413929190918252606060208301819052601190830152701514905394d1915497d050d0d154151151607a1b6080830152604082015260a00190565b5f611d6183836115ec565b611dde575f838152602081815260408083206001600160a01b03861684529091529020805460ff19166001179055611d963390565b6001600160a01b0316826001600160a01b0316847f2f8788117e7eff1d82e926ec794901d17c78024a50270940304540a733656f0d60405160405180910390a4506001610780565b505f610780565b5f611df083836115ec565b15611dde575f838152602081815260408083206001600160a01b0386168085529252808320805460ff1916905551339286917ff6391f5c32d9c69d2a47ea670b442974b53935d1edc7fd64eb21e047a839171b9190a4506001610780565b5f610780611e5a6121b9565b8360405161190160f01b8152600281019290925260228201526042902090565b5f805f80611e8886866122e2565b925092509250611e98828261232b565b5090949350505050565b5f838152600460205260409020600381015460ff16611ed4576040516379de4af560e01b815260040160405180910390fd5b60018101546001600160a01b03868116911614611f045760405163ea8e4eb560e01b815260040160405180910390fd5b5f848152600560205260409020600381015460ff168015611f3657506203f4808160020154611f3391906129ae565b42115b15611f71575f85815260056020526040812080546001600160a01b0319168155600181018290556002810191909155600301805460ff191690555b5f8581526005602052604090206003015460ff1615611fa35760405163a8b2461360e01b815260040160405180910390fd5b6001600160a01b0384161580611fca5750856001600160a01b0316846001600160a01b0316145b15611fe857604051631e4ec46b60e01b815260040160405180910390fd5b5f8581526006602052604090206002015460ff161561201a576040516303b9ba8b60e31b815260040160405180910390fd5b604080516080810182526001600160a01b038681168083526020808401888152428587019081526001606087018181525f8e815260058652899020975188546001600160a01b031916908816178855925190870155516002860155516003909401805460ff19169415159490941790935592518681529089169188917fae06b6db978feac2debb593397295212069ab4d158ccc78101767a183e4feef3910160405180910390a4856001600160a01b0316855f80516020612a408339815191528542604051611230929190918252606060208301819052601290830152711514905394d1915497d2539255125055115160721b6080830152604082015260a00190565b606061214a7f000000000000000000000000000000000000000000000000000000000000000060016123e3565b905090565b606061214a7f000000000000000000000000000000000000000000000000000000000000000060026123e3565b61218682826115ec565b6121b55760405163e2517d3f60e01b81526001600160a01b038216600482015260248101839052604401610933565b5050565b5f306001600160a01b037f00000000000000000000000000000000000000000000000000000000000000001614801561221157507f000000000000000000000000000000000000000000000000000000000000000046145b1561223b57507f000000000000000000000000000000000000000000000000000000000000000090565b61214a604080517f8b73c3c69bb8fe3d512ecc4cf759cc79239f7b179b0ffacaa9a75d522b39400f60208201527f0000000000000000000000000000000000000000000000000000000000000000918101919091527f000000000000000000000000000000000000000000000000000000000000000060608201524660808201523060a08201525f9060c00160405160208183030381529060405280519060200120905090565b5f805f8351604103612319576020840151604085015160608601515f1a61230b8882858561248c565b955095509550505050612324565b505081515f91506002905b9250925092565b5f82600381111561233e5761233e6129f3565b03612347575050565b600182600381111561235b5761235b6129f3565b036123795760405163f645eedf60e01b815260040160405180910390fd5b600282600381111561238d5761238d6129f3565b036123ae5760405163fce698f760e01b815260048101829052602401610933565b60038260038111156123c2576123c26129f3565b036121b5576040516335e2f38360e21b815260048101829052602401610933565b606060ff83146123fd576123f683612554565b9050610780565b81805461240990612a07565b80601f016020809104026020016040519081016040528092919081815260200182805461243590612a07565b80156124805780601f1061245757610100808354040283529160200191612480565b820191905f5260205f20905b81548152906001019060200180831161246357829003601f168201915b50505050509050610780565b5f80807f7fffffffffffffffffffffffffffffff5d576e7357a4501ddfe92f46681b20a08411156124c557505f9150600390508261254a565b604080515f808252602082018084528a905260ff891692820192909252606081018790526080810186905260019060a0016020604051602081039080840390855afa158015612516573d5f803e3d5ffd5b5050604051601f1901519150506001600160a01b03811661254157505f92506001915082905061254a565b92505f91508190505b9450945094915050565b60605f61256083612591565b6040805160208082528183019092529192505f91906020820181803683375050509182525060208101929092525090565b5f60ff8216601f81111561078057604051632cd44ac360e21b815260040160405180910390fd5b5f602082840312156125c8575f80fd5b81356001600160e01b0319811681146125df575f80fd5b9392505050565b5f602082840312156125f6575f80fd5b5035919050565b80356001600160a01b0381168114612613575f80fd5b919050565b5f8060408385031215612629575f80fd5b82359150612639602084016125fd565b90509250929050565b5f81518084525f5b818110156126665760208185018101518683018201520161264a565b505f602082860101526020601f19601f83011685010191505092915050565b602081525f6125df6020830184612642565b5f8083601f8401126126a7575f80fd5b50813567ffffffffffffffff8111156126be575f80fd5b6020830191508360208285010111156126d5575f80fd5b9250929050565b5f805f805f805f8060e0898b0312156126f3575f80fd5b6126fc896125fd565b97506020890135965061271160408a016125fd565b9550606089013594506080890135935060a0890135925060c089013567ffffffffffffffff811115612741575f80fd5b61274d8b828c01612697565b999c989b5096995094979396929594505050565b5f60208284031215612771575f80fd5b6125df826125fd565b5f805f805f6080868803121561278e575f80fd5b853594506020860135935060408601359250606086013567ffffffffffffffff8111156127b9575f80fd5b6127c588828901612697565b969995985093965092949392505050565b5f80604083850312156127e7575f80fd5b50508035926020909101359150565b60ff60f81b881681525f602060e0602084015261281660e084018a612642565b8381036040850152612828818a612642565b606085018990526001600160a01b038816608086015260a0850187905284810360c0860152855180825260208088019350909101905f5b8181101561287b5783518352928401929184019160010161285f565b50909c9b505050505050505050505050565b60018060a01b038616815284602082015283604082015282606082015260a060808201525f6128bf60a0830184612642565b979650505050505050565b5f805f805f805f60c0888a0312156128e0575f80fd5b873596506128f0602089016125fd565b955060408801359450606088013593506080880135925060a088013567ffffffffffffffff811115612920575f80fd5b61292c8a828b01612697565b989b979a50959850939692959293505050565b5f805f60608486031215612951575f80fd5b505081359360208301359350604090920135919050565b5f805f6060848603121561297a575f80fd5b8335925061298a602085016125fd565b9150604084013590509250925092565b634e487b7160e01b5f52601160045260245ffd5b808201808211156107805761078061299a565b5f826129db57634e487b7160e01b5f52601260045260245ffd5b500490565b818103818111156107805761078061299a565b634e487b7160e01b5f52602160045260245ffd5b600181811c90821680612a1b57607f821691505b602082108103612a3957634e487b7160e01b5f52602260045260245ffd5b5091905056fe2cf43e54ac59609d59d271e77d37ce95c39198791320d279c5cffba46c0cb2c6a2646970667358221220db3f2d42afa99847967ab5ac64acc9b184a3aa941a4d1ce6999b4f7781e7c6a464736f6c63430008180033","linkReferences":{}},"methodIdentifiers":{"DEFAULT_ADMIN_ROLE()":"a217fddf","DISPUTE_RESOLUTION_WINDOW()":"5c980829","DISTRIBUTOR()":"9c26149f","INSPECTOR()":"797d7cc9","MANUFACTURER()":"49ec99ee","REFUND_WINDOW()":"1153b5f3","TRANSFER_TIMEOUT()":"87065deb","acceptTransfer(uint256)":"274fae7c","acceptTransferWithSig(uint256,uint256,uint256,bytes)":"4fbf313b","approveRelayer(address)":"4fab0a54","approvedRelayers(address)":"8cba8b6a","batches(uint256)":"b32c4d8d","claimRefund(uint256)":"5b7baf64","eip712Domain()":"84b0196e","executeMetaTx(address,uint256,address,bytes32,uint256,uint256,bytes)":"4e99b86f","getBatchMetadata(uint256)":"9912627f","getBatchProductCount(uint256)":"0772d2d7","getBatchStatus(uint256)":"2d1bbc8e","getRoleAdmin(bytes32)":"248a9ca3","grantRole(bytes32,address)":"2f2ff15d","grantRoleSafe(bytes32,address)":"d5afc4b4","hasRole(bytes32,address)":"91d14854","initiateTransfer(uint256,address,bytes32)":"de901eae","initiateTransferWithSig(uint256,address,bytes32,uint256,uint256,bytes)":"cd407f37","isDisputeActive(uint256)":"1deeca10","mintProduct(uint256,uint256,bytes32)":"d1685cc0","nonces(address)":"7ecebe00","ownerOf(uint256)":"6352211e","productBatch(uint256)":"b35eee19","raiseDispute(uint256,bytes32)":"636bf26d","registerBatch(uint256,uint256)":"656e49fa","renounceRole(bytes32,address)":"36568abe","resolveDispute(uint256,address)":"0e33599d","revokeRole(bytes32,address)":"d547741f","supportsInterface(bytes4)":"01ffc9a7"},"id":0}