{"contracts/SupplyChain.sol":{"SupplyChain":{"abi":[{"inputs":[{"internalType":"address","name":"admin","type":"address"}],"stateMutability":"nonpayable","type":"constructor"},{"inputs":[],"name":"AccessControlBadConfirmation","type":"error"},{"inputs":[{"internalType":"address","name":"account","type":"address"},{"internalType":"bytes32","name":"neededRole","type":"bytes32"}],"name":"AccessControlUnauthorizedAccount","type":"error"},{"inputs":[],"name":"BatchAlreadyRegistered","type":"error"},{"inputs":[],"name":"BatchLimitReached","type":"error"},{"inputs":[],"name":"BatchNotActive","type":"error"},{"inputs":[],"name":"DeadlineExpired","type":"error"},{"inputs":[],"name":"DisputeAlreadyResolved","type":"error"},{"inputs":[],"name":"DisputeNotActive","type":"error"},{"inputs":[],"name":"ECDSAInvalidSignature","type":"error"},{"inputs":[{"internalType":"uint256","name":"length","type":"uint256"}],"name":"ECDSAInvalidSignatureLength","type":"error"},{"inputs":[{"internalType":"bytes32","name":"s","type":"bytes32"}],"name":"ECDSAInvalidSignatureS","type":"error"},{"inputs":[],"name":"InvalidBatch","type":"error"},{"inputs":[],"name":"InvalidReceiver","type":"error"},{"inputs":[],"name":"InvalidShortString","type":"error"},{"inputs":[],"name":"InvalidSignature","type":"error"},{"inputs":[],"name":"NoPendingTransfer","type":"error"},{"inputs":[],"name":"NoRelayerApproval","type":"error"},{"inputs":[],"name":"NotAuthorized","type":"error"},{"inputs":[],"name":"ProductAlreadyExists","type":"error"},{"inputs":[],"name":"ProductNotFound","type":"error"},{"inputs":[],"name":"StakeRequired","type":"error"},{"inputs":[{"internalType":"string","name":"str","type":"string"}],"name":"StringTooLong","type":"error"},{"inputs":[],"name":"TransferAlreadyPending","type":"error"},{"anonymous":false,"inputs":[{"indexed":true,"internalType":"uint256","name":"batchId","type":"uint256"},{"indexed":true,"internalType":"address","name":"manufacturer","type":"address"},{"indexed":false,"internalType":"uint256","name":"maxUnits","type":"uint256"},{"indexed":false,"internalType":"uint256","name":"stake","type":"uint256"}],"name":"BatchRegistered","type":"event"},{"anonymous":false,"inputs":[{"indexed":true,"internalType":"uint256","name":"batchId","type":"uint256"},{"indexed":false,"internalType":"string","name":"status","type":"string"},{"indexed":false,"internalType":"uint256","name":"timestamp","type":"uint256"}],"name":"BatchStatusChanged","type":"event"},{"anonymous":false,"inputs":[{"indexed":true,"internalType":"uint256","name":"productId","type":"uint256"},{"indexed":true,"internalType":"address","name":"disputer","type":"address"},{"indexed":false,"internalType":"string","name":"reason","type":"string"},{"indexed":false,"internalType":"uint256","name":"timestamp","type":"uint256"}],"name":"DisputeRaised","type":"event"},{"anonymous":false,"inputs":[{"indexed":true,"internalType":"uint256","name":"productId","type":"uint256"},{"indexed":true,"internalType":"address","name":"winner","type":"address"},{"indexed":false,"internalType":"uint256","name":"slashedAmount","type":"uint256"},{"indexed":false,"internalType":"uint256","name":"timestamp","type":"uint256"}],"name":"DisputeResolved","type":"event"},{"anonymous":false,"inputs":[],"name":"EIP712DomainChanged","type":"event"},{"anonymous":false,"inputs":[{"indexed":true,"internalType":"address","name":"relayer","type":"address"},{"indexed":true,"internalType":"address","name":"user","type":"address"},{"indexed":false,"internalType":"uint256","name":"nonce","type":"uint256"}],"name":"MetaTxExecuted","type":"event"},{"anonymous":false,"inputs":[{"indexed":true,"internalType":"uint256","name":"productId","type":"uint256"},{"indexed":true,"internalType":"uint256","name":"batchId","type":"uint256"},{"indexed":true,"internalType":"address","name":"owner","type":"address"},{"indexed":false,"internalType":"bytes32","name":"metadataHash","type":"bytes32"}],"name":"ProductMinted","type":"event"},{"anonymous":false,"inputs":[{"indexed":true,"internalType":"uint256","name":"productId","type":"uint256"},{"indexed":true,"internalType":"address","name":"handler","type":"address"},{"indexed":false,"internalType":"bytes32","name":"locationHash","type":"bytes32"},{"indexed":false,"internalType":"string","name":"action","type":"string"},{"indexed":false,"internalType":"uint256","name":"timestamp","type":"uint256"}],"name":"ProvenanceRecorded","type":"event"},{"anonymous":false,"inputs":[{"indexed":true,"internalType":"address","name":"relayer","type":"address"},{"indexed":false,"internalType":"bool","name":"approved","type":"bool"}],"name":"RelayerApproved","type":"event"},{"anonymous":false,"inputs":[{"indexed":true,"internalType":"bytes32","name":"role","type":"bytes32"},{"indexed":true,"internalType":"bytes32","name":"previousAdminRole","type":"bytes32"},{"indexed":true,"internalType":"bytes32","name":"newAdminRole","type":"bytes32"}],"name":"RoleAdminChanged","type":"event"},{"anonymous":false,"inputs":[{"indexed":true,"internalType":"bytes32","name":"role","type":"bytes32"},{"indexed":true,"internalType":"address","name":"account","type":"address"},{"indexed":true,"internalType":"address","name":"sender","type":"address"}],"name":"RoleGranted","type":"event"},{"anonymous":false,"inputs":[{"indexed":true,"internalType":"bytes32","name":"role","type":"bytes32"},{"indexed":true,"internalType":"address","name":"account","type":"address"},{"indexed":true,"internalType":"address","name":"sender","type":"address"}],"name":"RoleRevoked","type":"event"},{"anonymous":false,"inputs":[{"indexed":true,"internalType":"uint256","name":"productId","type":"uint256"},{"indexed":true,"internalType":"address","name":"from","type":"address"},{"indexed":true,"internalType":"address","name":"to","type":"address"}],"name":"TransferAccepted","type":"event"},{"anonymous":false,"inputs":[{"indexed":true,"internalType":"uint256","name":"productId","type":"uint256"},{"indexed":true,"internalType":"address","name":"from","type":"address"},{"indexed":true,"internalType":"address","name":"to","type":"address"},{"indexed":false,"internalType":"bytes32","name":"locationHash","type":"bytes32"}],"name":"TransferInitiated","type":"event"},{"inputs":[],"name":"DEFAULT_ADMIN_ROLE","outputs":[{"internalType":"bytes32","name":"","type":"bytes32"}],"stateMutability":"view","type":"function"},{"inputs":[],"name":"DISTRIBUTOR","outputs":[{"internalType":"bytes32","name":"","type":"bytes32"}],"stateMutability":"view","type":"function"},{"inputs":[],"name":"INSPECTOR","outputs":[{"internalType":"bytes32","name":"","type":"bytes32"}],"stateMutability":"view","type":"function"},{"inputs":[],"name":"MANUFACTURER","outputs":[{"internalType":"bytes32","name":"","type":"bytes32"}],"stateMutability":"view","type":"function"},{"inputs":[],"name":"TRANSFER_TIMEOUT","outputs":[{"internalType":"uint256","name":"","type":"uint256"}],"stateMutability":"view","type":"function"},{"inputs":[{"internalType":"uint256","name":"productId","type":"uint256"}],"name":"acceptTransfer","outputs":[],"stateMutability":"nonpayable","type":"function"},{"inputs":[{"internalType":"uint256","name":"productId","type":"uint256"},{"internalType":"uint256","name":"nonce","type":"uint256"},{"internalType":"uint256","name":"deadline","type":"uint256"},{"internalType":"bytes","name":"signature","type":"bytes"}],"name":"acceptTransferWithSig","outputs":[],"stateMutability":"nonpayable","type":"function"},{"inputs":[{"internalType":"address","name":"relayer","type":"address"}],"name":"approveRelayer","outputs":[],"stateMutability":"nonpayable","type":"function"},{"inputs":[{"internalType":"address","name":"","type":"address"}],"name":"approvedRelayers","outputs":[{"internalType":"bool","name":"","type":"bool"}],"stateMutability":"view","type":"function"},{"inputs":[{"internalType":"uint256","name":"","type":"uint256"}],"name":"batches","outputs":[{"internalType":"address","name":"manufacturer","type":"address"},{"internalType":"uint256","name":"maxUnits","type":"uint256"},{"internalType":"uint256","name":"minted","type":"uint256"},{"internalType":"uint256","name":"stake","type":"uint256"},{"internalType":"bool","name":"active","type":"bool"}],"stateMutability":"view","type":"function"},{"inputs":[],"name":"eip712Domain","outputs":[{"internalType":"bytes1","name":"fields","type":"bytes1"},{"internalType":"string","name":"name","type":"string"},{"internalType":"string","name":"version","type":"string"},{"internalType":"uint256","name":"chainId","type":"uint256"},{"internalType":"address","name":"verifyingContract","type":"address"},{"internalType":"bytes32","name":"salt","type":"bytes32"},{"internalType":"uint256[]","name":"extensions","type":"uint256[]"}],"stateMutability":"view","type":"function"},{"inputs":[{"internalType":"address","name":"user","type":"address"},{"internalType":"uint256","name":"productId","type":"uint256"},{"internalType":"address","name":"to","type":"address"},{"internalType":"bytes32","name":"locationHash","type":"bytes32"},{"internalType":"uint256","name":"nonce","type":"uint256"},{"internalType":"uint256","name":"deadline","type":"uint256"},{"internalType":"bytes","name":"signature","type":"bytes"}],"name":"executeMetaTx","outputs":[],"stateMutability":"nonpayable","type":"function"},{"inputs":[{"internalType":"uint256","name":"batchId","type":"uint256"}],"name":"getBatchMetadata","outputs":[{"internalType":"address","name":"manufacturer","type":"address"},{"internalType":"uint256","name":"maxUnits","type":"uint256"},{"internalType":"uint256","name":"minted","type":"uint256"},{"internalType":"uint256","name":"stake","type":"uint256"},{"internalType":"string","name":"status","type":"string"}],"stateMutability":"view","type":"function"},{"inputs":[{"internalType":"uint256","name":"batchId","type":"uint256"}],"name":"getBatchProductCount","outputs":[{"internalType":"uint256","name":"","type":"uint256"}],"stateMutability":"view","type":"function"},{"inputs":[{"internalType":"uint256","name":"batchId","type":"uint256"}],"name":"getBatchStatus","outputs":[{"internalType":"string","name":"","type":"string"}],"stateMutability":"view","type":"function"},{"inputs":[{"internalType":"bytes32","name":"role","type":"bytes32"}],"name":"getRoleAdmin","outputs":[{"internalType":"bytes32","name":"","type":"bytes32"}],"stateMutability":"view","type":"function"},{"inputs":[{"internalType":"bytes32","name":"role","type":"bytes32"},{"internalType":"address","name":"account","type":"address"}],"name":"grantRole","outputs":[],"stateMutability":"nonpayable","type":"function"},{"inputs":[{"internalType":"bytes32","name":"role","type":"bytes32"},{"internalType":"address","name":"account","type":"address"}],"name":"grantRoleSafe","outputs":[],"stateMutability":"nonpayable","type":"function"},{"inputs":[{"internalType":"bytes32","name":"role","type":"bytes32"},{"internalType":"address","name":"account","type":"address"}],"name":"hasRole","outputs":[{"internalType":"bool","name":"","type":"bool"}],"stateMutability":"view","type":"function"},{"inputs":[{"internalType":"uint256","name":"productId","type":"uint256"},{"internalType":"address","name":"to","type":"address"},{"internalType":"bytes32","name":"locationHash","type":"bytes32"}],"name":"initiateTransfer","outputs":[],"stateMutability":"nonpayable","type":"function"},{"inputs":[{"internalType":"uint256","name":"productId","type":"uint256"},{"internalType":"address","name":"to","type":"address"},{"internalType":"bytes32","name":"locationHash","type":"bytes32"},{"internalType":"uint256","name":"nonce","type":"uint256"},{"internalType":"uint256","name":"deadline","type":"uint256"},{"internalType":"bytes","name":"signature","type":"bytes"}],"name":"initiateTransferWithSig","outputs":[],"stateMutability":"nonpayable","type":"function"},{"inputs":[{"internalType":"uint256","name":"productId","type":"uint256"}],"name":"isDisputeActive","outputs":[{"internalType":"bool","name":"","type":"bool"}],"stateMutability":"view","type":"function"},{"inputs":[{"internalType":"uint256","name":"productId","type":"uint256"},{"internalType":"uint256","name":"batchId","type":"uint256"},{"internalType":"bytes32","name":"metadataHash","type":"bytes32"}],"name":"mintProduct","outputs":[],"stateMutability":"nonpayable","type":"function"},{"inputs":[{"internalType":"address","name":"","type":"address"}],"name":"nonces","outputs":[{"internalType":"uint256","name":"","type":"uint256"}],"stateMutability":"view","type":"function"},{"inputs":[{"internalType":"uint256","name":"productId","type":"uint256"}],"name":"ownerOf","outputs":[{"internalType":"address","name":"","type":"address"}],"stateMutability":"view","type":"function"},{"inputs":[{"internalType":"uint256","name":"productId","type":"uint256"}],"name":"productBatch","outputs":[{"internalType":"uint256","name":"","type":"uint256"}],"stateMutability":"view","type":"function"},{"inputs":[{"internalType":"uint256","name":"productId","type":"uint256"},{"internalType":"bytes32","name":"reasonHash","type":"bytes32"}],"name":"raiseDispute","outputs":[],"stateMutability":"nonpayable","type":"function"},{"inputs":[{"internalType":"uint256","name":"batchId","type":"uint256"},{"internalType":"uint256","name":"maxUnits","type":"uint256"}],"name":"registerBatch","outputs":[],"stateMutability":"payable","type":"function"},{"inputs":[{"internalType":"bytes32","name":"role","type":"bytes32"},{"internalType":"address","name":"callerConfirmation","type":"address"}],"name":"renounceRole","outputs":[],"stateMutability":"nonpayable","type":"function"},{"inputs":[{"internalType":"uint256","name":"productId","type":"uint256"},{"internalType":"address","name":"winner","type":"address"}],"name":"resolveDispute","outputs":[],"stateMutability":"nonpayable","type":"function"},{"inputs":[{"internalType":"bytes32","name":"role","type":"bytes32"},{"internalType":"address","name":"account","type":"address"}],"name":"revokeRole","outputs":[],"stateMutability":"nonpayable","type":"function"},{"inputs":[{"internalType":"bytes4","name":"interfaceId","type":"bytes4"}],"name":"supportsInterface","outputs":[{"internalType":"bool","name":"","type":"bool"}],"stateMutability":"view","type":"function"}],"evm":{"bytecode":{"linkReferences":{},"object":"6101606040523480156200001257600080fd5b5060405162002bf838038062002bf8833981016040819052620000359162000279565b6040518060400160405280600b81526020016a29bab838363ca1b430b4b760a91b815250604051806040016040528060018152602001603160f81b815250620000896001836200014660201b90919060201c565b610120526200009a81600262000146565b61014052815160208084019190912060e052815190820120610100524660a0526200012860e05161010051604080517f8b73c3c69bb8fe3d512ecc4cf759cc79239f7b179b0ffacaa9a75d522b39400f60208201529081019290925260608201524660808201523060a082015260009060c00160405160208183030381529060405280519060200120905090565b60805250503060c0526200013e6000826200017f565b505062000494565b600060208351101562000166576200015e836200022d565b905062000179565b8162000173848262000352565b5060ff90505b92915050565b6000828152602081815260408083206001600160a01b038516845290915281205460ff1662000224576000838152602081815260408083206001600160a01b03861684529091529020805460ff19166001179055620001db3390565b6001600160a01b0316826001600160a01b0316847f2f8788117e7eff1d82e926ec794901d17c78024a50270940304540a733656f0d60405160405180910390a450600162000179565b50600062000179565b600080829050601f8151111562000264578260405163305a27a960e01b81526004016200025b91906200041e565b60405180910390fd5b805162000271826200046f565b179392505050565b6000602082840312156200028c57600080fd5b81516001600160a01b0381168114620002a457600080fd5b9392505050565b634e487b7160e01b600052604160045260246000fd5b600181811c90821680620002d657607f821691505b602082108103620002f757634e487b7160e01b600052602260045260246000fd5b50919050565b601f8211156200034d576000816000526020600020601f850160051c81016020861015620003285750805b601f850160051c820191505b81811015620003495782815560010162000334565b5050505b505050565b81516001600160401b038111156200036e576200036e620002ab565b62000386816200037f8454620002c1565b84620002fd565b602080601f831160018114620003be5760008415620003a55750858301515b600019600386901b1c1916600185901b17855562000349565b600085815260208120601f198616915b82811015620003ef57888601518255948401946001909101908401620003ce565b50858210156200040e5787850151600019600388901b60f8161c191681555b5050505050600190811b01905550565b60006020808352835180602085015260005b818110156200044e5785810183015185820160400152820162000430565b506000604082860101526040601f19601f8301168501019250505092915050565b80516020808301519190811015620002f75760001960209190910360031b1b16919050565b60805160a05160c05160e051610100516101205161014051612709620004ef6000396000611d8001526000611d4e01526000611ebd01526000611e9501526000611df001526000611e1a01526000611e4401526127096000f3fe6080604052600436106101e35760003560e01c8063797d7cc911610102578063a217fddf11610095578063d1685cc011610064578063d1685cc014610692578063d547741f146106b2578063d5afc4b4146106d2578063de901eae146106f257600080fd5b8063a217fddf146105b1578063b32c4d8d146105c6578063b35eee1914610652578063cd407f371461067257600080fd5b80638cba8b6a116100d15780638cba8b6a146104fc57806391d148541461052c5780639912627f1461054c5780639c26149f1461057d57600080fd5b8063797d7cc91461045c5780637ecebe001461049057806384b0196e146104bd57806387065deb146104e557600080fd5b806336568abe1161017a5780634fbf313b116101495780634fbf313b146103d15780636352211e146103f1578063636bf26d14610429578063656e49fa1461044957600080fd5b806336568abe1461033d57806349ec99ee1461035d5780634e99b86f146103915780634fab0a54146103b157600080fd5b8063248a9ca3116101b6578063248a9ca3146102a0578063274fae7c146102d05780632d1bbc8e146102f05780632f2ff15d1461031d57600080fd5b806301ffc9a7146101e85780630772d2d71461021d5780630e33599d1461024b5780631deeca101461026d575b600080fd5b3480156101f457600080fd5b506102086102033660046121f5565b610712565b60405190151581526020015b60405180910390f35b34801561022957600080fd5b5061023d610238366004612226565b610749565b604051908152602001610214565b34801561025757600080fd5b5061026b61026636600461225b565b610790565b005b34801561027957600080fd5b50610208610288366004612226565b60009081526006602052604090206002015460ff1690565b3480156102ac57600080fd5b5061023d6102bb366004612226565b60009081526020819052604090206001015490565b3480156102dc57600080fd5b5061026b6102eb366004612226565b6109c7565b3480156102fc57600080fd5b5061031061030b366004612226565b6109d4565b60405161021491906122cd565b34801561032957600080fd5b5061026b61033836600461225b565b610a88565b34801561034957600080fd5b5061026b61035836600461225b565b610ab3565b34801561036957600080fd5b5061023d7f6659d833875b88922d2576dad6c137a09ba676496bb2010bf8a72397792167a081565b34801561039d57600080fd5b5061026b6103ac366004612329565b610aeb565b3480156103bd57600080fd5b5061026b6103cc3660046123b4565b610cde565b3480156103dd57600080fd5b5061026b6103ec3660046123cf565b610d47565b3480156103fd57600080fd5b5061041161040c366004612226565b610e78565b6040516001600160a01b039091168152602001610214565b34801561043557600080fd5b5061026b610444366004612430565b610ebe565b61026b610457366004612430565b611011565b34801561046857600080fd5b5061023d7f6708279cb5b7899861c476830845b35dc693bcddf85695a204b94cda1c82583481565b34801561049c57600080fd5b5061023d6104ab3660046123b4565b600b6020526000908152604090205481565b3480156104c957600080fd5b506104d261119d565b6040516102149796959493929190612452565b3480156104f157600080fd5b5061023d6203f48081565b34801561050857600080fd5b506102086105173660046123b4565b600a6020526000908152604090205460ff1681565b34801561053857600080fd5b5061020861054736600461225b565b6111e3565b34801561055857600080fd5b5061056c610567366004612226565b61120c565b6040516102149594939291906124eb565b34801561058957600080fd5b5061023d7f85faced7bde13e1a7dad704b895f006e704f207617d68166b31ba2d79624862d81565b3480156105bd57600080fd5b5061023d600081565b3480156105d257600080fd5b5061061e6105e1366004612226565b6003602081905260009182526040909120805460018201546002830154938301546004909301546001600160a01b03909216939092909160ff1685565b604080516001600160a01b03909616865260208601949094529284019190915260608301521515608082015260a001610214565b34801561065e57600080fd5b5061023d61066d366004612226565b6112ee565b34801561067e57600080fd5b5061026b61068d366004612529565b611328565b34801561069e57600080fd5b5061026b6106ad3660046125a4565b611473565b3480156106be57600080fd5b5061026b6106cd36600461225b565b611748565b3480156106de57600080fd5b5061026b6106ed36600461225b565b61176d565b3480156106fe57600080fd5b5061026b61070d3660046125d0565b611782565b60006001600160e01b03198216637965db0b60e01b148061074357506301ffc9a760e01b6001600160e01b03198316145b92915050565b6000818152600360205260408120600481015460ff1661077c57604051635ae7a89560e11b815260040160405180910390fd5b505060009081526008602052604090205490565b600061079b8161178e565b6000838152600660205260409020600281015460ff166107ce576040516303b9ba8b60e31b815260040160405180910390fd5b6000848152600560205260408120600381015490919060ff16156109085760008681526009602052604090205480156108d05761080c60028261261b565b915081600960008981526020019081526020016000206000828254610831919061263d565b90915550506040516000906001600160a01b0388169084908381818185875af1925050503d8060008114610881576040519150601f19603f3d011682016040523d82523d6000602084013e610886565b606091505b50509050806108ce5760405162461bcd60e51b815260206004820152600f60248201526e151c985b9cd9995c8819985a5b1959608a1b60448201526064015b60405180910390fd5b505b50600086815260056020526040812080546001600160a01b0319168155600181018290556002810191909155600301805460ff191690555b60028301805460ff19169055604080518281524260208201526001600160a01b0387169188917f5bbfc37a6f395570449ddbe2c9147a0830640899e7736be39a8b8520cf2b55a9910160405180910390a3846001600160a01b0316866000805160206126b48339815191526000801b426040516109b79291909182526060602083018190526010908301526f111254d415551157d49154d3d315915160821b6080830152604082015260a00190565b60405180910390a3505050505050565b6109d13382611798565b50565b600081815260036020526040902060048101546060919060ff16610a0b57604051635ae7a89560e11b815260040160405180910390fd5b60008381526007602052604081205460ff1690816001811115610a3057610a30612650565b14610a5f576040518060400160405280600c81526020016b119553131657d3525395115160a21b815250610a80565b6040518060400160405280600781526020016610d4915055115160ca1b8152505b949350505050565b600082815260208190526040902060010154610aa38161178e565b610aad8383611971565b50505050565b6001600160a01b0381163314610adc5760405163334bd91960e11b815260040160405180910390fd5b610ae68282611a03565b505050565b336000908152600a602052604090205460ff16610b1b57604051634843aa9360e11b815260040160405180910390fd5b42831015610b3c57604051631ab7da6b60e01b815260040160405180910390fd5b604080517fc67e7f265b2128fb39ce2a871a16cd8421fee5213cde6fa5f562d0759c3aefb760208201529081018890526001600160a01b03871660608201526080810186905260a0810185905260c0810184905260009060e0016040516020818303038152906040528051906020012090506000610bfb84848080601f016020809104026020016040519081016040528093929190818152602001838380828437600092019190915250610bf59250869150611a6e9050565b90611a9b565b9050896001600160a01b0316816001600160a01b031614610c2f57604051638baa579f60e01b815260040160405180910390fd5b6001600160a01b038a166000908152600b60205260409020548614610c6757604051638baa579f60e01b815260040160405180910390fd5b6001600160a01b038a166000908152600b6020526040902080546001019055610c928a8a8a8a611ac5565b6040518681526001600160a01b038b169033907f7263a9d4ec443510c87eba2fb38533c494e3e72aa5fe5445520c7bfd9ce2efbd9060200160405180910390a350505050505050505050565b6000610ce98161178e565b6001600160a01b0382166000818152600a6020908152604091829020805460ff1916600190811790915591519182527ff4f23f635d7e7e15ed8eb61931987998e776fc6790838a020ac49e51e00b76ba910160405180910390a25050565b42831015610d6857604051631ab7da6b60e01b815260040160405180910390fd5b604080517fb9b22616824a0fdd55759e861704fd4e426236bb7ea523e53a363ce2f3bb5e206020820152908101869052606081018590526080810184905260009060a0016040516020818303038152906040528051906020012090506000610e0b84848080601f016020809104026020016040519081016040528093929190818152602001838380828437600092019190915250610bf59250869150611a6e9050565b6001600160a01b0381166000908152600b60205260409020549091508614610e4657604051638baa579f60e01b815260040160405180910390fd5b6001600160a01b0381166000908152600b6020526040902080546001019055610e6f8188611798565b50505050505050565b6000818152600460205260408120600381015460ff16610eab576040516379de4af560e01b815260040160405180910390fd5b600101546001600160a01b031692915050565b6000828152600460205260409020600381015460ff16610ef1576040516379de4af560e01b815260040160405180910390fd5b6000838152600660205260409020600281015460ff1615610f255760405163f10068b560e01b815260040160405180910390fd5b80546001600160a01b031916339081178255600180830185905560028301805460ff19169091179055426003830181905560405186917f9d956e00a78b28b7f3b6b25c60a4729355093de02cac8715ceb237725c0f582091610fb291906040808252600e908201526d111a5cdc1d5d19481c985a5cd95960921b6060820152602081019190915260800190565b60405180910390a36040805160008152606060208201819052600e908201526d111254d415551157d4905254d15160921b608082015242818301529051339186916000805160206126b48339815191529181900360a00190a350505050565b7f6659d833875b88922d2576dad6c137a09ba676496bb2010bf8a72397792167a061103b8161178e565b3460000361105c576040516337c2e99960e21b815260040160405180910390fd5b8160000361107d576040516333b094a160e01b815260040160405180910390fd5b6000838152600360205260409020600481015460ff16156110b157604051630fa992d560e31b815260040160405180910390fd5b80546001600160a01b0319163390811782556001808301859055600060028401819055346003850181905560048501805460ff1990811690941790558782526007602090815260408084208054909516909455600881528383209290925582518781529182015286917f393e916c1dfc22d76701413768477926c03c62e090a22793b40c4e1bac3f0f00910160405180910390a3604080518181526007818301526610d4915055115160ca1b6060820152426020820152905185917fd1f1a368b113312abe993c35d4fe6ddec3e14d22fcc65a0bfd2787fe1350e465919081900360800190a250505050565b6000606080600080600060606111b1611d47565b6111b9611d79565b60408051600080825260208201909252600f60f81b9b939a50919850469750309650945092509050565b6000918252602082815260408084206001600160a01b0393909316845291905290205460ff1690565b6000818152600360205260408120600481015482918291829160609160ff1661124857604051635ae7a89560e11b815260040160405180910390fd5b60008781526007602052604081205460ff16908082600181111561126e5761126e612650565b1461129d576040518060400160405280600c81526020016b119553131657d3525395115160a21b8152506112be565b6040518060400160405280600781526020016610d4915055115160ca1b8152505b8354600185015460028601546003909601546001600160a01b039092169c909b5094995097509550919350505050565b6000818152600460205260408120600381015460ff16611321576040516379de4af560e01b815260040160405180910390fd5b5492915050565b4283101561134957604051631ab7da6b60e01b815260040160405180910390fd5b604080517fc67e7f265b2128fb39ce2a871a16cd8421fee5213cde6fa5f562d0759c3aefb760208201529081018890526001600160a01b03871660608201526080810186905260a0810185905260c0810184905260009060e001604051602081830303815290604052805190602001209050600061140284848080601f016020809104026020016040519081016040528093929190818152602001838380828437600092019190915250610bf59250869150611a6e9050565b6001600160a01b0381166000908152600b6020526040902054909150861461143d57604051638baa579f60e01b815260040160405180910390fd5b6001600160a01b0381166000908152600b6020526040902080546001019055611468818a8a8a611ac5565b505050505050505050565b7f6659d833875b88922d2576dad6c137a09ba676496bb2010bf8a72397792167a061149d8161178e565b60008481526004602052604090206003015460ff16156114d057604051637afeb2e160e01b815260040160405180910390fd5b6000838152600360205260409020600481015460ff1661150357604051635ae7a89560e11b815260040160405180910390fd5b80546001600160a01b0316331461152d5760405163ea8e4eb560e01b815260040160405180910390fd5b80600101548160020154106115555760405163479290cf60e01b815260040160405180910390fd5b600181600201600082825461156a9190612666565b9091555050600084815260086020526040812080546001929061158e908490612666565b90915550506040805160808101825285815233602080830191825282840187815260016060850181815260008c815260049094529590922093518455915183820180546001600160a01b0319166001600160a01b039092169190911790559051600283015591516003918201805460ff1916911515919091179055908201549082015461161b919061261b565b60008681526009602052604090205560018101546002820154036116ae57600084815260076020908152604091829020805460ff191660011790558151828152600c928101929092526b119553131657d3525395115160a21b6060830152429082015284907fd1f1a368b113312abe993c35d4fe6ddec3e14d22fcc65a0bfd2787fe1350e4659060800160405180910390a25b336001600160a01b031684867f70bcbf02d2425e532f5c505d1be92ea51a88e339ec8350ccdd2c8ed88e652184866040516116eb91815260200190565b60405180910390a460408051600081526060602082018190526006908201526513525395115160d21b60808201524291810191909152339086906000805160206126b48339815191529060a0015b60405180910390a35050505050565b6000828152602081905260409020600101546117638161178e565b610aad8383611a03565b60006117788161178e565b610ae68383610a88565b610ae633848484611ac5565b6109d18133611da6565b6000818152600460205260409020600381015460ff166117cb576040516379de4af560e01b815260040160405180910390fd5b6000828152600560205260409020600381015460ff166117fe5760405163357a03ed60e21b815260040160405180910390fd5b6203f48081600201546118119190612666565b42111561183157604051631ab7da6b60e01b815260040160405180910390fd5b80546001600160a01b0385811691161461185e5760405163ea8e4eb560e01b815260040160405180910390fd5b60008381526006602052604090206002015460ff1615611891576040516303b9ba8b60e31b815260040160405180910390fd5b600180830180546001600160a01b038781166001600160a01b0319808416821790945560008881526005602052604080822080549096168655958501819055600285018190556003909401805460ff19169055935191169291839187917f9cc86532afd4843c8838f17d7972e7f29389fe47d6712b6666af2d42df29ab3891a4846001600160a01b0316846000805160206126b4833981519152846001015442604051611739929190918252606060208301819052601190830152701514905394d1915497d050d0d154151151607a1b6080830152604082015260a00190565b600061197d83836111e3565b6119fb576000838152602081815260408083206001600160a01b03861684529091529020805460ff191660011790556119b33390565b6001600160a01b0316826001600160a01b0316847f2f8788117e7eff1d82e926ec794901d17c78024a50270940304540a733656f0d60405160405180910390a4506001610743565b506000610743565b6000611a0f83836111e3565b156119fb576000838152602081815260408083206001600160a01b0386168085529252808320805460ff1916905551339286917ff6391f5c32d9c69d2a47ea670b442974b53935d1edc7fd64eb21e047a839171b9190a4506001610743565b6000610743611a7b611de3565b8360405161190160f01b8152600281019290925260228201526042902090565b600080600080611aab8686611f0e565b925092509250611abb8282611f5b565b5090949350505050565b6000838152600460205260409020600381015460ff16611af8576040516379de4af560e01b815260040160405180910390fd5b60018101546001600160a01b03868116911614611b285760405163ea8e4eb560e01b815260040160405180910390fd5b6000848152600560205260409020600381015460ff168015611b5b57506203f4808160020154611b589190612666565b42115b15611b9757600085815260056020526040812080546001600160a01b0319168155600181018290556002810191909155600301805460ff191690555b60008581526005602052604090206003015460ff1615611bca5760405163a8b2461360e01b815260040160405180910390fd5b6001600160a01b0384161580611bf15750856001600160a01b0316846001600160a01b0316145b15611c0f57604051631e4ec46b60e01b815260040160405180910390fd5b60008581526006602052604090206002015460ff1615611c42576040516303b9ba8b60e31b815260040160405180910390fd5b604080516080810182526001600160a01b0386811680835260208084018881524285870190815260016060870181815260008e815260058652899020975188546001600160a01b031916908816178855925190870155516002860155516003909401805460ff19169415159490941790935592518681529089169188917fae06b6db978feac2debb593397295212069ab4d158ccc78101767a183e4feef3910160405180910390a4856001600160a01b0316856000805160206126b483398151915285426040516109b7929190918252606060208301819052601290830152711514905394d1915497d2539255125055115160721b6080830152604082015260a00190565b6060611d747f00000000000000000000000000000000000000000000000000000000000000006001612014565b905090565b6060611d747f00000000000000000000000000000000000000000000000000000000000000006002612014565b611db082826111e3565b611ddf5760405163e2517d3f60e01b81526001600160a01b0382166004820152602481018390526044016108c5565b5050565b6000306001600160a01b037f000000000000000000000000000000000000000000000000000000000000000016148015611e3c57507f000000000000000000000000000000000000000000000000000000000000000046145b15611e6657507f000000000000000000000000000000000000000000000000000000000000000090565b611d74604080517f8b73c3c69bb8fe3d512ecc4cf759cc79239f7b179b0ffacaa9a75d522b39400f60208201527f0000000000000000000000000000000000000000000000000000000000000000918101919091527f000000000000000000000000000000000000000000000000000000000000000060608201524660808201523060a082015260009060c00160405160208183030381529060405280519060200120905090565b60008060008351604103611f485760208401516040850151606086015160001a611f3a888285856120bf565b955095509550505050611f54565b50508151600091506002905b9250925092565b6000826003811115611f6f57611f6f612650565b03611f78575050565b6001826003811115611f8c57611f8c612650565b03611faa5760405163f645eedf60e01b815260040160405180910390fd5b6002826003811115611fbe57611fbe612650565b03611fdf5760405163fce698f760e01b8152600481018290526024016108c5565b6003826003811115611ff357611ff3612650565b03611ddf576040516335e2f38360e21b8152600481018290526024016108c5565b606060ff831461202e576120278361218e565b9050610743565b81805461203a90612679565b80601f016020809104026020016040519081016040528092919081815260200182805461206690612679565b80156120b35780601f10612088576101008083540402835291602001916120b3565b820191906000526020600020905b81548152906001019060200180831161209657829003601f168201915b50505050509050610743565b600080807f7fffffffffffffffffffffffffffffff5d576e7357a4501ddfe92f46681b20a08411156120fa5750600091506003905082612184565b604080516000808252602082018084528a905260ff891692820192909252606081018790526080810186905260019060a0016020604051602081039080840390855afa15801561214e573d6000803e3d6000fd5b5050604051601f1901519150506001600160a01b03811661217a57506000925060019150829050612184565b9250600091508190505b9450945094915050565b6060600061219b836121cd565b604080516020808252818301909252919250600091906020820181803683375050509182525060208101929092525090565b600060ff8216601f81111561074357604051632cd44ac360e21b815260040160405180910390fd5b60006020828403121561220757600080fd5b81356001600160e01b03198116811461221f57600080fd5b9392505050565b60006020828403121561223857600080fd5b5035919050565b80356001600160a01b038116811461225657600080fd5b919050565b6000806040838503121561226e57600080fd5b8235915061227e6020840161223f565b90509250929050565b6000815180845260005b818110156122ad57602081850181015186830182015201612291565b506000602082860101526020601f19601f83011685010191505092915050565b60208152600061221f6020830184612287565b60008083601f8401126122f257600080fd5b50813567ffffffffffffffff81111561230a57600080fd5b60208301915083602082850101111561232257600080fd5b9250929050565b60008060008060008060008060e0898b03121561234557600080fd5b61234e8961223f565b97506020890135965061236360408a0161223f565b9550606089013594506080890135935060a0890135925060c089013567ffffffffffffffff81111561239457600080fd5b6123a08b828c016122e0565b999c989b5096995094979396929594505050565b6000602082840312156123c657600080fd5b61221f8261223f565b6000806000806000608086880312156123e757600080fd5b853594506020860135935060408601359250606086013567ffffffffffffffff81111561241357600080fd5b61241f888289016122e0565b969995985093965092949392505050565b6000806040838503121561244357600080fd5b50508035926020909101359150565b60ff60f81b881681526000602060e0602084015261247360e084018a612287565b8381036040850152612485818a612287565b606085018990526001600160a01b038816608086015260a0850187905284810360c08601528551808252602080880193509091019060005b818110156124d9578351835292840192918401916001016124bd565b50909c9b505050505050505050505050565b60018060a01b038616815284602082015283604082015282606082015260a06080820152600061251e60a0830184612287565b979650505050505050565b600080600080600080600060c0888a03121561254457600080fd5b873596506125546020890161223f565b955060408801359450606088013593506080880135925060a088013567ffffffffffffffff81111561258557600080fd5b6125918a828b016122e0565b989b979a50959850939692959293505050565b6000806000606084860312156125b957600080fd5b505081359360208301359350604090920135919050565b6000806000606084860312156125e557600080fd5b833592506125f56020850161223f565b9150604084013590509250925092565b634e487b7160e01b600052601160045260246000fd5b60008261263857634e487b7160e01b600052601260045260246000fd5b500490565b8181038181111561074357610743612605565b634e487b7160e01b600052602160045260246000fd5b8082018082111561074357610743612605565b600181811c9082168061268d57607f821691505b6020821081036126ad57634e487b7160e01b600052602260045260246000fd5b5091905056fe2cf43e54ac59609d59d271e77d37ce95c39198791320d279c5cffba46c0cb2c6a26469706673582212208f0233a5038eaa86b772e0cd9a5418e863d2babf5379e5c825b662fda2ec42d464736f6c63430008180033","opcodes":"PUSH2 0x160 PUSH1 0x40 MSTORE CALLVALUE DUP1 ISZERO PUSH3 0x12 JUMPI PUSH1 0x0 DUP1 REVERT JUMPDEST POP PUSH1 0x40 MLOAD PUSH3 0x2BF8 CODESIZE SUB DUP1 PUSH3 0x2BF8 DUP4 CODECOPY DUP2 ADD PUSH1 0x40 DUP2 SWAP1 MSTORE PUSH3 0x35 SWAP2 PUSH3 0x279 JUMP JUMPDEST PUSH1 0x40 MLOAD DUP1 PUSH1 0x40 ADD PUSH1 0x40 MSTORE DUP1 PUSH1 0xB DUP2 MSTORE PUSH1 0x20 ADD PUSH11 0x29BAB838363CA1B430B4B7 PUSH1 0xA9 SHL DUP2 MSTORE POP PUSH1 0x40 MLOAD DUP1 PUSH1 0x40 ADD PUSH1 0x40 MSTORE DUP1 PUSH1 0x1 DUP2 MSTORE PUSH1 0x20 ADD PUSH1 0x31 PUSH1 0xF8 SHL DUP2 MSTORE POP PUSH3 0x89 PUSH1 0x1 DUP4 PUSH3 0x146 PUSH1 0x20 SHL SWAP1 SWAP2 SWAP1 PUSH1 0x20 SHR JUMP JUMPDEST PUSH2 0x120 MSTORE PUSH3 0x9A DUP2 PUSH1 0x2 PUSH3 0x146 JUMP JUMPDEST PUSH2 0x140 MSTORE DUP2 MLOAD PUSH1 0x20 DUP1 DUP5 ADD SWAP2 SWAP1 SWAP2 KECCAK256 PUSH1 0xE0 MSTORE DUP2 MLOAD SWAP1 DUP3 ADD KECCAK256 PUSH2 0x100 MSTORE CHAINID PUSH1 0xA0 MSTORE PUSH3 0x128 PUSH1 0xE0 MLOAD PUSH2 0x100 MLOAD PUSH1 0x40 DUP1 MLOAD PUSH32 0x8B73C3C69BB8FE3D512ECC4CF759CC79239F7B179B0FFACAA9A75D522B39400F PUSH1 0x20 DUP3 ADD MSTORE SWAP1 DUP2 ADD SWAP3 SWAP1 SWAP3 MSTORE PUSH1 0x60 DUP3 ADD MSTORE CHAINID PUSH1 0x80 DUP3 ADD MSTORE ADDRESS PUSH1 0xA0 DUP3 ADD MSTORE PUSH1 0x0 SWAP1 PUSH1 0xC0 ADD PUSH1 0x40 MLOAD PUSH1 0x20 DUP2 DUP4 SUB SUB DUP2 MSTORE SWAP1 PUSH1 0x40 MSTORE DUP1 MLOAD SWAP1 PUSH1 0x20 ADD KECCAK256 SWAP1 POP SWAP1 JUMP JUMPDEST PUSH1 0x80 MSTORE POP POP ADDRESS PUSH1 0xC0 MSTORE PUSH3 0x13E PUSH1 0x0 DUP3 PUSH3 0x17F JUMP JUMPDEST POP POP PUSH3 0x494 JUMP JUMPDEST PUSH1 0x0 PUSH1 0x20 DUP4 MLOAD LT ISZERO PUSH3 0x166 JUMPI PUSH3 0x15E DUP4 PUSH3 0x22D JUMP JUMPDEST SWAP1 POP PUSH3 0x179 JUMP JUMPDEST DUP2 PUSH3 0x173 DUP5 DUP3 PUSH3 0x352 JUMP JUMPDEST POP PUSH1 0xFF SWAP1 POP JUMPDEST SWAP3 SWAP2 POP POP JUMP JUMPDEST PUSH1 0x0 DUP3 DUP2 MSTORE PUSH1 0x20 DUP2 DUP2 MSTORE PUSH1 0x40 DUP1 DUP4 KECCAK256 PUSH1 0x1 PUSH1 0x1 PUSH1 0xA0 SHL SUB DUP6 AND DUP5 MSTORE SWAP1 SWAP2 MSTORE DUP2 KECCAK256 SLOAD PUSH1 0xFF AND PUSH3 0x224 JUMPI PUSH1 0x0 DUP4 DUP2 MSTORE PUSH1 0x20 DUP2 DUP2 MSTORE PUSH1 0x40 DUP1 DUP4 KECCAK256 PUSH1 0x1 PUSH1 0x1 PUSH1 0xA0 SHL SUB DUP7 AND DUP5 MSTORE SWAP1 SWAP2 MSTORE SWAP1 KECCAK256 DUP1 SLOAD PUSH1 0xFF NOT AND PUSH1 0x1 OR SWAP1 SSTORE PUSH3 0x1DB CALLER SWAP1 JUMP JUMPDEST PUSH1 0x1 PUSH1 0x1 PUSH1 0xA0 SHL SUB AND DUP3 PUSH1 0x1 PUSH1 0x1 PUSH1 0xA0 SHL SUB AND DUP5 PUSH32 0x2F8788117E7EFF1D82E926EC794901D17C78024A50270940304540A733656F0D PUSH1 0x40 MLOAD PUSH1 0x40 MLOAD DUP1 SWAP2 SUB SWAP1 LOG4 POP PUSH1 0x1 PUSH3 0x179 JUMP JUMPDEST POP PUSH1 0x0 PUSH3 0x179 JUMP JUMPDEST PUSH1 0x0 DUP1 DUP3 SWAP1 POP PUSH1 0x1F DUP2 MLOAD GT ISZERO PUSH3 0x264 JUMPI DUP3 PUSH1 0x40 MLOAD PUSH4 0x305A27A9 PUSH1 0xE0 SHL DUP2 MSTORE PUSH1 0x4 ADD PUSH3 0x25B SWAP2 SWAP1 PUSH3 0x41E JUMP JUMPDEST PUSH1 0x40 MLOAD DUP1 SWAP2 SUB SWAP1 REVERT JUMPDEST DUP1 MLOAD PUSH3 0x271 DUP3 PUSH3 0x46F JUMP JUMPDEST OR SWAP4 SWAP3 POP POP POP JUMP JUMPDEST PUSH1 0x0 PUSH1 0x20 DUP3 DUP5 SUB SLT ISZERO PUSH3 0x28C JUMPI PUSH1 0x0 DUP1 REVERT JUMPDEST DUP2 MLOAD PUSH1 0x1 PUSH1 0x1 PUSH1 0xA0 SHL SUB DUP2 AND DUP2 EQ PUSH3 0x2A4 JUMPI PUSH1 0x0 DUP1 REVERT JUMPDEST SWAP4 SWAP3 POP POP POP JUMP JUMPDEST PUSH4 0x4E487B71 PUSH1 0xE0 SHL PUSH1 0x0 MSTORE PUSH1 0x41 PUSH1 0x4 MSTORE PUSH1 0x24 PUSH1 0x0 REVERT JUMPDEST PUSH1 0x1 DUP2 DUP2 SHR SWAP1 DUP3 AND DUP1 PUSH3 0x2D6 JUMPI PUSH1 0x7F DUP3 AND SWAP2 POP JUMPDEST PUSH1 0x20 DUP3 LT DUP2 SUB PUSH3 0x2F7 JUMPI PUSH4 0x4E487B71 PUSH1 0xE0 SHL PUSH1 0x0 MSTORE PUSH1 0x22 PUSH1 0x4 MSTORE PUSH1 0x24 PUSH1 0x0 REVERT JUMPDEST POP SWAP2 SWAP1 POP JUMP JUMPDEST PUSH1 0x1F DUP3 GT ISZERO PUSH3 0x34D JUMPI PUSH1 0x0 DUP2 PUSH1 0x0 MSTORE PUSH1 0x20 PUSH1 0x0 KECCAK256 PUSH1 0x1F DUP6 ADD PUSH1 0x5 SHR DUP2 ADD PUSH1 0x20 DUP7 LT ISZERO PUSH3 0x328 JUMPI POP DUP1 JUMPDEST PUSH1 0x1F DUP6 ADD PUSH1 0x5 SHR DUP3 ADD SWAP2 POP JUMPDEST DUP2 DUP2 LT ISZERO PUSH3 0x349 JUMPI DUP3 DUP2 SSTORE PUSH1 0x1 ADD PUSH3 0x334 JUMP JUMPDEST POP POP POP JUMPDEST POP POP POP JUMP JUMPDEST DUP2 MLOAD PUSH1 0x1 PUSH1 0x1 PUSH1 0x40 SHL SUB DUP2 GT ISZERO PUSH3 0x36E JUMPI PUSH3 0x36E PUSH3 0x2AB JUMP JUMPDEST PUSH3 0x386 DUP2 PUSH3 0x37F DUP5 SLOAD PUSH3 0x2C1 JUMP JUMPDEST DUP5 PUSH3 0x2FD JUMP JUMPDEST PUSH1 0x20 DUP1 PUSH1 0x1F DUP4 GT PUSH1 0x1 DUP2 EQ PUSH3 0x3BE JUMPI PUSH1 0x0 DUP5 ISZERO PUSH3 0x3A5 JUMPI POP DUP6 DUP4 ADD MLOAD JUMPDEST PUSH1 0x0 NOT PUSH1 0x3 DUP7 SWAP1 SHL SHR NOT AND PUSH1 0x1 DUP6 SWAP1 SHL OR DUP6 SSTORE PUSH3 0x349 JUMP JUMPDEST PUSH1 0x0 DUP6 DUP2 MSTORE PUSH1 0x20 DUP2 KECCAK256 PUSH1 0x1F NOT DUP7 AND SWAP2 JUMPDEST DUP3 DUP2 LT ISZERO PUSH3 0x3EF JUMPI DUP9 DUP7 ADD MLOAD DUP3 SSTORE SWAP5 DUP5 ADD SWAP5 PUSH1 0x1 SWAP1 SWAP2 ADD SWAP1 DUP5 ADD PUSH3 0x3CE JUMP JUMPDEST POP DUP6 DUP3 LT ISZERO PUSH3 0x40E JUMPI DUP8 DUP6 ADD MLOAD PUSH1 0x0 NOT PUSH1 0x3 DUP9 SWAP1 SHL PUSH1 0xF8 AND SHR NOT AND DUP2 SSTORE JUMPDEST POP POP POP POP POP PUSH1 0x1 SWAP1 DUP2 SHL ADD SWAP1 SSTORE POP JUMP JUMPDEST PUSH1 0x0 PUSH1 0x20 DUP1 DUP4 MSTORE DUP4 MLOAD DUP1 PUSH1 0x20 DUP6 ADD MSTORE PUSH1 0x0 JUMPDEST DUP2 DUP2 LT ISZERO PUSH3 0x44E JUMPI DUP6 DUP2 ADD DUP4 ADD MLOAD DUP6 DUP3 ADD PUSH1 0x40 ADD MSTORE DUP3 ADD PUSH3 0x430 JUMP JUMPDEST POP PUSH1 0x0 PUSH1 0x40 DUP3 DUP7 ADD ADD MSTORE PUSH1 0x40 PUSH1 0x1F NOT PUSH1 0x1F DUP4 ADD AND DUP6 ADD ADD SWAP3 POP POP POP SWAP3 SWAP2 POP POP JUMP JUMPDEST DUP1 MLOAD PUSH1 0x20 DUP1 DUP4 ADD MLOAD SWAP2 SWAP1 DUP2 LT ISZERO PUSH3 0x2F7 JUMPI PUSH1 0x0 NOT PUSH1 0x20 SWAP2 SWAP1 SWAP2 SUB PUSH1 0x3 SHL SHL AND SWAP2 SWAP1 POP JUMP JUMPDEST PUSH1 0x80 MLOAD PUSH1 0xA0 MLOAD PUSH1 0xC0 MLOAD PUSH1 0xE0 MLOAD PUSH2 0x100 MLOAD PUSH2 0x120 MLOAD PUSH2 0x140 MLOAD PUSH2 0x2709 PUSH3 0x4EF PUSH1 0x0 CODECOPY PUSH1 0x0 PUSH2 0x1D80 ADD MSTORE PUSH1 0x0 PUSH2 0x1D4E ADD MSTORE PUSH1 0x0 PUSH2 0x1EBD ADD MSTORE PUSH1 0x0 PUSH2 0x1E95 ADD MSTORE PUSH1 0x0 PUSH2 0x1DF0 ADD MSTORE PUSH1 0x0 PUSH2 0x1E1A ADD MSTORE PUSH1 0x0 PUSH2 0x1E44 ADD MSTORE PUSH2 0x2709 PUSH1 0x0 RETURN INVALID PUSH1 0x80 PUSH1 0x40 MSTORE PUSH1 0x4 CALLDATASIZE LT PUSH2 0x1E3 JUMPI PUSH1 0x0 CALLDATALOAD PUSH1 0xE0 SHR DUP1 PUSH4 0x797D7CC9 GT PUSH2 0x102 JUMPI DUP1 PUSH4 0xA217FDDF GT PUSH2 0x95 JUMPI DUP1 PUSH4 0xD1685CC0 GT PUSH2 0x64 JUMPI DUP1 PUSH4 0xD1685CC0 EQ PUSH2 0x692 JUMPI DUP1 PUSH4 0xD547741F EQ PUSH2 0x6B2 JUMPI DUP1 PUSH4 0xD5AFC4B4 EQ PUSH2 0x6D2 JUMPI DUP1 PUSH4 0xDE901EAE EQ PUSH2 0x6F2 JUMPI PUSH1 0x0 DUP1 REVERT JUMPDEST DUP1 PUSH4 0xA217FDDF EQ PUSH2 0x5B1 JUMPI DUP1 PUSH4 0xB32C4D8D EQ PUSH2 0x5C6 JUMPI DUP1 PUSH4 0xB35EEE19 EQ PUSH2 0x652 JUMPI DUP1 PUSH4 0xCD407F37 EQ PUSH2 0x672 JUMPI PUSH1 0x0 DUP1 REVERT JUMPDEST DUP1 PUSH4 0x8CBA8B6A GT PUSH2 0xD1 JUMPI DUP1 PUSH4 0x8CBA8B6A EQ PUSH2 0x4FC JUMPI DUP1 PUSH4 0x91D14854 EQ PUSH2 0x52C JUMPI DUP1 PUSH4 0x9912627F EQ PUSH2 0x54C JUMPI DUP1 PUSH4 0x9C26149F EQ PUSH2 0x57D JUMPI PUSH1 0x0 DUP1 REVERT JUMPDEST DUP1 PUSH4 0x797D7CC9 EQ PUSH2 0x45C JUMPI DUP1 PUSH4 0x7ECEBE00 EQ PUSH2 0x490 JUMPI DUP1 PUSH4 0x84B0196E EQ PUSH2 0x4BD JUMPI DUP1 PUSH4 0x87065DEB EQ PUSH2 0x4E5 JUMPI PUSH1 0x0 DUP1 REVERT JUMPDEST DUP1 PUSH4 0x36568ABE GT PUSH2 0x17A JUMPI DUP1 PUSH4 0x4FBF313B GT PUSH2 0x149 JUMPI DUP1 PUSH4 0x4FBF313B EQ PUSH2 0x3D1 JUMPI DUP1 PUSH4 0x6352211E EQ PUSH2 0x3F1 JUMPI DUP1 PUSH4 0x636BF26D EQ PUSH2 0x429 JUMPI DUP1 PUSH4 0x656E49FA EQ PUSH2 0x449 JUMPI PUSH1 0x0 DUP1 REVERT JUMPDEST DUP1 PUSH4 0x36568ABE EQ PUSH2 0x33D JUMPI DUP1 PUSH4 0x49EC99EE EQ PUSH2 0x35D JUMPI DUP1 PUSH4 0x4E99B86F EQ PUSH2 0x391 JUMPI DUP1 PUSH4 0x4FAB0A54 EQ PUSH2 0x3B1 JUMPI PUSH1 0x0 DUP1 REVERT JUMPDEST DUP1 PUSH4 0x248A9CA3 GT PUSH2 0x1B6 JUMPI DUP1 PUSH4 0x248A9CA3 EQ PUSH2 0x2A0 JUMPI DUP1 PUSH4 0x274FAE7C EQ PUSH2 0x2D0 JUMPI DUP1 PUSH4 0x2D1BBC8E EQ PUSH2 0x2F0 JUMPI DUP1 PUSH4 0x2F2FF15D EQ PUSH2 0x31D JUMPI PUSH1 0x0 DUP1 REVERT JUMPDEST DUP1 PUSH4 0x1FFC9A7 EQ PUSH2 0x1E8 JUMPI DUP1 PUSH4 0x772D2D7 EQ PUSH2 0x21D JUMPI DUP1 PUSH4 0xE33599D EQ PUSH2 0x24B JUMPI DUP1 PUSH4 0x1DEECA10 EQ PUSH2 0x26D JUMPI JUMPDEST PUSH1 0x0 DUP1 REVERT JUMPDEST CALLVALUE DUP1 ISZERO PUSH2 0x1F4 JUMPI PUSH1 0x0 DUP1 REVERT JUMPDEST POP PUSH2 0x208 PUSH2 0x203 CALLDATASIZE PUSH1 0x4 PUSH2 0x21F5 JUMP JUMPDEST PUSH2 0x712 JUMP JUMPDEST PUSH1 0x40 MLOAD SWAP1 ISZERO ISZERO DUP2 MSTORE PUSH1 0x20 ADD JUMPDEST PUSH1 0x40 MLOAD DUP1 SWAP2 SUB SWAP1 RETURN JUMPDEST CALLVALUE DUP1 ISZERO PUSH2 0x229 JUMPI PUSH1 0x0 DUP1 REVERT JUMPDEST POP PUSH2 0x23D PUSH2 0x238 CALLDATASIZE PUSH1 0x4 PUSH2 0x2226 JUMP JUMPDEST PUSH2 0x749 JUMP JUMPDEST PUSH1 0x40 MLOAD SWAP1 DUP2 MSTORE PUSH1 0x20 ADD PUSH2 0x214 JUMP JUMPDEST CALLVALUE DUP1 ISZERO PUSH2 0x257 JUMPI PUSH1 0x0 DUP1 REVERT JUMPDEST POP PUSH2 0x26B PUSH2 0x266 CALLDATASIZE PUSH1 0x4 PUSH2 0x225B JUMP JUMPDEST PUSH2 0x790 JUMP JUMPDEST STOP JUMPDEST CALLVALUE DUP1 ISZERO PUSH2 0x279 JUMPI PUSH1 0x0 DUP1 REVERT JUMPDEST POP PUSH2 0x208 PUSH2 0x288 CALLDATASIZE PUSH1 0x4 PUSH2 0x2226 JUMP JUMPDEST PUSH1 0x0 SWAP1 DUP2 MSTORE PUSH1 0x6 PUSH1 0x20 MSTORE PUSH1 0x40 SWAP1 KECCAK256 PUSH1 0x2 ADD SLOAD PUSH1 0xFF AND SWAP1 JUMP JUMPDEST CALLVALUE DUP1 ISZERO PUSH2 0x2AC JUMPI PUSH1 0x0 DUP1 REVERT JUMPDEST POP PUSH2 0x23D PUSH2 0x2BB CALLDATASIZE PUSH1 0x4 PUSH2 0x2226 JUMP JUMPDEST PUSH1 0x0 SWAP1 DUP2 MSTORE PUSH1 0x20 DUP2 SWAP1 MSTORE PUSH1 0x40 SWAP1 KECCAK256 PUSH1 0x1 ADD SLOAD SWAP1 JUMP JUMPDEST CALLVALUE DUP1 ISZERO PUSH2 0x2DC JUMPI PUSH1 0x0 DUP1 REVERT JUMPDEST POP PUSH2 0x26B PUSH2 0x2EB CALLDATASIZE PUSH1 0x4 PUSH2 0x2226 JUMP JUMPDEST PUSH2 0x9C7 JUMP JUMPDEST CALLVALUE DUP1 ISZERO PUSH2 0x2FC JUMPI PUSH1 0x0 DUP1 REVERT JUMPDEST POP PUSH2 0x310 PUSH2 0x30B CALLDATASIZE PUSH1 0x4 PUSH2 0x2226 JUMP JUMPDEST PUSH2 0x9D4 JUMP JUMPDEST PUSH1 0x40 MLOAD PUSH2 0x214 SWAP2 SWAP1 PUSH2 0x22CD JUMP JUMPDEST CALLVALUE DUP1 ISZERO PUSH2 0x329 JUMPI PUSH1 0x0 DUP1 REVERT JUMPDEST POP PUSH2 0x26B PUSH2 0x338 CALLDATASIZE PUSH1 0x4 PUSH2 0x225B JUMP JUMPDEST PUSH2 0xA88 JUMP JUMPDEST CALLVALUE DUP1 ISZERO PUSH2 0x349 JUMPI PUSH1 0x0 DUP1 REVERT JUMPDEST POP PUSH2 0x26B PUSH2 0x358 CALLDATASIZE PUSH1 0x4 PUSH2 0x225B JUMP JUMPDEST PUSH2 0xAB3 JUMP JUMPDEST CALLVALUE DUP1 ISZERO PUSH2 0x369 JUMPI PUSH1 0x0 DUP1 REVERT JUMPDEST POP PUSH2 0x23D PUSH32 0x6659D833875B88922D2576DAD6C137A09BA676496BB2010BF8A72397792167A0 DUP2 JUMP JUMPDEST CALLVALUE DUP1 ISZERO PUSH2 0x39D JUMPI PUSH1 0x0 DUP1 REVERT JUMPDEST POP PUSH2 0x26B PUSH2 0x3AC CALLDATASIZE PUSH1 0x4 PUSH2 0x2329 JUMP JUMPDEST PUSH2 0xAEB JUMP JUMPDEST CALLVALUE DUP1 ISZERO PUSH2 0x3BD JUMPI PUSH1 0x0 DUP1 REVERT JUMPDEST POP PUSH2 0x26B PUSH2 0x3CC CALLDATASIZE PUSH1 0x4 PUSH2 0x23B4 JUMP JUMPDEST PUSH2 0xCDE JUMP JUMPDEST CALLVALUE DUP1 ISZERO PUSH2 0x3DD JUMPI PUSH1 0x0 DUP1 REVERT JUMPDEST POP PUSH2 0x26B PUSH2 0x3EC CALLDATASIZE PUSH1 0x4 PUSH2 0x23CF JUMP JUMPDEST PUSH2 0xD47 JUMP JUMPDEST CALLVALUE DUP1 ISZERO PUSH2 0x3FD JUMPI PUSH1 0x0 DUP1 REVERT JUMPDEST POP PUSH2 0x411 PUSH2 0x40C CALLDATASIZE PUSH1 0x4 PUSH2 0x2226 JUMP JUMPDEST PUSH2 0xE78 JUMP JUMPDEST PUSH1 0x40 MLOAD PUSH1 0x1 PUSH1 0x1 PUSH1 0xA0 SHL SUB SWAP1 SWAP2 AND DUP2 MSTORE PUSH1 0x20 ADD PUSH2 0x214 JUMP JUMPDEST CALLVALUE DUP1 ISZERO PUSH2 0x435 JUMPI PUSH1 0x0 DUP1 REVERT JUMPDEST POP PUSH2 0x26B PUSH2 0x444 CALLDATASIZE PUSH1 0x4 PUSH2 0x2430 JUMP JUMPDEST PUSH2 0xEBE JUMP JUMPDEST PUSH2 0x26B PUSH2 0x457 CALLDATASIZE PUSH1 0x4 PUSH2 0x2430 JUMP JUMPDEST PUSH2 0x1011 JUMP JUMPDEST CALLVALUE DUP1 ISZERO PUSH2 0x468 JUMPI PUSH1 0x0 DUP1 REVERT JUMPDEST POP PUSH2 0x23D PUSH32 0x6708279CB5B7899861C476830845B35DC693BCDDF85695A204B94CDA1C825834 DUP2 JUMP JUMPDEST CALLVALUE DUP1 ISZERO PUSH2 0x49C JUMPI PUSH1 0x0 DUP1 REVERT JUMPDEST POP PUSH2 0x23D PUSH2 0x4AB CALLDATASIZE PUSH1 0x4 PUSH2 0x23B4 JUMP JUMPDEST PUSH1 0xB PUSH1 0x20 MSTORE PUSH1 0x0 SWAP1 DUP2 MSTORE PUSH1 0x40 SWAP1 KECCAK256 SLOAD DUP2 JUMP JUMPDEST CALLVALUE DUP1 ISZERO PUSH2 0x4C9 JUMPI PUSH1 0x0 DUP1 REVERT JUMPDEST POP PUSH2 0x4D2 PUSH2 0x119D JUMP JUMPDEST PUSH1 0x40 MLOAD PUSH2 0x214 SWAP8 SWAP7 SWAP6 SWAP5 SWAP4 SWAP3 SWAP2 SWAP1 PUSH2 0x2452 JUMP JUMPDEST CALLVALUE DUP1 ISZERO PUSH2 0x4F1 JUMPI PUSH1 0x0 DUP1 REVERT JUMPDEST POP PUSH2 0x23D PUSH3 0x3F480 DUP2 JUMP JUMPDEST CALLVALUE DUP1 ISZERO PUSH2 0x508 JUMPI PUSH1 0x0 DUP1 REVERT JUMPDEST POP PUSH2 0x208 PUSH2 0x517 CALLDATASIZE PUSH1 0x4 PUSH2 0x23B4 JUMP JUMPDEST PUSH1 0xA PUSH1 0x20 MSTORE PUSH1 0x0 SWAP1 DUP2 MSTORE PUSH1 0x40 SWAP1 KECCAK256 SLOAD PUSH1 0xFF AND DUP2 JUMP JUMPDEST CALLVALUE DUP1 ISZERO PUSH2 0x538 JUMPI PUSH1 0x0 DUP1 REVERT JUMPDEST POP PUSH2 0x208 PUSH2 0x547 CALLDATASIZE PUSH1 0x4 PUSH2 0x225B JUMP JUMPDEST PUSH2 0x11E3 JUMP JUMPDEST CALLVALUE DUP1 ISZERO PUSH2 0x558 JUMPI PUSH1 0x0 DUP1 REVERT JUMPDEST POP PUSH2 0x56C PUSH2 0x567 CALLDATASIZE PUSH1 0x4 PUSH2 0x2226 JUMP JUMPDEST PUSH2 0x120C JUMP JUMPDEST PUSH1 0x40 MLOAD PUSH2 0x214 SWAP6 SWAP5 SWAP4 SWAP3 SWAP2 SWAP1 PUSH2 0x24EB JUMP JUMPDEST CALLVALUE DUP1 ISZERO PUSH2 0x589 JUMPI PUSH1 0x0 DUP1 REVERT JUMPDEST POP PUSH2 0x23D PUSH32 0x85FACED7BDE13E1A7DAD704B895F006E704F207617D68166B31BA2D79624862D DUP2 JUMP JUMPDEST CALLVALUE DUP1 ISZERO PUSH2 0x5BD JUMPI PUSH1 0x0 DUP1 REVERT JUMPDEST POP PUSH2 0x23D PUSH1 0x0 DUP2 JUMP JUMPDEST CALLVALUE DUP1 ISZERO PUSH2 0x5D2 JUMPI PUSH1 0x0 DUP1 REVERT JUMPDEST POP PUSH2 0x61E PUSH2 0x5E1 CALLDATASIZE PUSH1 0x4 PUSH2 0x2226 JUMP JUMPDEST PUSH1 0x3 PUSH1 0x20 DUP2 SWAP1 MSTORE PUSH1 0x0 SWAP2 DUP3 MSTORE PUSH1 0x40 SWAP1 SWAP2 KECCAK256 DUP1 SLOAD PUSH1 0x1 DUP3 ADD SLOAD PUSH1 0x2 DUP4 ADD SLOAD SWAP4 DUP4 ADD SLOAD PUSH1 0x4 SWAP1 SWAP4 ADD SLOAD PUSH1 0x1 PUSH1 0x1 PUSH1 0xA0 SHL SUB SWAP1 SWAP3 AND SWAP4 SWAP1 SWAP3 SWAP1 SWAP2 PUSH1 0xFF AND DUP6 JUMP JUMPDEST PUSH1 0x40 DUP1 MLOAD PUSH1 0x1 PUSH1 0x1 PUSH1 0xA0 SHL SUB SWAP1 SWAP7 AND DUP7 MSTORE PUSH1 0x20 DUP7 ADD SWAP5 SWAP1 SWAP5 MSTORE SWAP3 DUP5 ADD SWAP2 SWAP1 SWAP2 MSTORE PUSH1 0x60 DUP4 ADD MSTORE ISZERO ISZERO PUSH1 0x80 DUP3 ADD MSTORE PUSH1 0xA0 ADD PUSH2 0x214 JUMP JUMPDEST CALLVALUE DUP1 ISZERO PUSH2 0x65E JUMPI PUSH1 0x0 DUP1 REVERT JUMPDEST POP PUSH2 0x23D PUSH2 0x66D CALLDATASIZE PUSH1 0x4 PUSH2 0x2226 JUMP JUMPDEST PUSH2 0x12EE JUMP JUMPDEST CALLVALUE DUP1 ISZERO PUSH2 0x67E JUMPI PUSH1 0x0 DUP1 REVERT JUMPDEST POP PUSH2 0x26B PUSH2 0x68D CALLDATASIZE PUSH1 0x4 PUSH2 0x2529 JUMP JUMPDEST PUSH2 0x1328 JUMP JUMPDEST CALLVALUE DUP1 ISZERO PUSH2 0x69E JUMPI PUSH1 0x0 DUP1 REVERT JUMPDEST POP PUSH2 0x26B PUSH2 0x6AD CALLDATASIZE PUSH1 0x4 PUSH2 0x25A4 JUMP JUMPDEST PUSH2 0x1473 JUMP JUMPDEST CALLVALUE DUP1 ISZERO PUSH2 0x6BE JUMPI PUSH1 0x0 DUP1 REVERT JUMPDEST POP PUSH2 0x26B PUSH2 0x6CD CALLDATASIZE PUSH1 0x4 PUSH2 0x225B JUMP JUMPDEST PUSH2 0x1748 JUMP JUMPDEST CALLVALUE DUP1 ISZERO PUSH2 0x6DE JUMPI PUSH1 0x0 DUP1 REVERT JUMPDEST POP PUSH2 0x26B PUSH2 0x6ED CALLDATASIZE PUSH1 0x4 PUSH2 0x225B JUMP JUMPDEST PUSH2 0x176D JUMP JUMPDEST CALLVALUE DUP1 ISZERO PUSH2 0x6FE JUMPI PUSH1 0x0 DUP1 REVERT JUMPDEST POP PUSH2 0x26B PUSH2 0x70D CALLDATASIZE PUSH1 0x4 PUSH2 0x25D0 JUMP JUMPDEST PUSH2 0x1782 JUMP JUMPDEST PUSH1 0x0 PUSH1 0x1 PUSH1 0x1 PUSH1 0xE0 SHL SUB NOT DUP3 AND PUSH4 0x7965DB0B PUSH1 0xE0 SHL EQ DUP1 PUSH2 0x743 JUMPI POP PUSH4 0x1FFC9A7 PUSH1 0xE0 SHL PUSH1 0x1 PUSH1 0x1 PUSH1 0xE0 SHL SUB NOT DUP4 AND EQ JUMPDEST SWAP3 SWAP2 POP POP JUMP JUMPDEST PUSH1 0x0 DUP2 DUP2 MSTORE PUSH1 0x3 PUSH1 0x20 MSTORE PUSH1 0x40 DUP2 KECCAK256 PUSH1 0x4 DUP2 ADD SLOAD PUSH1 0xFF AND PUSH2 0x77C JUMPI PUSH1 0x40 MLOAD PUSH4 0x5AE7A895 PUSH1 0xE1 SHL DUP2 MSTORE PUSH1 0x4 ADD PUSH1 0x40 MLOAD DUP1 SWAP2 SUB SWAP1 REVERT JUMPDEST POP POP PUSH1 0x0 SWAP1 DUP2 MSTORE PUSH1 0x8 PUSH1 0x20 MSTORE PUSH1 0x40 SWAP1 KECCAK256 SLOAD SWAP1 JUMP JUMPDEST PUSH1 0x0 PUSH2 0x79B DUP2 PUSH2 0x178E JUMP JUMPDEST PUSH1 0x0 DUP4 DUP2 MSTORE PUSH1 0x6 PUSH1 0x20 MSTORE PUSH1 0x40 SWAP1 KECCAK256 PUSH1 0x2 DUP2 ADD SLOAD PUSH1 0xFF AND PUSH2 0x7CE JUMPI PUSH1 0x40 MLOAD PUSH4 0x3B9BA8B PUSH1 0xE3 SHL DUP2 MSTORE PUSH1 0x4 ADD PUSH1 0x40 MLOAD DUP1 SWAP2 SUB SWAP1 REVERT JUMPDEST PUSH1 0x0 DUP5 DUP2 MSTORE PUSH1 0x5 PUSH1 0x20 MSTORE PUSH1 0x40 DUP2 KECCAK256 PUSH1 0x3 DUP2 ADD SLOAD SWAP1 SWAP2 SWAP1 PUSH1 0xFF AND ISZERO PUSH2 0x908 JUMPI PUSH1 0x0 DUP7 DUP2 MSTORE PUSH1 0x9 PUSH1 0x20 MSTORE PUSH1 0x40 SWAP1 KECCAK256 SLOAD DUP1 ISZERO PUSH2 0x8D0 JUMPI PUSH2 0x80C PUSH1 0x2 DUP3 PUSH2 0x261B JUMP JUMPDEST SWAP2 POP DUP2 PUSH1 0x9 PUSH1 0x0 DUP10 DUP2 MSTORE PUSH1 0x20 ADD SWAP1 DUP2 MSTORE PUSH1 0x20 ADD PUSH1 0x0 KECCAK256 PUSH1 0x0 DUP3 DUP3 SLOAD PUSH2 0x831 SWAP2 SWAP1 PUSH2 0x263D JUMP JUMPDEST SWAP1 SWAP2 SSTORE POP POP PUSH1 0x40 MLOAD PUSH1 0x0 SWAP1 PUSH1 0x1 PUSH1 0x1 PUSH1 0xA0 SHL SUB DUP9 AND SWAP1 DUP5 SWAP1 DUP4 DUP2 DUP2 DUP2 DUP6 DUP8 GAS CALL SWAP3 POP POP POP RETURNDATASIZE DUP1 PUSH1 0x0 DUP2 EQ PUSH2 0x881 JUMPI PUSH1 0x40 MLOAD SWAP2 POP PUSH1 0x1F NOT PUSH1 0x3F RETURNDATASIZE ADD AND DUP3 ADD PUSH1 0x40 MSTORE RETURNDATASIZE DUP3 MSTORE RETURNDATASIZE PUSH1 0x0 PUSH1 0x20 DUP5 ADD RETURNDATACOPY PUSH2 0x886 JUMP JUMPDEST PUSH1 0x60 SWAP2 POP JUMPDEST POP POP SWAP1 POP DUP1 PUSH2 0x8CE JUMPI PUSH1 0x40 MLOAD PUSH3 0x461BCD PUSH1 0xE5 SHL DUP2 MSTORE PUSH1 0x20 PUSH1 0x4 DUP3 ADD MSTORE PUSH1 0xF PUSH1 0x24 DUP3 ADD MSTORE PUSH15 0x151C985B9CD9995C8819985A5B1959 PUSH1 0x8A SHL PUSH1 0x44 DUP3 ADD MSTORE PUSH1 0x64 ADD JUMPDEST PUSH1 0x40 MLOAD DUP1 SWAP2 SUB SWAP1 REVERT JUMPDEST POP JUMPDEST POP PUSH1 0x0 DUP7 DUP2 MSTORE PUSH1 0x5 PUSH1 0x20 MSTORE PUSH1 0x40 DUP2 KECCAK256 DUP1 SLOAD PUSH1 0x1 PUSH1 0x1 PUSH1 0xA0 SHL SUB NOT AND DUP2 SSTORE PUSH1 0x1 DUP2 ADD DUP3 SWAP1 SSTORE PUSH1 0x2 DUP2 ADD SWAP2 SWAP1 SWAP2 SSTORE PUSH1 0x3 ADD DUP1 SLOAD PUSH1 0xFF NOT AND SWAP1 SSTORE JUMPDEST PUSH1 0x2 DUP4 ADD DUP1 SLOAD PUSH1 0xFF NOT AND SWAP1 SSTORE PUSH1 0x40 DUP1 MLOAD DUP3 DUP2 MSTORE TIMESTAMP PUSH1 0x20 DUP3 ADD MSTORE PUSH1 0x1 PUSH1 0x1 PUSH1 0xA0 SHL SUB DUP8 AND SWAP2 DUP9 SWAP2 PUSH32 0x5BBFC37A6F395570449DDBE2C9147A0830640899E7736BE39A8B8520CF2B55A9 SWAP2 ADD PUSH1 0x40 MLOAD DUP1 SWAP2 SUB SWAP1 LOG3 DUP5 PUSH1 0x1 PUSH1 0x1 PUSH1 0xA0 SHL SUB AND DUP7 PUSH1 0x0 DUP1 MLOAD PUSH1 0x20 PUSH2 0x26B4 DUP4 CODECOPY DUP2 MLOAD SWAP2 MSTORE PUSH1 0x0 DUP1 SHL TIMESTAMP PUSH1 0x40 MLOAD PUSH2 0x9B7 SWAP3 SWAP2 SWAP1 SWAP2 DUP3 MSTORE PUSH1 0x60 PUSH1 0x20 DUP4 ADD DUP2 SWAP1 MSTORE PUSH1 0x10 SWAP1 DUP4 ADD MSTORE PUSH16 0x111254D415551157D49154D3D3159151 PUSH1 0x82 SHL PUSH1 0x80 DUP4 ADD MSTORE PUSH1 0x40 DUP3 ADD MSTORE PUSH1 0xA0 ADD SWAP1 JUMP JUMPDEST PUSH1 0x40 MLOAD DUP1 SWAP2 SUB SWAP1 LOG3 POP POP POP POP POP POP JUMP JUMPDEST PUSH2 0x9D1 CALLER DUP3 PUSH2 0x1798 JUMP JUMPDEST POP JUMP JUMPDEST PUSH1 0x0 DUP2 DUP2 MSTORE PUSH1 0x3 PUSH1 0x20 MSTORE PUSH1 0x40 SWAP1 KECCAK256 PUSH1 0x4 DUP2 ADD SLOAD PUSH1 0x60 SWAP2 SWAP1 PUSH1 0xFF AND PUSH2 0xA0B JUMPI PUSH1 0x40 MLOAD PUSH4 0x5AE7A895 PUSH1 0xE1 SHL DUP2 MSTORE PUSH1 0x4 ADD PUSH1 0x40 MLOAD DUP1 SWAP2 SUB SWAP1 REVERT JUMPDEST PUSH1 0x0 DUP4 DUP2 MSTORE PUSH1 0x7 PUSH1 0x20 MSTORE PUSH1 0x40 DUP2 KECCAK256 SLOAD PUSH1 0xFF AND SWAP1 DUP2 PUSH1 0x1 DUP2 GT ISZERO PUSH2 0xA30 JUMPI PUSH2 0xA30 PUSH2 0x2650 JUMP JUMPDEST EQ PUSH2 0xA5F JUMPI PUSH1 0x40 MLOAD DUP1 PUSH1 0x40 ADD PUSH1 0x40 MSTORE DUP1 PUSH1 0xC DUP2 MSTORE PUSH1 0x20 ADD PUSH12 0x119553131657D35253951151 PUSH1 0xA2 SHL DUP2 MSTORE POP PUSH2 0xA80 JUMP JUMPDEST PUSH1 0x40 MLOAD DUP1 PUSH1 0x40 ADD PUSH1 0x40 MSTORE DUP1 PUSH1 0x7 DUP2 MSTORE PUSH1 0x20 ADD PUSH7 0x10D49150551151 PUSH1 0xCA SHL DUP2 MSTORE POP JUMPDEST SWAP5 SWAP4 POP POP POP POP JUMP JUMPDEST PUSH1 0x0 DUP3 DUP2 MSTORE PUSH1 0x20 DUP2 SWAP1 MSTORE PUSH1 0x40 SWAP1 KECCAK256 PUSH1 0x1 ADD SLOAD PUSH2 0xAA3 DUP2 PUSH2 0x178E JUMP JUMPDEST PUSH2 0xAAD DUP4 DUP4 PUSH2 0x1971 JUMP JUMPDEST POP POP POP POP JUMP JUMPDEST PUSH1 0x1 PUSH1 0x1 PUSH1 0xA0 SHL SUB DUP2 AND CALLER EQ PUSH2 0xADC JUMPI PUSH1 0x40 MLOAD PUSH4 0x334BD919 PUSH1 0xE1 SHL DUP2 MSTORE PUSH1 0x4 ADD PUSH1 0x40 MLOAD DUP1 SWAP2 SUB SWAP1 REVERT JUMPDEST PUSH2 0xAE6 DUP3 DUP3 PUSH2 0x1A03 JUMP JUMPDEST POP POP POP JUMP JUMPDEST CALLER PUSH1 0x0 SWAP1 DUP2 MSTORE PUSH1 0xA PUSH1 0x20 MSTORE PUSH1 0x40 SWAP1 KECCAK256 SLOAD PUSH1 0xFF AND PUSH2 0xB1B JUMPI PUSH1 0x40 MLOAD PUSH4 0x4843AA93 PUSH1 0xE1 SHL DUP2 MSTORE PUSH1 0x4 ADD PUSH1 0x40 MLOAD DUP1 SWAP2 SUB SWAP1 REVERT JUMPDEST TIMESTAMP DUP4 LT ISZERO PUSH2 0xB3C JUMPI PUSH1 0x40 MLOAD PUSH4 0x1AB7DA6B PUSH1 0xE0 SHL DUP2 MSTORE PUSH1 0x4 ADD PUSH1 0x40 MLOAD DUP1 SWAP2 SUB SWAP1 REVERT JUMPDEST PUSH1 0x40 DUP1 MLOAD PUSH32 0xC67E7F265B2128FB39CE2A871A16CD8421FEE5213CDE6FA5F562D0759C3AEFB7 PUSH1 0x20 DUP3 ADD MSTORE SWAP1 DUP2 ADD DUP9 SWAP1 MSTORE PUSH1 0x1 PUSH1 0x1 PUSH1 0xA0 SHL SUB DUP8 AND PUSH1 0x60 DUP3 ADD MSTORE PUSH1 0x80 DUP2 ADD DUP7 SWAP1 MSTORE PUSH1 0xA0 DUP2 ADD DUP6 SWAP1 MSTORE PUSH1 0xC0 DUP2 ADD DUP5 SWAP1 MSTORE PUSH1 0x0 SWAP1 PUSH1 0xE0 ADD PUSH1 0x40 MLOAD PUSH1 0x20 DUP2 DUP4 SUB SUB DUP2 MSTORE SWAP1 PUSH1 0x40 MSTORE DUP1 MLOAD SWAP1 PUSH1 0x20 ADD KECCAK256 SWAP1 POP PUSH1 0x0 PUSH2 0xBFB DUP5 DUP5 DUP1 DUP1 PUSH1 0x1F ADD PUSH1 0x20 DUP1 SWAP2 DIV MUL PUSH1 0x20 ADD PUSH1 0x40 MLOAD SWAP1 DUP2 ADD PUSH1 0x40 MSTORE DUP1 SWAP4 SWAP3 SWAP2 SWAP1 DUP2 DUP2 MSTORE PUSH1 0x20 ADD DUP4 DUP4 DUP1 DUP3 DUP5 CALLDATACOPY PUSH1 0x0 SWAP3 ADD SWAP2 SWAP1 SWAP2 MSTORE POP PUSH2 0xBF5 SWAP3 POP DUP7 SWAP2 POP PUSH2 0x1A6E SWAP1 POP JUMP JUMPDEST SWAP1 PUSH2 0x1A9B JUMP JUMPDEST SWAP1 POP DUP10 PUSH1 0x1 PUSH1 0x1 PUSH1 0xA0 SHL SUB AND DUP2 PUSH1 0x1 PUSH1 0x1 PUSH1 0xA0 SHL SUB AND EQ PUSH2 0xC2F JUMPI PUSH1 0x40 MLOAD PUSH4 0x8BAA579F PUSH1 0xE0 SHL DUP2 MSTORE PUSH1 0x4 ADD PUSH1 0x40 MLOAD DUP1 SWAP2 SUB SWAP1 REVERT JUMPDEST PUSH1 0x1 PUSH1 0x1 PUSH1 0xA0 SHL SUB DUP11 AND PUSH1 0x0 SWAP1 DUP2 MSTORE PUSH1 0xB PUSH1 0x20 MSTORE PUSH1 0x40 SWAP1 KECCAK256 SLOAD DUP7 EQ PUSH2 0xC67 JUMPI PUSH1 0x40 MLOAD PUSH4 0x8BAA579F PUSH1 0xE0 SHL DUP2 MSTORE PUSH1 0x4 ADD PUSH1 0x40 MLOAD DUP1 SWAP2 SUB SWAP1 REVERT JUMPDEST PUSH1 0x1 PUSH1 0x1 PUSH1 0xA0 SHL SUB DUP11 AND PUSH1 0x0 SWAP1 DUP2 MSTORE PUSH1 0xB PUSH1 0x20 MSTORE PUSH1 0x40 SWAP1 KECCAK256 DUP1 SLOAD PUSH1 0x1 ADD SWAP1 SSTORE PUSH2 0xC92 DUP11 DUP11 DUP11 DUP11 PUSH2 0x1AC5 JUMP JUMPDEST PUSH1 0x40 MLOAD DUP7 DUP2 MSTORE PUSH1 0x1 PUSH1 0x1 PUSH1 0xA0 SHL SUB DUP12 AND SWAP1 CALLER SWAP1 PUSH32 0x7263A9D4EC443510C87EBA2FB38533C494E3E72AA5FE5445520C7BFD9CE2EFBD SWAP1 PUSH1 0x20 ADD PUSH1 0x40 MLOAD DUP1 SWAP2 SUB SWAP1 LOG3 POP POP POP POP POP POP POP POP POP POP JUMP JUMPDEST PUSH1 0x0 PUSH2 0xCE9 DUP2 PUSH2 0x178E JUMP JUMPDEST PUSH1 0x1 PUSH1 0x1 PUSH1 0xA0 SHL SUB DUP3 AND PUSH1 0x0 DUP2 DUP2 MSTORE PUSH1 0xA PUSH1 0x20 SWAP1 DUP2 MSTORE PUSH1 0x40 SWAP2 DUP3 SWAP1 KECCAK256 DUP1 SLOAD PUSH1 0xFF NOT AND PUSH1 0x1 SWAP1 DUP2 OR SWAP1 SWAP2 SSTORE SWAP2 MLOAD SWAP2 DUP3 MSTORE PUSH32 0xF4F23F635D7E7E15ED8EB61931987998E776FC6790838A020AC49E51E00B76BA SWAP2 ADD PUSH1 0x40 MLOAD DUP1 SWAP2 SUB SWAP1 LOG2 POP POP JUMP JUMPDEST TIMESTAMP DUP4 LT ISZERO PUSH2 0xD68 JUMPI PUSH1 0x40 MLOAD PUSH4 0x1AB7DA6B PUSH1 0xE0 SHL DUP2 MSTORE PUSH1 0x4 ADD PUSH1 0x40 MLOAD DUP1 SWAP2 SUB SWAP1 REVERT JUMPDEST PUSH1 0x40 DUP1 MLOAD PUSH32 0xB9B22616824A0FDD55759E861704FD4E426236BB7EA523E53A363CE2F3BB5E20 PUSH1 0x20 DUP3 ADD MSTORE SWAP1 DUP2 ADD DUP7 SWAP1 MSTORE PUSH1 0x60 DUP2 ADD DUP6 SWAP1 MSTORE PUSH1 0x80 DUP2 ADD DUP5 SWAP1 MSTORE PUSH1 0x0 SWAP1 PUSH1 0xA0 ADD PUSH1 0x40 MLOAD PUSH1 0x20 DUP2 DUP4 SUB SUB DUP2 MSTORE SWAP1 PUSH1 0x40 MSTORE DUP1 MLOAD SWAP1 PUSH1 0x20 ADD KECCAK256 SWAP1 POP PUSH1 0x0 PUSH2 0xE0B DUP5 DUP5 DUP1 DUP1 PUSH1 0x1F ADD PUSH1 0x20 DUP1 SWAP2 DIV MUL PUSH1 0x20 ADD PUSH1 0x40 MLOAD SWAP1 DUP2 ADD PUSH1 0x40 MSTORE DUP1 SWAP4 SWAP3 SWAP2 SWAP1 DUP2 DUP2 MSTORE PUSH1 0x20 ADD DUP4 DUP4 DUP1 DUP3 DUP5 CALLDATACOPY PUSH1 0x0 SWAP3 ADD SWAP2 SWAP1 SWAP2 MSTORE POP PUSH2 0xBF5 SWAP3 POP DUP7 SWAP2 POP PUSH2 0x1A6E SWAP1 POP JUMP JUMPDEST PUSH1 0x1 PUSH1 0x1 PUSH1 0xA0 SHL SUB DUP2 AND PUSH1 0x0 SWAP1 DUP2 MSTORE PUSH1 0xB PUSH1 0x20 MSTORE PUSH1 0x40 SWAP1 KECCAK256 SLOAD SWAP1 SWAP2 POP DUP7 EQ PUSH2 0xE46 JUMPI PUSH1 0x40 MLOAD PUSH4 0x8BAA579F PUSH1 0xE0 SHL DUP2 MSTORE PUSH1 0x4 ADD PUSH1 0x40 MLOAD DUP1 SWAP2 SUB SWAP1 REVERT JUMPDEST PUSH1 0x1 PUSH1 0x1 PUSH1 0xA0 SHL SUB DUP2 AND PUSH1 0x0 SWAP1 DUP2 MSTORE PUSH1 0xB PUSH1 0x20 MSTORE PUSH1 0x40 SWAP1 KECCAK256 DUP1 SLOAD PUSH1 0x1 ADD SWAP1 SSTORE PUSH2 0xE6F DUP2 DUP9 PUSH2 0x1798 JUMP JUMPDEST POP POP POP POP POP POP POP JUMP JUMPDEST PUSH1 0x0 DUP2 DUP2 MSTORE PUSH1 0x4 PUSH1 0x20 MSTORE PUSH1 0x40 DUP2 KECCAK256 PUSH1 0x3 DUP2 ADD SLOAD PUSH1 0xFF AND PUSH2 0xEAB JUMPI PUSH1 0x40 MLOAD PUSH4 0x79DE4AF5 PUSH1 0xE0 SHL DUP2 MSTORE PUSH1 0x4 ADD PUSH1 0x40 MLOAD DUP1 SWAP2 SUB SWAP1 REVERT JUMPDEST PUSH1 0x1 ADD SLOAD PUSH1 0x1 PUSH1 0x1 PUSH1 0xA0 SHL SUB AND SWAP3 SWAP2 POP POP JUMP JUMPDEST PUSH1 0x0 DUP3 DUP2 MSTORE PUSH1 0x4 PUSH1 0x20 MSTORE PUSH1 0x40 SWAP1 KECCAK256 PUSH1 0x3 DUP2 ADD SLOAD PUSH1 0xFF AND PUSH2 0xEF1 JUMPI PUSH1 0x40 MLOAD PUSH4 0x79DE4AF5 PUSH1 0xE0 SHL DUP2 MSTORE PUSH1 0x4 ADD PUSH1 0x40 MLOAD DUP1 SWAP2 SUB SWAP1 REVERT JUMPDEST PUSH1 0x0 DUP4 DUP2 MSTORE PUSH1 0x6 PUSH1 0x20 MSTORE PUSH1 0x40 SWAP1 KECCAK256 PUSH1 0x2 DUP2 ADD SLOAD PUSH1 0xFF AND ISZERO PUSH2 0xF25 JUMPI PUSH1 0x40 MLOAD PUSH4 0xF10068B5 PUSH1 0xE0 SHL DUP2 MSTORE PUSH1 0x4 ADD PUSH1 0x40 MLOAD DUP1 SWAP2 SUB SWAP1 REVERT JUMPDEST DUP1 SLOAD PUSH1 0x1 PUSH1 0x1 PUSH1 0xA0 SHL SUB NOT AND CALLER SWAP1 DUP2 OR DUP3 SSTORE PUSH1 0x1 DUP1 DUP4 ADD DUP6 SWAP1 SSTORE PUSH1 0x2 DUP4 ADD DUP1 SLOAD PUSH1 0xFF NOT AND SWAP1 SWAP2 OR SWAP1 SSTORE TIMESTAMP PUSH1 0x3 DUP4 ADD DUP2 SWAP1 SSTORE PUSH1 0x40 MLOAD DUP7 SWAP2 PUSH32 0x9D956E00A78B28B7F3B6B25C60A4729355093DE02CAC8715CEB237725C0F5820 SWAP2 PUSH2 0xFB2 SWAP2 SWAP1 PUSH1 0x40 DUP1 DUP3 MSTORE PUSH1 0xE SWAP1 DUP3 ADD MSTORE PUSH14 0x111A5CDC1D5D19481C985A5CD959 PUSH1 0x92 SHL PUSH1 0x60 DUP3 ADD MSTORE PUSH1 0x20 DUP2 ADD SWAP2 SWAP1 SWAP2 MSTORE PUSH1 0x80 ADD SWAP1 JUMP JUMPDEST PUSH1 0x40 MLOAD DUP1 SWAP2 SUB SWAP1 LOG3 PUSH1 0x40 DUP1 MLOAD PUSH1 0x0 DUP2 MSTORE PUSH1 0x60 PUSH1 0x20 DUP3 ADD DUP2 SWAP1 MSTORE PUSH1 0xE SWAP1 DUP3 ADD MSTORE PUSH14 0x111254D415551157D4905254D151 PUSH1 0x92 SHL PUSH1 0x80 DUP3 ADD MSTORE TIMESTAMP DUP2 DUP4 ADD MSTORE SWAP1 MLOAD CALLER SWAP2 DUP7 SWAP2 PUSH1 0x0 DUP1 MLOAD PUSH1 0x20 PUSH2 0x26B4 DUP4 CODECOPY DUP2 MLOAD SWAP2 MSTORE SWAP2 DUP2 SWAP1 SUB PUSH1 0xA0 ADD SWAP1 LOG3 POP POP POP POP JUMP JUMPDEST PUSH32 0x6659D833875B88922D2576DAD6C137A09BA676496BB2010BF8A72397792167A0 PUSH2 0x103B DUP2 PUSH2 0x178E JUMP JUMPDEST CALLVALUE PUSH1 0x0 SUB PUSH2 0x105C JUMPI PUSH1 0x40 MLOAD PUSH4 0x37C2E999 PUSH1 0xE2 SHL DUP2 MSTORE PUSH1 0x4 ADD PUSH1 0x40 MLOAD DUP1 SWAP2 SUB SWAP1 REVERT JUMPDEST DUP2 PUSH1 0x0 SUB PUSH2 0x107D JUMPI PUSH1 0x40 MLOAD PUSH4 0x33B094A1 PUSH1 0xE0 SHL DUP2 MSTORE PUSH1 0x4 ADD PUSH1 0x40 MLOAD DUP1 SWAP2 SUB SWAP1 REVERT JUMPDEST PUSH1 0x0 DUP4 DUP2 MSTORE PUSH1 0x3 PUSH1 0x20 MSTORE PUSH1 0x40 SWAP1 KECCAK256 PUSH1 0x4 DUP2 ADD SLOAD PUSH1 0xFF AND ISZERO PUSH2 0x10B1 JUMPI PUSH1 0x40 MLOAD PUSH4 0xFA992D5 PUSH1 0xE3 SHL DUP2 MSTORE PUSH1 0x4 ADD PUSH1 0x40 MLOAD DUP1 SWAP2 SUB SWAP1 REVERT JUMPDEST DUP1 SLOAD PUSH1 0x1 PUSH1 0x1 PUSH1 0xA0 SHL SUB NOT AND CALLER SWAP1 DUP2 OR DUP3 SSTORE PUSH1 0x1 DUP1 DUP4 ADD DUP6 SWAP1 SSTORE PUSH1 0x0 PUSH1 0x2 DUP5 ADD DUP2 SWAP1 SSTORE CALLVALUE PUSH1 0x3 DUP6 ADD DUP2 SWAP1 SSTORE PUSH1 0x4 DUP6 ADD DUP1 SLOAD PUSH1 0xFF NOT SWAP1 DUP2 AND SWAP1 SWAP5 OR SWAP1 SSTORE DUP8 DUP3 MSTORE PUSH1 0x7 PUSH1 0x20 SWAP1 DUP2 MSTORE PUSH1 0x40 DUP1 DUP5 KECCAK256 DUP1 SLOAD SWAP1 SWAP6 AND SWAP1 SWAP5 SSTORE PUSH1 0x8 DUP2 MSTORE DUP4 DUP4 KECCAK256 SWAP3 SWAP1 SWAP3 SSTORE DUP3 MLOAD DUP8 DUP2 MSTORE SWAP2 DUP3 ADD MSTORE DUP7 SWAP2 PUSH32 0x393E916C1DFC22D76701413768477926C03C62E090A22793B40C4E1BAC3F0F00 SWAP2 ADD PUSH1 0x40 MLOAD DUP1 SWAP2 SUB SWAP1 LOG3 PUSH1 0x40 DUP1 MLOAD DUP2 DUP2 MSTORE PUSH1 0x7 DUP2 DUP4 ADD MSTORE PUSH7 0x10D49150551151 PUSH1 0xCA SHL PUSH1 0x60 DUP3 ADD MSTORE TIMESTAMP PUSH1 0x20 DUP3 ADD MSTORE SWAP1 MLOAD DUP6 SWAP2 PUSH32 0xD1F1A368B113312ABE993C35D4FE6DDEC3E14D22FCC65A0BFD2787FE1350E465 SWAP2 SWAP1 DUP2 SWAP1 SUB PUSH1 0x80 ADD SWAP1 LOG2 POP POP POP POP JUMP JUMPDEST PUSH1 0x0 PUSH1 0x60 DUP1 PUSH1 0x0 DUP1 PUSH1 0x0 PUSH1 0x60 PUSH2 0x11B1 PUSH2 0x1D47 JUMP JUMPDEST PUSH2 0x11B9 PUSH2 0x1D79 JUMP JUMPDEST PUSH1 0x40 DUP1 MLOAD PUSH1 0x0 DUP1 DUP3 MSTORE PUSH1 0x20 DUP3 ADD SWAP1 SWAP3 MSTORE PUSH1 0xF PUSH1 0xF8 SHL SWAP12 SWAP4 SWAP11 POP SWAP2 SWAP9 POP CHAINID SWAP8 POP ADDRESS SWAP7 POP SWAP5 POP SWAP3 POP SWAP1 POP JUMP JUMPDEST PUSH1 0x0 SWAP2 DUP3 MSTORE PUSH1 0x20 DUP3 DUP2 MSTORE PUSH1 0x40 DUP1 DUP5 KECCAK256 PUSH1 0x1 PUSH1 0x1 PUSH1 0xA0 SHL SUB SWAP4 SWAP1 SWAP4 AND DUP5 MSTORE SWAP2 SWAP1 MSTORE SWAP1 KECCAK256 SLOAD PUSH1 0xFF AND SWAP1 JUMP JUMPDEST PUSH1 0x0 DUP2 DUP2 MSTORE PUSH1 0x3 PUSH1 0x20 MSTORE PUSH1 0x40 DUP2 KECCAK256 PUSH1 0x4 DUP2 ADD SLOAD DUP3 SWAP2 DUP3 SWAP2 DUP3 SWAP2 PUSH1 0x60 SWAP2 PUSH1 0xFF AND PUSH2 0x1248 JUMPI PUSH1 0x40 MLOAD PUSH4 0x5AE7A895 PUSH1 0xE1 SHL DUP2 MSTORE PUSH1 0x4 ADD PUSH1 0x40 MLOAD DUP1 SWAP2 SUB SWAP1 REVERT JUMPDEST PUSH1 0x0 DUP8 DUP2 MSTORE PUSH1 0x7 PUSH1 0x20 MSTORE PUSH1 0x40 DUP2 KECCAK256 SLOAD PUSH1 0xFF AND SWAP1 DUP1 DUP3 PUSH1 0x1 DUP2 GT ISZERO PUSH2 0x126E JUMPI PUSH2 0x126E PUSH2 0x2650 JUMP JUMPDEST EQ PUSH2 0x129D JUMPI PUSH1 0x40 MLOAD DUP1 PUSH1 0x40 ADD PUSH1 0x40 MSTORE DUP1 PUSH1 0xC DUP2 MSTORE PUSH1 0x20 ADD PUSH12 0x119553131657D35253951151 PUSH1 0xA2 SHL DUP2 MSTORE POP PUSH2 0x12BE JUMP JUMPDEST PUSH1 0x40 MLOAD DUP1 PUSH1 0x40 ADD PUSH1 0x40 MSTORE DUP1 PUSH1 0x7 DUP2 MSTORE PUSH1 0x20 ADD PUSH7 0x10D49150551151 PUSH1 0xCA SHL DUP2 MSTORE POP JUMPDEST DUP4 SLOAD PUSH1 0x1 DUP6 ADD SLOAD PUSH1 0x2 DUP7 ADD SLOAD PUSH1 0x3 SWAP1 SWAP7 ADD SLOAD PUSH1 0x1 PUSH1 0x1 PUSH1 0xA0 SHL SUB SWAP1 SWAP3 AND SWAP13 SWAP1 SWAP12 POP SWAP5 SWAP10 POP SWAP8 POP SWAP6 POP SWAP2 SWAP4 POP POP POP POP JUMP JUMPDEST PUSH1 0x0 DUP2 DUP2 MSTORE PUSH1 0x4 PUSH1 0x20 MSTORE PUSH1 0x40 DUP2 KECCAK256 PUSH1 0x3 DUP2 ADD SLOAD PUSH1 0xFF AND PUSH2 0x1321 JUMPI PUSH1 0x40 MLOAD PUSH4 0x79DE4AF5 PUSH1 0xE0 SHL DUP2 MSTORE PUSH1 0x4 ADD PUSH1 0x40 MLOAD DUP1 SWAP2 SUB SWAP1 REVERT JUMPDEST SLOAD SWAP3 SWAP2 POP POP JUMP JUMPDEST TIMESTAMP DUP4 LT ISZERO PUSH2 0x1349 JUMPI PUSH1 0x40 MLOAD PUSH4 0x1AB7DA6B PUSH1 0xE0 SHL DUP2 MSTORE PUSH1 0x4 ADD PUSH1 0x40 MLOAD DUP1 SWAP2 SUB SWAP1 REVERT JUMPDEST PUSH1 0x40 DUP1 MLOAD PUSH32 0xC67E7F265B2128FB39CE2A871A16CD8421FEE5213CDE6FA5F562D0759C3AEFB7 PUSH1 0x20 DUP3 ADD MSTORE SWAP1 DUP2 ADD DUP9 SWAP1 MSTORE PUSH1 0x1 PUSH1 0x1 PUSH1 0xA0 SHL SUB DUP8 AND PUSH1 0x60 DUP3 ADD MSTORE PUSH1 0x80 DUP2 ADD DUP7 SWAP1 MSTORE PUSH1 0xA0 DUP2 ADD DUP6 SWAP1 MSTORE PUSH1 0xC0 DUP2 ADD DUP5 SWAP1 MSTORE PUSH1 0x0 SWAP1 PUSH1 0xE0 ADD PUSH1 0x40 MLOAD PUSH1 0x20 DUP2 DUP4 SUB SUB DUP2 MSTORE SWAP1 PUSH1 0x40 MSTORE DUP1 MLOAD SWAP1 PUSH1 0x20 ADD KECCAK256 SWAP1 POP PUSH1 0x0 PUSH2 0x1402 DUP5 DUP5 DUP1 DUP1 PUSH1 0x1F ADD PUSH1 0x20 DUP1 SWAP2 DIV MUL PUSH1 0x20 ADD PUSH1 0x40 MLOAD SWAP1 DUP2 ADD PUSH1 0x40 MSTORE DUP1 SWAP4 SWAP3 SWAP2 SWAP1 DUP2 DUP2 MSTORE PUSH1 0x20 ADD DUP4 DUP4 DUP1 DUP3 DUP5 CALLDATACOPY PUSH1 0x0 SWAP3 ADD SWAP2 SWAP1 SWAP2 MSTORE POP PUSH2 0xBF5 SWAP3 POP DUP7 SWAP2 POP PUSH2 0x1A6E SWAP1 POP JUMP JUMPDEST PUSH1 0x1 PUSH1 0x1 PUSH1 0xA0 SHL SUB DUP2 AND PUSH1 0x0 SWAP1 DUP2 MSTORE PUSH1 0xB PUSH1 0x20 MSTORE PUSH1 0x40 SWAP1 KECCAK256 SLOAD SWAP1 SWAP2 POP DUP7 EQ PUSH2 0x143D JUMPI PUSH1 0x40 MLOAD PUSH4 0x8BAA579F PUSH1 0xE0 SHL DUP2 MSTORE PUSH1 0x4 ADD PUSH1 0x40 MLOAD DUP1 SWAP2 SUB SWAP1 REVERT JUMPDEST PUSH1 0x1 PUSH1 0x1 PUSH1 0xA0 SHL SUB DUP2 AND PUSH1 0x0 SWAP1 DUP2 MSTORE PUSH1 0xB PUSH1 0x20 MSTORE PUSH1 0x40 SWAP1 KECCAK256 DUP1 SLOAD PUSH1 0x1 ADD SWAP1 SSTORE PUSH2 0x1468 DUP2 DUP11 DUP11 DUP11 PUSH2 0x1AC5 JUMP JUMPDEST POP POP POP POP POP POP POP POP POP JUMP JUMPDEST PUSH32 0x6659D833875B88922D2576DAD6C137A09BA676496BB2010BF8A72397792167A0 PUSH2 0x149D DUP2 PUSH2 0x178E JUMP JUMPDEST PUSH1 0x0 DUP5 DUP2 MSTORE PUSH1 0x4 PUSH1 0x20 MSTORE PUSH1 0x40 SWAP1 KECCAK256 PUSH1 0x3 ADD SLOAD PUSH1 0xFF AND ISZERO PUSH2 0x14D0 JUMPI PUSH1 0x40 MLOAD PUSH4 0x7AFEB2E1 PUSH1 0xE0 SHL DUP2 MSTORE PUSH1 0x4 ADD PUSH1 0x40 MLOAD DUP1 SWAP2 SUB SWAP1 REVERT JUMPDEST PUSH1 0x0 DUP4 DUP2 MSTORE PUSH1 0x3 PUSH1 0x20 MSTORE PUSH1 0x40 SWAP1 KECCAK256 PUSH1 0x4 DUP2 ADD SLOAD PUSH1 0xFF AND PUSH2 0x1503 JUMPI PUSH1 0x40 MLOAD PUSH4 0x5AE7A895 PUSH1 0xE1 SHL DUP2 MSTORE PUSH1 0x4 ADD PUSH1 0x40 MLOAD DUP1 SWAP2 SUB SWAP1 REVERT JUMPDEST DUP1 SLOAD PUSH1 0x1 PUSH1 0x1 PUSH1 0xA0 SHL SUB AND CALLER EQ PUSH2 0x152D JUMPI PUSH1 0x40 MLOAD PUSH4 0xEA8E4EB5 PUSH1 0xE0 SHL DUP2 MSTORE PUSH1 0x4 ADD PUSH1 0x40 MLOAD DUP1 SWAP2 SUB SWAP1 REVERT JUMPDEST DUP1 PUSH1 0x1 ADD SLOAD DUP2 PUSH1 0x2 ADD SLOAD LT PUSH2 0x1555 JUMPI PUSH1 0x40 MLOAD PUSH4 0x479290CF PUSH1 0xE0 SHL DUP2 MSTORE PUSH1 0x4 ADD PUSH1 0x40 MLOAD DUP1 SWAP2 SUB SWAP1 REVERT JUMPDEST PUSH1 0x1 DUP2 PUSH1 0x2 ADD PUSH1 0x0 DUP3 DUP3 SLOAD PUSH2 0x156A SWAP2 SWAP1 PUSH2 0x2666 JUMP JUMPDEST SWAP1 SWAP2 SSTORE POP POP PUSH1 0x0 DUP5 DUP2 MSTORE PUSH1 0x8 PUSH1 0x20 MSTORE PUSH1 0x40 DUP2 KECCAK256 DUP1 SLOAD PUSH1 0x1 SWAP3 SWAP1 PUSH2 0x158E SWAP1 DUP5 SWAP1 PUSH2 0x2666 JUMP JUMPDEST SWAP1 SWAP2 SSTORE POP POP PUSH1 0x40 DUP1 MLOAD PUSH1 0x80 DUP2 ADD DUP3 MSTORE DUP6 DUP2 MSTORE CALLER PUSH1 0x20 DUP1 DUP4 ADD SWAP2 DUP3 MSTORE DUP3 DUP5 ADD DUP8 DUP2 MSTORE PUSH1 0x1 PUSH1 0x60 DUP6 ADD DUP2 DUP2 MSTORE PUSH1 0x0 DUP13 DUP2 MSTORE PUSH1 0x4 SWAP1 SWAP5 MSTORE SWAP6 SWAP1 SWAP3 KECCAK256 SWAP4 MLOAD DUP5 SSTORE SWAP2 MLOAD DUP4 DUP3 ADD DUP1 SLOAD PUSH1 0x1 PUSH1 0x1 PUSH1 0xA0 SHL SUB NOT AND PUSH1 0x1 PUSH1 0x1 PUSH1 0xA0 SHL SUB SWAP1 SWAP3 AND SWAP2 SWAP1 SWAP2 OR SWAP1 SSTORE SWAP1 MLOAD PUSH1 0x2 DUP4 ADD SSTORE SWAP2 MLOAD PUSH1 0x3 SWAP2 DUP3 ADD DUP1 SLOAD PUSH1 0xFF NOT AND SWAP2 ISZERO ISZERO SWAP2 SWAP1 SWAP2 OR SWAP1 SSTORE SWAP1 DUP3 ADD SLOAD SWAP1 DUP3 ADD SLOAD PUSH2 0x161B SWAP2 SWAP1 PUSH2 0x261B JUMP JUMPDEST PUSH1 0x0 DUP7 DUP2 MSTORE PUSH1 0x9 PUSH1 0x20 MSTORE PUSH1 0x40 SWAP1 KECCAK256 SSTORE PUSH1 0x1 DUP2 ADD SLOAD PUSH1 0x2 DUP3 ADD SLOAD SUB PUSH2 0x16AE JUMPI PUSH1 0x0 DUP5 DUP2 MSTORE PUSH1 0x7 PUSH1 0x20 SWAP1 DUP2 MSTORE PUSH1 0x40 SWAP2 DUP3 SWAP1 KECCAK256 DUP1 SLOAD PUSH1 0xFF NOT AND PUSH1 0x1 OR SWAP1 SSTORE DUP2 MLOAD DUP3 DUP2 MSTORE PUSH1 0xC SWAP3 DUP2 ADD SWAP3 SWAP1 SWAP3 MSTORE PUSH12 0x119553131657D35253951151 PUSH1 0xA2 SHL PUSH1 0x60 DUP4 ADD MSTORE TIMESTAMP SWAP1 DUP3 ADD MSTORE DUP5 SWAP1 PUSH32 0xD1F1A368B113312ABE993C35D4FE6DDEC3E14D22FCC65A0BFD2787FE1350E465 SWAP1 PUSH1 0x80 ADD PUSH1 0x40 MLOAD DUP1 SWAP2 SUB SWAP1 LOG2 JUMPDEST CALLER PUSH1 0x1 PUSH1 0x1 PUSH1 0xA0 SHL SUB AND DUP5 DUP7 PUSH32 0x70BCBF02D2425E532F5C505D1BE92EA51A88E339EC8350CCDD2C8ED88E652184 DUP7 PUSH1 0x40 MLOAD PUSH2 0x16EB SWAP2 DUP2 MSTORE PUSH1 0x20 ADD SWAP1 JUMP JUMPDEST PUSH1 0x40 MLOAD DUP1 SWAP2 SUB SWAP1 LOG4 PUSH1 0x40 DUP1 MLOAD PUSH1 0x0 DUP2 MSTORE PUSH1 0x60 PUSH1 0x20 DUP3 ADD DUP2 SWAP1 MSTORE PUSH1 0x6 SWAP1 DUP3 ADD MSTORE PUSH6 0x135253951151 PUSH1 0xD2 SHL PUSH1 0x80 DUP3 ADD MSTORE TIMESTAMP SWAP2 DUP2 ADD SWAP2 SWAP1 SWAP2 MSTORE CALLER SWAP1 DUP7 SWAP1 PUSH1 0x0 DUP1 MLOAD PUSH1 0x20 PUSH2 0x26B4 DUP4 CODECOPY DUP2 MLOAD SWAP2 MSTORE SWAP1 PUSH1 0xA0 ADD JUMPDEST PUSH1 0x40 MLOAD DUP1 SWAP2 SUB SWAP1 LOG3 POP POP POP POP POP JUMP JUMPDEST PUSH1 0x0 DUP3 DUP2 MSTORE PUSH1 0x20 DUP2 SWAP1 MSTORE PUSH1 0x40 SWAP1 KECCAK256 PUSH1 0x1 ADD SLOAD PUSH2 0x1763 DUP2 PUSH2 0x178E JUMP JUMPDEST PUSH2 0xAAD DUP4 DUP4 PUSH2 0x1A03 JUMP JUMPDEST PUSH1 0x0 PUSH2 0x1778 DUP2 PUSH2 0x178E JUMP JUMPDEST PUSH2 0xAE6 DUP4 DUP4 PUSH2 0xA88 JUMP JUMPDEST PUSH2 0xAE6 CALLER DUP5 DUP5 DUP5 PUSH2 0x1AC5 JUMP JUMPDEST PUSH2 0x9D1 DUP2 CALLER PUSH2 0x1DA6 JUMP JUMPDEST PUSH1 0x0 DUP2 DUP2 MSTORE PUSH1 0x4 PUSH1 0x20 MSTORE PUSH1 0x40 SWAP1 KECCAK256 PUSH1 0x3 DUP2 ADD SLOAD PUSH1 0xFF AND PUSH2 0x17CB JUMPI PUSH1 0x40 MLOAD PUSH4 0x79DE4AF5 PUSH1 0xE0 SHL DUP2 MSTORE PUSH1 0x4 ADD PUSH1 0x40 MLOAD DUP1 SWAP2 SUB SWAP1 REVERT JUMPDEST PUSH1 0x0 DUP3 DUP2 MSTORE PUSH1 0x5 PUSH1 0x20 MSTORE PUSH1 0x40 SWAP1 KECCAK256 PUSH1 0x3 DUP2 ADD SLOAD PUSH1 0xFF AND PUSH2 0x17FE JUMPI PUSH1 0x40 MLOAD PUSH4 0x357A03ED PUSH1 0xE2 SHL DUP2 MSTORE PUSH1 0x4 ADD PUSH1 0x40 MLOAD DUP1 SWAP2 SUB SWAP1 REVERT JUMPDEST PUSH3 0x3F480 DUP2 PUSH1 0x2 ADD SLOAD PUSH2 0x1811 SWAP2 SWAP1 PUSH2 0x2666 JUMP JUMPDEST TIMESTAMP GT ISZERO PUSH2 0x1831 JUMPI PUSH1 0x40 MLOAD PUSH4 0x1AB7DA6B PUSH1 0xE0 SHL DUP2 MSTORE PUSH1 0x4 ADD PUSH1 0x40 MLOAD DUP1 SWAP2 SUB SWAP1 REVERT JUMPDEST DUP1 SLOAD PUSH1 0x1 PUSH1 0x1 PUSH1 0xA0 SHL SUB DUP6 DUP2 AND SWAP2 AND EQ PUSH2 0x185E JUMPI PUSH1 0x40 MLOAD PUSH4 0xEA8E4EB5 PUSH1 0xE0 SHL DUP2 MSTORE PUSH1 0x4 ADD PUSH1 0x40 MLOAD DUP1 SWAP2 SUB SWAP1 REVERT JUMPDEST PUSH1 0x0 DUP4 DUP2 MSTORE PUSH1 0x6 PUSH1 0x20 MSTORE PUSH1 0x40 SWAP1 KECCAK256 PUSH1 0x2 ADD SLOAD PUSH1 0xFF AND ISZERO PUSH2 0x1891 JUMPI PUSH1 0x40 MLOAD PUSH4 0x3B9BA8B PUSH1 0xE3 SHL DUP2 MSTORE PUSH1 0x4 ADD PUSH1 0x40 MLOAD DUP1 SWAP2 SUB SWAP1 REVERT JUMPDEST PUSH1 0x1 DUP1 DUP4 ADD DUP1 SLOAD PUSH1 0x1 PUSH1 0x1 PUSH1 0xA0 SHL SUB DUP8 DUP2 AND PUSH1 0x1 PUSH1 0x1 PUSH1 0xA0 SHL SUB NOT DUP1 DUP5 AND DUP3 OR SWAP1 SWAP5 SSTORE PUSH1 0x0 DUP9 DUP2 MSTORE PUSH1 0x5 PUSH1 0x20 MSTORE PUSH1 0x40 DUP1 DUP3 KECCAK256 DUP1 SLOAD SWAP1 SWAP7 AND DUP7 SSTORE SWAP6 DUP6 ADD DUP2 SWAP1 SSTORE PUSH1 0x2 DUP6 ADD DUP2 SWAP1 SSTORE PUSH1 0x3 SWAP1 SWAP5 ADD DUP1 SLOAD PUSH1 0xFF NOT AND SWAP1 SSTORE SWAP4 MLOAD SWAP2 AND SWAP3 SWAP2 DUP4 SWAP2 DUP8 SWAP2 PUSH32 0x9CC86532AFD4843C8838F17D7972E7F29389FE47D6712B6666AF2D42DF29AB38 SWAP2 LOG4 DUP5 PUSH1 0x1 PUSH1 0x1 PUSH1 0xA0 SHL SUB AND DUP5 PUSH1 0x0 DUP1 MLOAD PUSH1 0x20 PUSH2 0x26B4 DUP4 CODECOPY DUP2 MLOAD SWAP2 MSTORE DUP5 PUSH1 0x1 ADD SLOAD TIMESTAMP PUSH1 0x40 MLOAD PUSH2 0x1739 SWAP3 SWAP2 SWAP1 SWAP2 DUP3 MSTORE PUSH1 0x60 PUSH1 0x20 DUP4 ADD DUP2 SWAP1 MSTORE PUSH1 0x11 SWAP1 DUP4 ADD MSTORE PUSH17 0x1514905394D1915497D050D0D154151151 PUSH1 0x7A SHL PUSH1 0x80 DUP4 ADD MSTORE PUSH1 0x40 DUP3 ADD MSTORE PUSH1 0xA0 ADD SWAP1 JUMP JUMPDEST PUSH1 0x0 PUSH2 0x197D DUP4 DUP4 PUSH2 0x11E3 JUMP JUMPDEST PUSH2 0x19FB JUMPI PUSH1 0x0 DUP4 DUP2 MSTORE PUSH1 0x20 DUP2 DUP2 MSTORE PUSH1 0x40 DUP1 DUP4 KECCAK256 PUSH1 0x1 PUSH1 0x1 PUSH1 0xA0 SHL SUB DUP7 AND DUP5 MSTORE SWAP1 SWAP2 MSTORE SWAP1 KECCAK256 DUP1 SLOAD PUSH1 0xFF NOT AND PUSH1 0x1 OR SWAP1 SSTORE PUSH2 0x19B3 CALLER SWAP1 JUMP JUMPDEST PUSH1 0x1 PUSH1 0x1 PUSH1 0xA0 SHL SUB AND DUP3 PUSH1 0x1 PUSH1 0x1 PUSH1 0xA0 SHL SUB AND DUP5 PUSH32 0x2F8788117E7EFF1D82E926EC794901D17C78024A50270940304540A733656F0D PUSH1 0x40 MLOAD PUSH1 0x40 MLOAD DUP1 SWAP2 SUB SWAP1 LOG4 POP PUSH1 0x1 PUSH2 0x743 JUMP JUMPDEST POP PUSH1 0x0 PUSH2 0x743 JUMP JUMPDEST PUSH1 0x0 PUSH2 0x1A0F DUP4 DUP4 PUSH2 0x11E3 JUMP JUMPDEST ISZERO PUSH2 0x19FB JUMPI PUSH1 0x0 DUP4 DUP2 MSTORE PUSH1 0x20 DUP2 DUP2 MSTORE PUSH1 0x40 DUP1 DUP4 KECCAK256 PUSH1 0x1 PUSH1 0x1 PUSH1 0xA0 SHL SUB DUP7 AND DUP1 DUP6 MSTORE SWAP3 MSTORE DUP1 DUP4 KECCAK256 DUP1 SLOAD PUSH1 0xFF NOT AND SWAP1 SSTORE MLOAD CALLER SWAP3 DUP7 SWAP2 PUSH32 0xF6391F5C32D9C69D2A47EA670B442974B53935D1EDC7FD64EB21E047A839171B SWAP2 SWAP1 LOG4 POP PUSH1 0x1 PUSH2 0x743 JUMP JUMPDEST PUSH1 0x0 PUSH2 0x743 PUSH2 0x1A7B PUSH2 0x1DE3 JUMP JUMPDEST DUP4 PUSH1 0x40 MLOAD PUSH2 0x1901 PUSH1 0xF0 SHL DUP2 MSTORE PUSH1 0x2 DUP2 ADD SWAP3 SWAP1 SWAP3 MSTORE PUSH1 0x22 DUP3 ADD MSTORE PUSH1 0x42 SWAP1 KECCAK256 SWAP1 JUMP JUMPDEST PUSH1 0x0 DUP1 PUSH1 0x0 DUP1 PUSH2 0x1AAB DUP7 DUP7 PUSH2 0x1F0E JUMP JUMPDEST SWAP3 POP SWAP3 POP SWAP3 POP PUSH2 0x1ABB DUP3 DUP3 PUSH2 0x1F5B JUMP JUMPDEST POP SWAP1 SWAP5 SWAP4 POP POP POP POP JUMP JUMPDEST PUSH1 0x0 DUP4 DUP2 MSTORE PUSH1 0x4 PUSH1 0x20 MSTORE PUSH1 0x40 SWAP1 KECCAK256 PUSH1 0x3 DUP2 ADD SLOAD PUSH1 0xFF AND PUSH2 0x1AF8 JUMPI PUSH1 0x40 MLOAD PUSH4 0x79DE4AF5 PUSH1 0xE0 SHL DUP2 MSTORE PUSH1 0x4 ADD PUSH1 0x40 MLOAD DUP1 SWAP2 SUB SWAP1 REVERT JUMPDEST PUSH1 0x1 DUP2 ADD SLOAD PUSH1 0x1 PUSH1 0x1 PUSH1 0xA0 SHL SUB DUP7 DUP2 AND SWAP2 AND EQ PUSH2 0x1B28 JUMPI PUSH1 0x40 MLOAD PUSH4 0xEA8E4EB5 PUSH1 0xE0 SHL DUP2 MSTORE PUSH1 0x4 ADD PUSH1 0x40 MLOAD DUP1 SWAP2 SUB SWAP1 REVERT JUMPDEST PUSH1 0x0 DUP5 DUP2 MSTORE PUSH1 0x5 PUSH1 0x20 MSTORE PUSH1 0x40 SWAP1 KECCAK256 PUSH1 0x3 DUP2 ADD SLOAD PUSH1 0xFF AND DUP1 ISZERO PUSH2 0x1B5B JUMPI POP PUSH3 0x3F480 DUP2 PUSH1 0x2 ADD SLOAD PUSH2 0x1B58 SWAP2 SWAP1 PUSH2 0x2666 JUMP JUMPDEST TIMESTAMP GT JUMPDEST ISZERO PUSH2 0x1B97 JUMPI PUSH1 0x0 DUP6 DUP2 MSTORE PUSH1 0x5 PUSH1 0x20 MSTORE PUSH1 0x40 DUP2 KECCAK256 DUP1 SLOAD PUSH1 0x1 PUSH1 0x1 PUSH1 0xA0 SHL SUB NOT AND DUP2 SSTORE PUSH1 0x1 DUP2 ADD DUP3 SWAP1 SSTORE PUSH1 0x2 DUP2 ADD SWAP2 SWAP1 SWAP2 SSTORE PUSH1 0x3 ADD DUP1 SLOAD PUSH1 0xFF NOT AND SWAP1 SSTORE JUMPDEST PUSH1 0x0 DUP6 DUP2 MSTORE PUSH1 0x5 PUSH1 0x20 MSTORE PUSH1 0x40 SWAP1 KECCAK256 PUSH1 0x3 ADD SLOAD PUSH1 0xFF AND ISZERO PUSH2 0x1BCA JUMPI PUSH1 0x40 MLOAD PUSH4 0xA8B24613 PUSH1 0xE0 SHL DUP2 MSTORE PUSH1 0x4 ADD PUSH1 0x40 MLOAD DUP1 SWAP2 SUB SWAP1 REVERT JUMPDEST PUSH1 0x1 PUSH1 0x1 PUSH1 0xA0 SHL SUB DUP5 AND ISZERO DUP1 PUSH2 0x1BF1 JUMPI POP DUP6 PUSH1 0x1 PUSH1 0x1 PUSH1 0xA0 SHL SUB AND DUP5 PUSH1 0x1 PUSH1 0x1 PUSH1 0xA0 SHL SUB AND EQ JUMPDEST ISZERO PUSH2 0x1C0F JUMPI PUSH1 0x40 MLOAD PUSH4 0x1E4EC46B PUSH1 0xE0 SHL DUP2 MSTORE PUSH1 0x4 ADD PUSH1 0x40 MLOAD DUP1 SWAP2 SUB SWAP1 REVERT JUMPDEST PUSH1 0x0 DUP6 DUP2 MSTORE PUSH1 0x6 PUSH1 0x20 MSTORE PUSH1 0x40 SWAP1 KECCAK256 PUSH1 0x2 ADD SLOAD PUSH1 0xFF AND ISZERO PUSH2 0x1C42 JUMPI PUSH1 0x40 MLOAD PUSH4 0x3B9BA8B PUSH1 0xE3 SHL DUP2 MSTORE PUSH1 0x4 ADD PUSH1 0x40 MLOAD DUP1 SWAP2 SUB SWAP1 REVERT JUMPDEST PUSH1 0x40 DUP1 MLOAD PUSH1 0x80 DUP2 ADD DUP3 MSTORE PUSH1 0x1 PUSH1 0x1 PUSH1 0xA0 SHL SUB DUP7 DUP2 AND DUP1 DUP4 MSTORE PUSH1 0x20 DUP1 DUP5 ADD DUP9 DUP2 MSTORE TIMESTAMP DUP6 DUP8 ADD SWAP1 DUP2 MSTORE PUSH1 0x1 PUSH1 0x60 DUP8 ADD DUP2 DUP2 MSTORE PUSH1 0x0 DUP15 DUP2 MSTORE PUSH1 0x5 DUP7 MSTORE DUP10 SWAP1 KECCAK256 SWAP8 MLOAD DUP9 SLOAD PUSH1 0x1 PUSH1 0x1 PUSH1 0xA0 SHL SUB NOT AND SWAP1 DUP9 AND OR DUP9 SSTORE SWAP3 MLOAD SWAP1 DUP8 ADD SSTORE MLOAD PUSH1 0x2 DUP7 ADD SSTORE MLOAD PUSH1 0x3 SWAP1 SWAP5 ADD DUP1 SLOAD PUSH1 0xFF NOT AND SWAP5 ISZERO ISZERO SWAP5 SWAP1 SWAP5 OR SWAP1 SWAP4 SSTORE SWAP3 MLOAD DUP7 DUP2 MSTORE SWAP1 DUP10 AND SWAP2 DUP9 SWAP2 PUSH32 0xAE06B6DB978FEAC2DEBB593397295212069AB4D158CCC78101767A183E4FEEF3 SWAP2 ADD PUSH1 0x40 MLOAD DUP1 SWAP2 SUB SWAP1 LOG4 DUP6 PUSH1 0x1 PUSH1 0x1 PUSH1 0xA0 SHL SUB AND DUP6 PUSH1 0x0 DUP1 MLOAD PUSH1 0x20 PUSH2 0x26B4 DUP4 CODECOPY DUP2 MLOAD SWAP2 MSTORE DUP6 TIMESTAMP PUSH1 0x40 MLOAD PUSH2 0x9B7 SWAP3 SWAP2 SWAP1 SWAP2 DUP3 MSTORE PUSH1 0x60 PUSH1 0x20 DUP4 ADD DUP2 SWAP1 MSTORE PUSH1 0x12 SWAP1 DUP4 ADD MSTORE PUSH18 0x1514905394D1915497D25392551250551151 PUSH1 0x72 SHL PUSH1 0x80 DUP4 ADD MSTORE PUSH1 0x40 DUP3 ADD MSTORE PUSH1 0xA0 ADD SWAP1 JUMP JUMPDEST PUSH1 0x60 PUSH2 0x1D74 PUSH32 0x0 PUSH1 0x1 PUSH2 0x2014 JUMP JUMPDEST SWAP1 POP SWAP1 JUMP JUMPDEST PUSH1 0x60 PUSH2 0x1D74 PUSH32 0x0 PUSH1 0x2 PUSH2 0x2014 JUMP JUMPDEST PUSH2 0x1DB0 DUP3 DUP3 PUSH2 0x11E3 JUMP JUMPDEST PUSH2 0x1DDF JUMPI PUSH1 0x40 MLOAD PUSH4 0xE2517D3F PUSH1 0xE0 SHL DUP2 MSTORE PUSH1 0x1 PUSH1 0x1 PUSH1 0xA0 SHL SUB DUP3 AND PUSH1 0x4 DUP3 ADD MSTORE PUSH1 0x24 DUP2 ADD DUP4 SWAP1 MSTORE PUSH1 0x44 ADD PUSH2 0x8C5 JUMP JUMPDEST POP POP JUMP JUMPDEST PUSH1 0x0 ADDRESS PUSH1 0x1 PUSH1 0x1 PUSH1 0xA0 SHL SUB PUSH32 0x0 AND EQ DUP1 ISZERO PUSH2 0x1E3C JUMPI POP PUSH32 0x0 CHAINID EQ JUMPDEST ISZERO PUSH2 0x1E66 JUMPI POP PUSH32 0x0 SWAP1 JUMP JUMPDEST PUSH2 0x1D74 PUSH1 0x40 DUP1 MLOAD PUSH32 0x8B73C3C69BB8FE3D512ECC4CF759CC79239F7B179B0FFACAA9A75D522B39400F PUSH1 0x20 DUP3 ADD MSTORE PUSH32 0x0 SWAP2 DUP2 ADD SWAP2 SWAP1 SWAP2 MSTORE PUSH32 0x0 PUSH1 0x60 DUP3 ADD MSTORE CHAINID PUSH1 0x80 DUP3 ADD MSTORE ADDRESS PUSH1 0xA0 DUP3 ADD MSTORE PUSH1 0x0 SWAP1 PUSH1 0xC0 ADD PUSH1 0x40 MLOAD PUSH1 0x20 DUP2 DUP4 SUB SUB DUP2 MSTORE SWAP1 PUSH1 0x40 MSTORE DUP1 MLOAD SWAP1 PUSH1 0x20 ADD KECCAK256 SWAP1 POP SWAP1 JUMP JUMPDEST PUSH1 0x0 DUP1 PUSH1 0x0 DUP4 MLOAD PUSH1 0x41 SUB PUSH2 0x1F48 JUMPI PUSH1 0x20 DUP5 ADD MLOAD PUSH1 0x40 DUP6 ADD MLOAD PUSH1 0x60 DUP7 ADD MLOAD PUSH1 0x0 BYTE PUSH2 0x1F3A DUP9 DUP3 DUP6 DUP6 PUSH2 0x20BF JUMP JUMPDEST SWAP6 POP SWAP6 POP SWAP6 POP POP POP POP PUSH2 0x1F54 JUMP JUMPDEST POP POP DUP2 MLOAD PUSH1 0x0 SWAP2 POP PUSH1 0x2 SWAP1 JUMPDEST SWAP3 POP SWAP3 POP SWAP3 JUMP JUMPDEST PUSH1 0x0 DUP3 PUSH1 0x3 DUP2 GT ISZERO PUSH2 0x1F6F JUMPI PUSH2 0x1F6F PUSH2 0x2650 JUMP JUMPDEST SUB PUSH2 0x1F78 JUMPI POP POP JUMP JUMPDEST PUSH1 0x1 DUP3 PUSH1 0x3 DUP2 GT ISZERO PUSH2 0x1F8C JUMPI PUSH2 0x1F8C PUSH2 0x2650 JUMP JUMPDEST SUB PUSH2 0x1FAA JUMPI PUSH1 0x40 MLOAD PUSH4 0xF645EEDF PUSH1 0xE0 SHL DUP2 MSTORE PUSH1 0x4 ADD PUSH1 0x40 MLOAD DUP1 SWAP2 SUB SWAP1 REVERT JUMPDEST PUSH1 0x2 DUP3 PUSH1 0x3 DUP2 GT ISZERO PUSH2 0x1FBE JUMPI PUSH2 0x1FBE PUSH2 0x2650 JUMP JUMPDEST SUB PUSH2 0x1FDF JUMPI PUSH1 0x40 MLOAD PUSH4 0xFCE698F7 PUSH1 0xE0 SHL DUP2 MSTORE PUSH1 0x4 DUP2 ADD DUP3 SWAP1 MSTORE PUSH1 0x24 ADD PUSH2 0x8C5 JUMP JUMPDEST PUSH1 0x3 DUP3 PUSH1 0x3 DUP2 GT ISZERO PUSH2 0x1FF3 JUMPI PUSH2 0x1FF3 PUSH2 0x2650 JUMP JUMPDEST SUB PUSH2 0x1DDF JUMPI PUSH1 0x40 MLOAD PUSH4 0x35E2F383 PUSH1 0xE2 SHL DUP2 MSTORE PUSH1 0x4 DUP2 ADD DUP3 SWAP1 MSTORE PUSH1 0x24 ADD PUSH2 0x8C5 JUMP JUMPDEST PUSH1 0x60 PUSH1 0xFF DUP4 EQ PUSH2 0x202E JUMPI PUSH2 0x2027 DUP4 PUSH2 0x218E JUMP JUMPDEST SWAP1 POP PUSH2 0x743 JUMP JUMPDEST DUP2 DUP1 SLOAD PUSH2 0x203A SWAP1 PUSH2 0x2679 JUMP JUMPDEST DUP1 PUSH1 0x1F ADD PUSH1 0x20 DUP1 SWAP2 DIV MUL PUSH1 0x20 ADD PUSH1 0x40 MLOAD SWAP1 DUP2 ADD PUSH1 0x40 MSTORE DUP1 SWAP3 SWAP2 SWAP1 DUP2 DUP2 MSTORE PUSH1 0x20 ADD DUP3 DUP1 SLOAD PUSH2 0x2066 SWAP1 PUSH2 0x2679 JUMP JUMPDEST DUP1 ISZERO PUSH2 0x20B3 JUMPI DUP1 PUSH1 0x1F LT PUSH2 0x2088 JUMPI PUSH2 0x100 DUP1 DUP4 SLOAD DIV MUL DUP4 MSTORE SWAP2 PUSH1 0x20 ADD SWAP2 PUSH2 0x20B3 JUMP JUMPDEST DUP3 ADD SWAP2 SWAP1 PUSH1 0x0 MSTORE PUSH1 0x20 PUSH1 0x0 KECCAK256 SWAP1 JUMPDEST DUP2 SLOAD DUP2 MSTORE SWAP1 PUSH1 0x1 ADD SWAP1 PUSH1 0x20 ADD DUP1 DUP4 GT PUSH2 0x2096 JUMPI DUP3 SWAP1 SUB PUSH1 0x1F AND DUP3 ADD SWAP2 JUMPDEST POP POP POP POP POP SWAP1 POP PUSH2 0x743 JUMP JUMPDEST PUSH1 0x0 DUP1 DUP1 PUSH32 0x7FFFFFFFFFFFFFFFFFFFFFFFFFFFFFFF5D576E7357A4501DDFE92F46681B20A0 DUP5 GT ISZERO PUSH2 0x20FA JUMPI POP PUSH1 0x0 SWAP2 POP PUSH1 0x3 SWAP1 POP DUP3 PUSH2 0x2184 JUMP JUMPDEST PUSH1 0x40 DUP1 MLOAD PUSH1 0x0 DUP1 DUP3 MSTORE PUSH1 0x20 DUP3 ADD DUP1 DUP5 MSTORE DUP11 SWAP1 MSTORE PUSH1 0xFF DUP10 AND SWAP3 DUP3 ADD SWAP3 SWAP1 SWAP3 MSTORE PUSH1 0x60 DUP2 ADD DUP8 SWAP1 MSTORE PUSH1 0x80 DUP2 ADD DUP7 SWAP1 MSTORE PUSH1 0x1 SWAP1 PUSH1 0xA0 ADD PUSH1 0x20 PUSH1 0x40 MLOAD PUSH1 0x20 DUP2 SUB SWAP1 DUP1 DUP5 SUB SWAP1 DUP6 GAS STATICCALL ISZERO DUP1 ISZERO PUSH2 0x214E JUMPI RETURNDATASIZE PUSH1 0x0 DUP1 RETURNDATACOPY RETURNDATASIZE PUSH1 0x0 REVERT JUMPDEST POP POP PUSH1 0x40 MLOAD PUSH1 0x1F NOT ADD MLOAD SWAP2 POP POP PUSH1 0x1 PUSH1 0x1 PUSH1 0xA0 SHL SUB DUP2 AND PUSH2 0x217A JUMPI POP PUSH1 0x0 SWAP3 POP PUSH1 0x1 SWAP2 POP DUP3 SWAP1 POP PUSH2 0x2184 JUMP JUMPDEST SWAP3 POP PUSH1 0x0 SWAP2 POP DUP2 SWAP1 POP JUMPDEST SWAP5 POP SWAP5 POP SWAP5 SWAP2 POP POP JUMP JUMPDEST PUSH1 0x60 PUSH1 0x0 PUSH2 0x219B DUP4 PUSH2 0x21CD JUMP JUMPDEST PUSH1 0x40 DUP1 MLOAD PUSH1 0x20 DUP1 DUP3 MSTORE DUP2 DUP4 ADD SWAP1 SWAP3 MSTORE SWAP2 SWAP3 POP PUSH1 0x0 SWAP2 SWAP1 PUSH1 0x20 DUP3 ADD DUP2 DUP1 CALLDATASIZE DUP4 CALLDATACOPY POP POP POP SWAP2 DUP3 MSTORE POP PUSH1 0x20 DUP2 ADD SWAP3 SWAP1 SWAP3 MSTORE POP SWAP1 JUMP JUMPDEST PUSH1 0x0 PUSH1 0xFF DUP3 AND PUSH1 0x1F DUP2 GT ISZERO PUSH2 0x743 JUMPI PUSH1 0x40 MLOAD PUSH4 0x2CD44AC3 PUSH1 0xE2 SHL DUP2 MSTORE PUSH1 0x4 ADD PUSH1 0x40 MLOAD DUP1 SWAP2 SUB SWAP1 REVERT JUMPDEST PUSH1 0x0 PUSH1 0x20 DUP3 DUP5 SUB SLT ISZERO PUSH2 0x2207 JUMPI PUSH1 0x0 DUP1 REVERT JUMPDEST DUP2 CALLDATALOAD PUSH1 0x1 PUSH1 0x1 PUSH1 0xE0 SHL SUB NOT DUP2 AND DUP2 EQ PUSH2 0x221F JUMPI PUSH1 0x0 DUP1 REVERT JUMPDEST SWAP4 SWAP3 POP POP POP JUMP JUMPDEST PUSH1 0x0 PUSH1 0x20 DUP3 DUP5 SUB SLT ISZERO PUSH2 0x2238 JUMPI PUSH1 0x0 DUP1 REVERT JUMPDEST POP CALLDATALOAD SWAP2 SWAP1 POP JUMP JUMPDEST DUP1 CALLDATALOAD PUSH1 0x1 PUSH1 0x1 PUSH1 0xA0 SHL SUB DUP2 AND DUP2 EQ PUSH2 0x2256 JUMPI PUSH1 0x0 DUP1 REVERT JUMPDEST SWAP2 SWAP1 POP JUMP JUMPDEST PUSH1 0x0 DUP1 PUSH1 0x40 DUP4 DUP6 SUB SLT ISZERO PUSH2 0x226E JUMPI PUSH1 0x0 DUP1 REVERT JUMPDEST DUP3 CALLDATALOAD SWAP2 POP PUSH2 0x227E PUSH1 0x20 DUP5 ADD PUSH2 0x223F JUMP JUMPDEST SWAP1 POP SWAP3 POP SWAP3 SWAP1 POP JUMP JUMPDEST PUSH1 0x0 DUP2 MLOAD DUP1 DUP5 MSTORE PUSH1 0x0 JUMPDEST DUP2 DUP2 LT ISZERO PUSH2 0x22AD JUMPI PUSH1 0x20 DUP2 DUP6 ADD DUP2 ADD MLOAD DUP7 DUP4 ADD DUP3 ADD MSTORE ADD PUSH2 0x2291 JUMP JUMPDEST POP PUSH1 0x0 PUSH1 0x20 DUP3 DUP7 ADD ADD MSTORE PUSH1 0x20 PUSH1 0x1F NOT PUSH1 0x1F DUP4 ADD AND DUP6 ADD ADD SWAP2 POP POP SWAP3 SWAP2 POP POP JUMP JUMPDEST PUSH1 0x20 DUP2 MSTORE PUSH1 0x0 PUSH2 0x221F PUSH1 0x20 DUP4 ADD DUP5 PUSH2 0x2287 JUMP JUMPDEST PUSH1 0x0 DUP1 DUP4 PUSH1 0x1F DUP5 ADD SLT PUSH2 0x22F2 JUMPI PUSH1 0x0 DUP1 REVERT JUMPDEST POP DUP2 CALLDATALOAD PUSH8 0xFFFFFFFFFFFFFFFF DUP2 GT ISZERO PUSH2 0x230A JUMPI PUSH1 0x0 DUP1 REVERT JUMPDEST PUSH1 0x20 DUP4 ADD SWAP2 POP DUP4 PUSH1 0x20 DUP3 DUP6 ADD ADD GT ISZERO PUSH2 0x2322 JUMPI PUSH1 0x0 DUP1 REVERT JUMPDEST SWAP3 POP SWAP3 SWAP1 POP JUMP JUMPDEST PUSH1 0x0 DUP1 PUSH1 0x0 DUP1 PUSH1 0x0 DUP1 PUSH1 0x0 DUP1 PUSH1 0xE0 DUP10 DUP12 SUB SLT ISZERO PUSH2 0x2345 JUMPI PUSH1 0x0 DUP1 REVERT JUMPDEST PUSH2 0x234E DUP10 PUSH2 0x223F JUMP JUMPDEST SWAP8 POP PUSH1 0x20 DUP10 ADD CALLDATALOAD SWAP7 POP PUSH2 0x2363 PUSH1 0x40 DUP11 ADD PUSH2 0x223F JUMP JUMPDEST SWAP6 POP PUSH1 0x60 DUP10 ADD CALLDATALOAD SWAP5 POP PUSH1 0x80 DUP10 ADD CALLDATALOAD SWAP4 POP PUSH1 0xA0 DUP10 ADD CALLDATALOAD SWAP3 POP PUSH1 0xC0 DUP10 ADD CALLDATALOAD PUSH8 0xFFFFFFFFFFFFFFFF DUP2 GT ISZERO PUSH2 0x2394 JUMPI PUSH1 0x0 DUP1 REVERT JUMPDEST PUSH2 0x23A0 DUP12 DUP3 DUP13 ADD PUSH2 0x22E0 JUMP JUMPDEST SWAP10 SWAP13 SWAP9 SWAP12 POP SWAP7 SWAP10 POP SWAP5 SWAP8 SWAP4 SWAP7 SWAP3 SWAP6 SWAP5 POP POP POP JUMP JUMPDEST PUSH1 0x0 PUSH1 0x20 DUP3 DUP5 SUB SLT ISZERO PUSH2 0x23C6 JUMPI PUSH1 0x0 DUP1 REVERT JUMPDEST PUSH2 0x221F DUP3 PUSH2 0x223F JUMP JUMPDEST PUSH1 0x0 DUP1 PUSH1 0x0 DUP1 PUSH1 0x0 PUSH1 0x80 DUP7 DUP9 SUB SLT ISZERO PUSH2 0x23E7 JUMPI PUSH1 0x0 DUP1 REVERT JUMPDEST DUP6 CALLDATALOAD SWAP5 POP PUSH1 0x20 DUP7 ADD CALLDATALOAD SWAP4 POP PUSH1 0x40 DUP7 ADD CALLDATALOAD SWAP3 POP PUSH1 0x60 DUP7 ADD CALLDATALOAD PUSH8 0xFFFFFFFFFFFFFFFF DUP2 GT ISZERO PUSH2 0x2413 JUMPI PUSH1 0x0 DUP1 REVERT JUMPDEST PUSH2 0x241F DUP9 DUP3 DUP10 ADD PUSH2 0x22E0 JUMP JUMPDEST SWAP7 SWAP10 SWAP6 SWAP9 POP SWAP4 SWAP7 POP SWAP3 SWAP5 SWAP4 SWAP3 POP POP POP JUMP JUMPDEST PUSH1 0x0 DUP1 PUSH1 0x40 DUP4 DUP6 SUB SLT ISZERO PUSH2 0x2443 JUMPI PUSH1 0x0 DUP1 REVERT JUMPDEST POP POP DUP1 CALLDATALOAD SWAP3 PUSH1 0x20 SWAP1 SWAP2 ADD CALLDATALOAD SWAP2 POP JUMP JUMPDEST PUSH1 0xFF PUSH1 0xF8 SHL DUP9 AND DUP2 MSTORE PUSH1 0x0 PUSH1 0x20 PUSH1 0xE0 PUSH1 0x20 DUP5 ADD MSTORE PUSH2 0x2473 PUSH1 0xE0 DUP5 ADD DUP11 PUSH2 0x2287 JUMP JUMPDEST DUP4 DUP2 SUB PUSH1 0x40 DUP6 ADD MSTORE PUSH2 0x2485 DUP2 DUP11 PUSH2 0x2287 JUMP JUMPDEST PUSH1 0x60 DUP6 ADD DUP10 SWAP1 MSTORE PUSH1 0x1 PUSH1 0x1 PUSH1 0xA0 SHL SUB DUP9 AND PUSH1 0x80 DUP7 ADD MSTORE PUSH1 0xA0 DUP6 ADD DUP8 SWAP1 MSTORE DUP5 DUP2 SUB PUSH1 0xC0 DUP7 ADD MSTORE DUP6 MLOAD DUP1 DUP3 MSTORE PUSH1 0x20 DUP1 DUP9 ADD SWAP4 POP SWAP1 SWAP2 ADD SWAP1 PUSH1 0x0 JUMPDEST DUP2 DUP2 LT ISZERO PUSH2 0x24D9 JUMPI DUP4 MLOAD DUP4 MSTORE SWAP3 DUP5 ADD SWAP3 SWAP2 DUP5 ADD SWAP2 PUSH1 0x1 ADD PUSH2 0x24BD JUMP JUMPDEST POP SWAP1 SWAP13 SWAP12 POP POP POP POP POP POP POP POP POP POP POP POP JUMP JUMPDEST PUSH1 0x1 DUP1 PUSH1 0xA0 SHL SUB DUP7 AND DUP2 MSTORE DUP5 PUSH1 0x20 DUP3 ADD MSTORE DUP4 PUSH1 0x40 DUP3 ADD MSTORE DUP3 PUSH1 0x60 DUP3 ADD MSTORE PUSH1 0xA0 PUSH1 0x80 DUP3 ADD MSTORE PUSH1 0x0 PUSH2 0x251E PUSH1 0xA0 DUP4 ADD DUP5 PUSH2 0x2287 JUMP JUMPDEST SWAP8 SWAP7 POP POP POP POP POP POP POP JUMP JUMPDEST PUSH1 0x0 DUP1 PUSH1 0x0 DUP1 PUSH1 0x0 DUP1 PUSH1 0x0 PUSH1 0xC0 DUP9 DUP11 SUB SLT ISZERO PUSH2 0x2544 JUMPI PUSH1 0x0 DUP1 REVERT JUMPDEST DUP8 CALLDATALOAD SWAP7 POP PUSH2 0x2554 PUSH1 0x20 DUP10 ADD PUSH2 0x223F JUMP JUMPDEST SWAP6 POP PUSH1 0x40 DUP9 ADD CALLDATALOAD SWAP5 POP PUSH1 0x60 DUP9 ADD CALLDATALOAD SWAP4 POP PUSH1 0x80 DUP9 ADD CALLDATALOAD SWAP3 POP PUSH1 0xA0 DUP9 ADD CALLDATALOAD PUSH8 0xFFFFFFFFFFFFFFFF DUP2 GT ISZERO PUSH2 0x2585 JUMPI PUSH1 0x0 DUP1 REVERT JUMPDEST PUSH2 0x2591 DUP11 DUP3 DUP12 ADD PUSH2 0x22E0 JUMP JUMPDEST SWAP9 SWAP12 SWAP8 SWAP11 POP SWAP6 SWAP9 POP SWAP4 SWAP7 SWAP3 SWAP6 SWAP3 SWAP4 POP POP POP JUMP JUMPDEST PUSH1 0x0 DUP1 PUSH1 0x0 PUSH1 0x60 DUP5 DUP7 SUB SLT ISZERO PUSH2 0x25B9 JUMPI PUSH1 0x0 DUP1 REVERT JUMPDEST POP POP DUP2 CALLDATALOAD SWAP4 PUSH1 0x20 DUP4 ADD CALLDATALOAD SWAP4 POP PUSH1 0x40 SWAP1 SWAP3 ADD CALLDATALOAD SWAP2 SWAP1 POP JUMP JUMPDEST PUSH1 0x0 DUP1 PUSH1 0x0 PUSH1 0x60 DUP5 DUP7 SUB SLT ISZERO PUSH2 0x25E5 JUMPI PUSH1 0x0 DUP1 REVERT JUMPDEST DUP4 CALLDATALOAD SWAP3 POP PUSH2 0x25F5 PUSH1 0x20 DUP6 ADD PUSH2 0x223F JUMP JUMPDEST SWAP2 POP PUSH1 0x40 DUP5 ADD CALLDATALOAD SWAP1 POP SWAP3 POP SWAP3 POP SWAP3 JUMP JUMPDEST PUSH4 0x4E487B71 PUSH1 0xE0 SHL PUSH1 0x0 MSTORE PUSH1 0x11 PUSH1 0x4 MSTORE PUSH1 0x24 PUSH1 0x0 REVERT JUMPDEST PUSH1 0x0 DUP3 PUSH2 0x2638 JUMPI PUSH4 0x4E487B71 PUSH1 0xE0 SHL PUSH1 0x0 MSTORE PUSH1 0x12 PUSH1 0x4 MSTORE PUSH1 0x24 PUSH1 0x0 REVERT JUMPDEST POP DIV SWAP1 JUMP JUMPDEST DUP2 DUP2 SUB DUP2 DUP2 GT ISZERO PUSH2 0x743 JUMPI PUSH2 0x743 PUSH2 0x2605 JUMP JUMPDEST PUSH4 0x4E487B71 PUSH1 0xE0 SHL PUSH1 0x0 MSTORE PUSH1 0x21 PUSH1 0x4 MSTORE PUSH1 0x24 PUSH1 0x0 REVERT JUMPDEST DUP1 DUP3 ADD DUP1 DUP3 GT ISZERO PUSH2 0x743 JUMPI PUSH2 0x743 PUSH2 0x2605 JUMP JUMPDEST PUSH1 0x1 DUP2 DUP2 SHR SWAP1 DUP3 AND DUP1 PUSH2 0x268D JUMPI PUSH1 0x7F DUP3 AND SWAP2 POP JUMPDEST PUSH1 0x20 DUP3 LT DUP2 SUB PUSH2 0x26AD JUMPI PUSH4 0x4E487B71 PUSH1 0xE0 SHL PUSH1 0x0 MSTORE PUSH1 0x22 PUSH1 0x4 MSTORE PUSH1 0x24 PUSH1 0x0 REVERT JUMPDEST POP SWAP2 SWAP1 POP JUMP INVALID 0x2C DELEGATECALL RETURNDATACOPY SLOAD 0xAC MSIZE PUSH1 0x9D MSIZE 0xD2 PUSH18 0xE77D37CE95C39198791320D279C5CFFBA46C 0xC 0xB2 0xC6 LOG2 PUSH5 0x6970667358 0x22 SLT KECCAK256 DUP16 MUL CALLER 0xA5 SUB DUP15 0xAA DUP7 0xB7 PUSH19 0xE0CD9A5418E863D2BABF5379E5C825B662FDA2 0xEC TIMESTAMP 0xD4 PUSH5 0x736F6C6343 STOP ADDMOD XOR STOP CALLER "},"methodIdentifiers":{"DEFAULT_ADMIN_ROLE()":"a217fddf","DISTRIBUTOR()":"9c26149f","INSPECTOR()":"797d7cc9","MANUFACTURER()":"49ec99ee","TRANSFER_TIMEOUT()":"87065deb","acceptTransfer(uint256)":"274fae7c","acceptTransferWithSig(uint256,uint256,uint256,bytes)":"4fbf313b","approveRelayer(address)":"4fab0a54","approvedRelayers(address)":"8cba8b6a","batches(uint256)":"b32c4d8d","eip712Domain()":"84b0196e","executeMetaTx(address,uint256,address,bytes32,uint256,uint256,bytes)":"4e99b86f","getBatchMetadata(uint256)":"9912627f","getBatchProductCount(uint256)":"0772d2d7","getBatchStatus(uint256)":"2d1bbc8e","getRoleAdmin(bytes32)":"248a9ca3","grantRole(bytes32,address)":"2f2ff15d","grantRoleSafe(bytes32,address)":"d5afc4b4","hasRole(bytes32,address)":"91d14854","initiateTransfer(uint256,address,bytes32)":"de901eae","initiateTransferWithSig(uint256,address,bytes32,uint256,uint256,bytes)":"cd407f37","isDisputeActive(uint256)":"1deeca10","mintProduct(uint256,uint256,bytes32)":"d1685cc0","nonces(address)":"7ecebe00","ownerOf(uint256)":"6352211e","productBatch(uint256)":"b35eee19","raiseDispute(uint256,bytes32)":"636bf26d","registerBatch(uint256,uint256)":"656e49fa","renounceRole(bytes32,address)":"36568abe","resolveDispute(uint256,address)":"0e33599d","revokeRole(bytes32,address)":"d547741f","supportsInterface(bytes4)":"01ffc9a7"}}}}}