{"contracts/SupplyChain.sol":{"SupplyChain":{"abi":[{"inputs":[{"internalType":"address","name":"admin","type":"address"}],"stateMutability":"nonpayable","type":"constructor"},{"inputs":[],"name":"AccessControlBadConfirmation","type":"error"},{"inputs":[{"internalType":"address","name":"account","type":"address"},{"internalType":"bytes32","name":"neededRole","type":"bytes32"}],"name":"AccessControlUnauthorizedAccount","type":"error"},{"inputs":[],"name":"BatchAlreadyRegistered","type":"error"},{"inputs":[],"name":"BatchLimitReached","type":"error"},{"inputs":[],"name":"BatchNotActive","type":"error"},{"inputs":[],"name":"DeadlineExpired","type":"error"},{"inputs":[],"name":"ECDSAInvalidSignature","type":"error"},{"inputs":[{"internalType":"uint256","name":"length","type":"uint256"}],"name":"ECDSAInvalidSignatureLength","type":"error"},{"inputs":[{"internalType":"bytes32","name":"s","type":"bytes32"}],"name":"ECDSAInvalidSignatureS","type":"error"},{"inputs":[],"name":"InvalidBatch","type":"error"},{"inputs":[],"name":"InvalidReceiver","type":"error"},{"inputs":[],"name":"InvalidShortString","type":"error"},{"inputs":[],"name":"InvalidSignature","type":"error"},{"inputs":[],"name":"NoPendingTransfer","type":"error"},{"inputs":[],"name":"NotAuthorized","type":"error"},{"inputs":[],"name":"ProductAlreadyExists","type":"error"},{"inputs":[],"name":"ProductNotFound","type":"error"},{"inputs":[],"name":"StakeRequired","type":"error"},{"inputs":[{"internalType":"string","name":"str","type":"string"}],"name":"StringTooLong","type":"error"},{"inputs":[],"name":"TransferAlreadyPending","type":"error"},{"anonymous":false,"inputs":[{"indexed":true,"internalType":"uint256","name":"batchId","type":"uint256"},{"indexed":true,"internalType":"address","name":"manufacturer","type":"address"},{"indexed":false,"internalType":"uint256","name":"maxUnits","type":"uint256"},{"indexed":false,"internalType":"uint256","name":"stake","type":"uint256"}],"name":"BatchRegistered","type":"event"},{"anonymous":false,"inputs":[{"indexed":true,"internalType":"uint256","name":"batchId","type":"uint256"},{"indexed":false,"internalType":"string","name":"status","type":"string"},{"indexed":false,"internalType":"uint256","name":"timestamp","type":"uint256"}],"name":"BatchStatusChanged","type":"event"},{"anonymous":false,"inputs":[],"name":"EIP712DomainChanged","type":"event"},{"anonymous":false,"inputs":[{"indexed":true,"internalType":"uint256","name":"productId","type":"uint256"},{"indexed":true,"internalType":"uint256","name":"batchId","type":"uint256"},{"indexed":true,"internalType":"address","name":"owner","type":"address"},{"indexed":false,"internalType":"bytes32","name":"metadataHash","type":"bytes32"}],"name":"ProductMinted","type":"event"},{"anonymous":false,"inputs":[{"indexed":true,"internalType":"uint256","name":"productId","type":"uint256"},{"indexed":true,"internalType":"address","name":"handler","type":"address"},{"indexed":false,"internalType":"bytes32","name":"locationHash","type":"bytes32"},{"indexed":false,"internalType":"string","name":"action","type":"string"},{"indexed":false,"internalType":"uint256","name":"timestamp","type":"uint256"}],"name":"ProvenanceRecorded","type":"event"},{"anonymous":false,"inputs":[{"indexed":true,"internalType":"bytes32","name":"role","type":"bytes32"},{"indexed":true,"internalType":"bytes32","name":"previousAdminRole","type":"bytes32"},{"indexed":true,"internalType":"bytes32","name":"newAdminRole","type":"bytes32"}],"name":"RoleAdminChanged","type":"event"},{"anonymous":false,"inputs":[{"indexed":true,"internalType":"bytes32","name":"role","type":"bytes32"},{"indexed":true,"internalType":"address","name":"account","type":"address"},{"indexed":true,"internalType":"address","name":"sender","type":"address"}],"name":"RoleGranted","type":"event"},{"anonymous":false,"inputs":[{"indexed":true,"internalType":"bytes32","name":"role","type":"bytes32"},{"indexed":true,"internalType":"address","name":"account","type":"address"},{"indexed":true,"internalType":"address","name":"sender","type":"address"}],"name":"RoleRevoked","type":"event"},{"anonymous":false,"inputs":[{"indexed":true,"internalType":"uint256","name":"productId","type":"uint256"},{"indexed":true,"internalType":"address","name":"from","type":"address"},{"indexed":true,"internalType":"address","name":"to","type":"address"}],"name":"TransferAccepted","type":"event"},{"anonymous":false,"inputs":[{"indexed":true,"internalType":"uint256","name":"productId","type":"uint256"},{"indexed":true,"internalType":"address","name":"from","type":"address"},{"indexed":true,"internalType":"address","name":"to","type":"address"},{"indexed":false,"internalType":"bytes32","name":"locationHash","type":"bytes32"}],"name":"TransferInitiated","type":"event"},{"inputs":[],"name":"DEFAULT_ADMIN_ROLE","outputs":[{"internalType":"bytes32","name":"","type":"bytes32"}],"stateMutability":"view","type":"function"},{"inputs":[],"name":"DISTRIBUTOR","outputs":[{"internalType":"bytes32","name":"","type":"bytes32"}],"stateMutability":"view","type":"function"},{"inputs":[],"name":"INSPECTOR","outputs":[{"internalType":"bytes32","name":"","type":"bytes32"}],"stateMutability":"view","type":"function"},{"inputs":[],"name":"MANUFACTURER","outputs":[{"internalType":"bytes32","name":"","type":"bytes32"}],"stateMutability":"view","type":"function"},{"inputs":[{"internalType":"uint256","name":"productId","type":"uint256"}],"name":"acceptTransfer","outputs":[],"stateMutability":"nonpayable","type":"function"},{"inputs":[{"internalType":"uint256","name":"productId","type":"uint256"},{"internalType":"uint256","name":"nonce","type":"uint256"},{"internalType":"uint256","name":"deadline","type":"uint256"},{"internalType":"bytes","name":"signature","type":"bytes"}],"name":"acceptTransferWithSig","outputs":[],"stateMutability":"nonpayable","type":"function"},{"inputs":[{"internalType":"uint256","name":"","type":"uint256"}],"name":"batches","outputs":[{"internalType":"address","name":"manufacturer","type":"address"},{"internalType":"uint256","name":"maxUnits","type":"uint256"},{"internalType":"uint256","name":"minted","type":"uint256"},{"internalType":"uint256","name":"stake","type":"uint256"},{"internalType":"bool","name":"active","type":"bool"}],"stateMutability":"view","type":"function"},{"inputs":[],"name":"eip712Domain","outputs":[{"internalType":"bytes1","name":"fields","type":"bytes1"},{"internalType":"string","name":"name","type":"string"},{"internalType":"string","name":"version","type":"string"},{"internalType":"uint256","name":"chainId","type":"uint256"},{"internalType":"address","name":"verifyingContract","type":"address"},{"internalType":"bytes32","name":"salt","type":"bytes32"},{"internalType":"uint256[]","name":"extensions","type":"uint256[]"}],"stateMutability":"view","type":"function"},{"inputs":[{"internalType":"uint256","name":"batchId","type":"uint256"}],"name":"getBatchMetadata","outputs":[{"internalType":"address","name":"manufacturer","type":"address"},{"internalType":"uint256","name":"maxUnits","type":"uint256"},{"internalType":"uint256","name":"minted","type":"uint256"},{"internalType":"uint256","name":"stake","type":"uint256"},{"internalType":"string","name":"status","type":"string"}],"stateMutability":"view","type":"function"},{"inputs":[{"internalType":"uint256","name":"batchId","type":"uint256"}],"name":"getBatchProductCount","outputs":[{"internalType":"uint256","name":"","type":"uint256"}],"stateMutability":"view","type":"function"},{"inputs":[{"internalType":"uint256","name":"batchId","type":"uint256"}],"name":"getBatchStatus","outputs":[{"internalType":"string","name":"","type":"string"}],"stateMutability":"view","type":"function"},{"inputs":[{"internalType":"uint256","name":"productId","type":"uint256"}],"name":"getProductHistory","outputs":[{"internalType":"address","name":"owner","type":"address"},{"internalType":"uint256","name":"batchId","type":"uint256"},{"internalType":"bytes32","name":"metadataHash","type":"bytes32"},{"internalType":"address[]","name":"previousOwners","type":"address[]"}],"stateMutability":"view","type":"function"},{"inputs":[{"internalType":"uint256","name":"productId","type":"uint256"}],"name":"getProductProvenance","outputs":[{"internalType":"address[]","name":"handlers","type":"address[]"},{"internalType":"bytes32[]","name":"locations","type":"bytes32[]"},{"internalType":"string[]","name":"actions","type":"string[]"},{"internalType":"uint256[]","name":"timestamps","type":"uint256[]"}],"stateMutability":"view","type":"function"},{"inputs":[{"internalType":"bytes32","name":"role","type":"bytes32"}],"name":"getRoleAdmin","outputs":[{"internalType":"bytes32","name":"","type":"bytes32"}],"stateMutability":"view","type":"function"},{"inputs":[{"internalType":"bytes32","name":"role","type":"bytes32"},{"internalType":"address","name":"account","type":"address"}],"name":"grantRole","outputs":[],"stateMutability":"nonpayable","type":"function"},{"inputs":[{"internalType":"bytes32","name":"role","type":"bytes32"},{"internalType":"address","name":"account","type":"address"}],"name":"grantRoleSafe","outputs":[],"stateMutability":"nonpayable","type":"function"},{"inputs":[{"internalType":"bytes32","name":"role","type":"bytes32"},{"internalType":"address","name":"account","type":"address"}],"name":"hasRole","outputs":[{"internalType":"bool","name":"","type":"bool"}],"stateMutability":"view","type":"function"},{"inputs":[{"internalType":"uint256","name":"productId","type":"uint256"},{"internalType":"address","name":"to","type":"address"},{"internalType":"bytes32","name":"locationHash","type":"bytes32"}],"name":"initiateTransfer","outputs":[],"stateMutability":"nonpayable","type":"function"},{"inputs":[{"internalType":"uint256","name":"productId","type":"uint256"},{"internalType":"address","name":"to","type":"address"},{"internalType":"bytes32","name":"locationHash","type":"bytes32"},{"internalType":"uint256","name":"nonce","type":"uint256"},{"internalType":"uint256","name":"deadline","type":"uint256"},{"internalType":"bytes","name":"signature","type":"bytes"}],"name":"initiateTransferWithSig","outputs":[],"stateMutability":"nonpayable","type":"function"},{"inputs":[{"internalType":"uint256","name":"productId","type":"uint256"},{"internalType":"uint256","name":"batchId","type":"uint256"},{"internalType":"bytes32","name":"metadataHash","type":"bytes32"}],"name":"mintProduct","outputs":[],"stateMutability":"nonpayable","type":"function"},{"inputs":[{"internalType":"address","name":"","type":"address"}],"name":"nonces","outputs":[{"internalType":"uint256","name":"","type":"uint256"}],"stateMutability":"view","type":"function"},{"inputs":[{"internalType":"uint256","name":"productId","type":"uint256"}],"name":"ownerOf","outputs":[{"internalType":"address","name":"","type":"address"}],"stateMutability":"view","type":"function"},{"inputs":[{"internalType":"uint256","name":"productId","type":"uint256"}],"name":"productBatch","outputs":[{"internalType":"uint256","name":"","type":"uint256"}],"stateMutability":"view","type":"function"},{"inputs":[{"internalType":"uint256","name":"batchId","type":"uint256"},{"internalType":"uint256","name":"maxUnits","type":"uint256"}],"name":"registerBatch","outputs":[],"stateMutability":"payable","type":"function"},{"inputs":[{"internalType":"bytes32","name":"role","type":"bytes32"},{"internalType":"address","name":"callerConfirmation","type":"address"}],"name":"renounceRole","outputs":[],"stateMutability":"nonpayable","type":"function"},{"inputs":[{"internalType":"bytes32","name":"role","type":"bytes32"},{"internalType":"address","name":"account","type":"address"}],"name":"revokeRole","outputs":[],"stateMutability":"nonpayable","type":"function"},{"inputs":[{"internalType":"bytes4","name":"interfaceId","type":"bytes4"}],"name":"supportsInterface","outputs":[{"internalType":"bool","name":"","type":"bool"}],"stateMutability":"view","type":"function"}],"evm":{"bytecode":{"linkReferences":{},"object":"6101606040523480156200001257600080fd5b5060405162002cd238038062002cd2833981016040819052620000359162000279565b6040518060400160405280600b81526020016a29bab838363ca1b430b4b760a91b815250604051806040016040528060018152602001603160f81b815250620000896001836200014660201b90919060201c565b610120526200009a81600262000146565b61014052815160208084019190912060e052815190820120610100524660a0526200012860e05161010051604080517f8b73c3c69bb8fe3d512ecc4cf759cc79239f7b179b0ffacaa9a75d522b39400f60208201529081019290925260608201524660808201523060a082015260009060c00160405160208183030381529060405280519060200120905090565b60805250503060c0526200013e6000826200017f565b505062000494565b600060208351101562000166576200015e836200022d565b905062000179565b8162000173848262000352565b5060ff90505b92915050565b6000828152602081815260408083206001600160a01b038516845290915281205460ff1662000224576000838152602081815260408083206001600160a01b03861684529091529020805460ff19166001179055620001db3390565b6001600160a01b0316826001600160a01b0316847f2f8788117e7eff1d82e926ec794901d17c78024a50270940304540a733656f0d60405160405180910390a450600162000179565b50600062000179565b600080829050601f8151111562000264578260405163305a27a960e01b81526004016200025b91906200041e565b60405180910390fd5b805162000271826200046f565b179392505050565b6000602082840312156200028c57600080fd5b81516001600160a01b0381168114620002a457600080fd5b9392505050565b634e487b7160e01b600052604160045260246000fd5b600181811c90821680620002d657607f821691505b602082108103620002f757634e487b7160e01b600052602260045260246000fd5b50919050565b601f8211156200034d576000816000526020600020601f850160051c81016020861015620003285750805b601f850160051c820191505b81811015620003495782815560010162000334565b5050505b505050565b81516001600160401b038111156200036e576200036e620002ab565b62000386816200037f8454620002c1565b84620002fd565b602080601f831160018114620003be5760008415620003a55750858301515b600019600386901b1c1916600185901b17855562000349565b600085815260208120601f198616915b82811015620003ef57888601518255948401946001909101908401620003ce565b50858210156200040e5787850151600019600388901b60f8161c191681555b5050505050600190811b01905550565b60006020808352835180602085015260005b818110156200044e5785810183015185820160400152820162000430565b506000604082860101526040601f19601f8301168501019250505092915050565b80516020808301519190811015620002f75760001960209190910360031b1b16919050565b60805160a05160c05160e0516101005161012051610140516127e3620004ef6000396000611a27015260006119f501526000611e0101526000611dd901526000611d3401526000611d5e01526000611d8801526127e36000f3fe60806040526004361061019c5760003560e01c80637ecebe00116100ec578063b35eee191161008a578063d1685cc011610064578063d1685cc0146105b1578063d547741f146105d1578063d5afc4b4146105f1578063de901eae1461061157600080fd5b8063b35eee1914610541578063cc844e1514610561578063cd407f371461059157600080fd5b80639912627f116100c65780639912627f1461043b5780639c26149f1461046c578063a217fddf146104a0578063b32c4d8d146104b557600080fd5b80637ecebe00146103c657806384b0196e146103f357806391d148541461041b57600080fd5b806336568abe1161015957806357a096a11161013357806357a096a1146103175780636352211e14610347578063656e49fa1461037f578063797d7cc91461039257600080fd5b806336568abe146102a357806349ec99ee146102c35780634fbf313b146102f757600080fd5b806301ffc9a7146101a15780630772d2d7146101d6578063248a9ca314610204578063274fae7c146102345780632d1bbc8e146102565780632f2ff15d14610283575b600080fd5b3480156101ad57600080fd5b506101c16101bc366004612139565b610631565b60405190151581526020015b60405180910390f35b3480156101e257600080fd5b506101f66101f136600461216a565b610668565b6040519081526020016101cd565b34801561021057600080fd5b506101f661021f36600461216a565b60009081526020819052604090206001015490565b34801561024057600080fd5b5061025461024f36600461216a565b6106af565b005b34801561026257600080fd5b5061027661027136600461216a565b6106bc565b6040516101cd91906121c9565b34801561028f57600080fd5b5061025461029e3660046121f8565b610792565b3480156102af57600080fd5b506102546102be3660046121f8565b6107bd565b3480156102cf57600080fd5b506101f67f6659d833875b88922d2576dad6c137a09ba676496bb2010bf8a72397792167a081565b34801561030357600080fd5b5061025461031236600461226d565b6107f5565b34801561032357600080fd5b5061033761033236600461216a565b610931565b6040516101cd9493929190612313565b34801561035357600080fd5b5061036761036236600461216a565b6109fd565b6040516001600160a01b0390911681526020016101cd565b61025461038d36600461234a565b610a43565b34801561039e57600080fd5b506101f67f6708279cb5b7899861c476830845b35dc693bcddf85695a204b94cda1c82583481565b3480156103d257600080fd5b506101f66103e136600461236c565b600a6020526000908152604090205481565b3480156103ff57600080fd5b50610408610c00565b6040516101cd97969594939291906123b8565b34801561042757600080fd5b506101c16104363660046121f8565b610c46565b34801561044757600080fd5b5061045b61045636600461216a565b610c6f565b6040516101cd959493929190612428565b34801561047857600080fd5b506101f67f85faced7bde13e1a7dad704b895f006e704f207617d68166b31ba2d79624862d81565b3480156104ac57600080fd5b506101f6600081565b3480156104c157600080fd5b5061050d6104d036600461216a565b6003602081905260009182526040909120805460018201546002830154938301546004909301546001600160a01b03909216939092909160ff1685565b604080516001600160a01b03909616865260208601949094529284019190915260608301521515608082015260a0016101cd565b34801561054d57600080fd5b506101f661055c36600461216a565b610d77565b34801561056d57600080fd5b5061058161057c36600461216a565b610db1565b6040516101cd9493929190612466565b34801561059d57600080fd5b506102546105ac366004612524565b6110ed565b3480156105bd57600080fd5b506102546105cc36600461259f565b61123d565b3480156105dd57600080fd5b506102546105ec3660046121f8565b6115ed565b3480156105fd57600080fd5b5061025461060c3660046121f8565b611612565b34801561061d57600080fd5b5061025461062c3660046125cb565b611627565b60006001600160e01b03198216637965db0b60e01b148061066257506301ffc9a760e01b6001600160e01b03198316145b92915050565b6000818152600360205260408120600481015460ff1661069b57604051635ae7a89560e11b815260040160405180910390fd5b505060009081526009602052604090205490565b6106b93382611633565b50565b600081815260036020526040902060048101546060919060ff166106f357604051635ae7a89560e11b815260040160405180910390fd5b6000838152600860205260409020805461070c90612600565b80601f016020809104026020016040519081016040528092919081815260200182805461073890612600565b80156107855780601f1061075a57610100808354040283529160200191610785565b820191906000526020600020905b81548152906001019060200180831161076857829003601f168201915b5050505050915050919050565b6000828152602081905260409020600101546107ad81611890565b6107b7838361189a565b50505050565b6001600160a01b03811633146107e65760405163334bd91960e11b815260040160405180910390fd5b6107f0828261192c565b505050565b4283101561081657604051631ab7da6b60e01b815260040160405180910390fd5b604080517fb9b22616824a0fdd55759e861704fd4e426236bb7ea523e53a363ce2f3bb5e206020820152908101869052606081018590526080810184905260009060a00160405160208183030381529060405280519060200120905060006108bf84848080601f0160208091040260200160405190810160405280939291908181526020018383808284376000920191909152506108b992508691506119979050565b906119c4565b6001600160a01b0381166000908152600a602052604090205490915086146108fa57604051638baa579f60e01b815260040160405180910390fd5b61090586600161263a565b6001600160a01b0382166000908152600a60205260409020556109288188611633565b50505050505050565b60008181526004602052604081206003810154829182916060919060ff1661096c576040516379de4af560e01b815260040160405180910390fd5b60018101548154600283015460008981526007602090815260409182902080548351818402810184019094528084526001600160a01b03909616959092918391908301828280156109e657602002820191906000526020600020905b81546001600160a01b031681526001909101906020018083116109c8575b505050505090509450945094509450509193509193565b6000818152600460205260408120600381015460ff16610a30576040516379de4af560e01b815260040160405180910390fd5b600101546001600160a01b031692915050565b7f6659d833875b88922d2576dad6c137a09ba676496bb2010bf8a72397792167a0610a6d81611890565b34600003610a8e576040516337c2e99960e21b815260040160405180910390fd5b81600003610aaf576040516333b094a160e01b815260040160405180910390fd5b6000838152600360205260409020600481015460ff1615610ae357604051630fa992d560e31b815260040160405180910390fd5b80546001600160a01b03191633178155600180820184905560006002830181905534600384015560048301805460ff1916909217909155604080518082018252600781526610d4915055115160ca1b60208083019190915287845260089052912090610b4f90826126c1565b506000848152600960205260408082209190915551339085907f393e916c1dfc22d76701413768477926c03c62e090a22793b40c4e1bac3f0f0090610ba09087903490918252602082015260400190565b60405180910390a3604080518181526007818301526610d4915055115160ca1b6060820152426020820152905185917fd1f1a368b113312abe993c35d4fe6ddec3e14d22fcc65a0bfd2787fe1350e465919081900360800190a250505050565b600060608060008060006060610c146119ee565b610c1c611a20565b60408051600080825260208201909252600f60f81b9b939a50919850469750309650945092509050565b6000918252602082815260408084206001600160a01b0393909316845291905290205460ff1690565b6000818152600360205260408120600481015482918291829160609160ff16610cab57604051635ae7a89560e11b815260040160405180910390fd5b805460018201546002830154600384015460008b815260086020526040902080546001600160a01b03909516948190610ce390612600565b80601f0160208091040260200160405190810160405280929190818152602001828054610d0f90612600565b8015610d5c5780601f10610d3157610100808354040283529160200191610d5c565b820191906000526020600020905b815481529060010190602001808311610d3f57829003601f168201915b50505050509050955095509550955095505091939590929450565b6000818152600460205260408120600381015460ff16610daa576040516379de4af560e01b815260040160405180910390fd5b5492915050565b6000818152600460205260409020600381015460609182918291829160ff16610ded576040516379de4af560e01b815260040160405180910390fd5b6000868152600660205260409020805467ffffffffffffffff811115610e1557610e1561265b565b604051908082528060200260200182016040528015610e3e578160200160208202803683370190505b50815490965067ffffffffffffffff811115610e5c57610e5c61265b565b604051908082528060200260200182016040528015610e85578160200160208202803683370190505b50815490955067ffffffffffffffff811115610ea357610ea361265b565b604051908082528060200260200182016040528015610ed657816020015b6060815260200190600190039081610ec15790505b50815490945067ffffffffffffffff811115610ef457610ef461265b565b604051908082528060200260200182016040528015610f1d578160200160208202803683370190505b50925060005b81548110156110e357818181548110610f3e57610f3e612781565b600091825260209091206004909102015487516001600160a01b0390911690889083908110610f6f57610f6f612781565b60200260200101906001600160a01b031690816001600160a01b031681525050818181548110610fa157610fa1612781565b906000526020600020906004020160010154868281518110610fc557610fc5612781565b602002602001018181525050818181548110610fe357610fe3612781565b90600052602060002090600402016002018054610fff90612600565b80601f016020809104026020016040519081016040528092919081815260200182805461102b90612600565b80156110785780601f1061104d57610100808354040283529160200191611078565b820191906000526020600020905b81548152906001019060200180831161105b57829003601f168201915b505050505085828151811061108f5761108f612781565b60200260200101819052508181815481106110ac576110ac612781565b9060005260206000209060040201600301548482815181106110d0576110d0612781565b6020908102919091010152600101610f23565b5050509193509193565b4283101561110e57604051631ab7da6b60e01b815260040160405180910390fd5b604080517fc67e7f265b2128fb39ce2a871a16cd8421fee5213cde6fa5f562d0759c3aefb760208201529081018890526001600160a01b03871660608201526080810186905260a0810185905260c0810184905260009060e00160405160208183030381529060405280519060200120905060006111c784848080601f0160208091040260200160405190810160405280939291908181526020018383808284376000920191909152506108b992508691506119979050565b6001600160a01b0381166000908152600a6020526040902054909150861461120257604051638baa579f60e01b815260040160405180910390fd5b61120d86600161263a565b6001600160a01b0382166000908152600a6020526040902055611232818a8a8a611a4d565b505050505050505050565b7f6659d833875b88922d2576dad6c137a09ba676496bb2010bf8a72397792167a061126781611890565b60008481526004602052604090206003015460ff161561129a57604051637afeb2e160e01b815260040160405180910390fd5b6000838152600360205260409020600481015460ff166112cd57604051635ae7a89560e11b815260040160405180910390fd5b80546001600160a01b031633146112f75760405163ea8e4eb560e01b815260040160405180910390fd5b806001015481600201541061131f5760405163479290cf60e01b815260040160405180910390fd5b6001816002016000828254611334919061263a565b9091555050600084815260096020526040812080546001929061135890849061263a565b909155505060408051608080820183528682523360208084018281528486018981526001606080880182815260008f815260048088528b82209a518b5595518a850180546001600160a01b03199081166001600160a01b039384161790915595516002808d019190915592516003909b01805460ff19169b15159b909b17909a5560068088528b82208c519a8b018d52988a528988018281528c51808e018e529182526513525395115160d21b828a01529b8a0190815242938a01939093528754808501895597815295909520875196909402909301805490921694909616939093178355945193820193909355925190929182019061145890826126c1565b506060919091015160039091015560008581526007602090815260408220805460018181018355918452919092200180546001600160a01b03191633179055810154600282015403611541576040518060400160405280600c81526020016b119553131657d3525395115160a21b8152506008600086815260200190815260200160002090816114e891906126c1565b5060408051818152600c818301526b119553131657d3525395115160a21b6060820152426020820152905185917fd1f1a368b113312abe993c35d4fe6ddec3e14d22fcc65a0bfd2787fe1350e465919081900360800190a25b336001600160a01b031684867f70bcbf02d2425e532f5c505d1be92ea51a88e339ec8350ccdd2c8ed88e6521848660405161157e91815260200190565b60405180910390a460408051600081526060602082018190526006908201526513525395115160d21b60808201524291810191909152339086907f2cf43e54ac59609d59d271e77d37ce95c39198791320d279c5cffba46c0cb2c69060a0015b60405180910390a35050505050565b60008281526020819052604090206001015461160881611890565b6107b7838361192c565b600061161d81611890565b6107f08383610792565b6107f033848484611a4d565b6000818152600460205260409020600381015460ff16611666576040516379de4af560e01b815260040160405180910390fd5b6000828152600560205260409020600281015460ff166116995760405163357a03ed60e21b815260040160405180910390fd5b80546001600160a01b038581169116146116c65760405163ea8e4eb560e01b815260040160405180910390fd5b600180830180546001600160a01b038781166001600160a01b0319808416821790945560008881526005602090815260408083208054881681558089018490556002908101805460ff191690556006835281842082516080810184529586528a8a01548685019081528351808501855260118152701514905394d1915497d050d0d154151151607a1b818701529387019384524260608801528154808c018355918652939094208551600490950201805494871694909816939093178755905196860196909655945191909216939192918201906117a490826126c1565b50606091909101516003909101556000848152600760209081526040808320805460018101825590845291832090910180546001600160a01b0319166001600160a01b03898116918217909255915191929084169187917f9cc86532afd4843c8838f17d7972e7f29389fe47d6712b6666af2d42df29ab3891a4846001600160a01b0316847f2cf43e54ac59609d59d271e77d37ce95c39198791320d279c5cffba46c0cb2c68460010154426040516115de929190918252606060208301819052601190830152701514905394d1915497d050d0d154151151607a1b6080830152604082015260a00190565b6106b98133611ce5565b60006118a68383610c46565b611924576000838152602081815260408083206001600160a01b03861684529091529020805460ff191660011790556118dc3390565b6001600160a01b0316826001600160a01b0316847f2f8788117e7eff1d82e926ec794901d17c78024a50270940304540a733656f0d60405160405180910390a4506001610662565b506000610662565b60006119388383610c46565b15611924576000838152602081815260408083206001600160a01b0386168085529252808320805460ff1916905551339286917ff6391f5c32d9c69d2a47ea670b442974b53935d1edc7fd64eb21e047a839171b9190a4506001610662565b60006106626119a4611d27565b8360405161190160f01b8152600281019290925260228201526042902090565b6000806000806119d48686611e52565b9250925092506119e48282611e9f565b5090949350505050565b6060611a1b7f00000000000000000000000000000000000000000000000000000000000000006001611f58565b905090565b6060611a1b7f00000000000000000000000000000000000000000000000000000000000000006002611f58565b6000838152600460205260409020600381015460ff16611a80576040516379de4af560e01b815260040160405180910390fd5b60018101546001600160a01b03868116911614611ab05760405163ea8e4eb560e01b815260040160405180910390fd5b60008481526005602052604090206002015460ff1615611ae35760405163a8b2461360e01b815260040160405180910390fd5b6001600160a01b0383161580611b0a5750846001600160a01b0316836001600160a01b0316145b15611b2857604051631e4ec46b60e01b815260040160405180910390fd5b60408051606080820183526001600160a01b0386811683526020808401878152600185870181815260008c815260058552888120975188546001600160a01b031990811691881691909117895593518884015590516002978801805460ff1916911515919091179055600684528781208851608081018a528e871681528086018c81528a51808c018c5260128152711514905394d1915497d2539255125055115160721b818901529a82019a8b524298820198909852815480850183559183529490912084516004909202018054909316941693909317815592519183019190915592519091820190611c1b90826126c1565b50606082015181600301555050826001600160a01b0316856001600160a01b0316857fae06b6db978feac2debb593397295212069ab4d158ccc78101767a183e4feef385604051611c6e91815260200190565b60405180910390a4846001600160a01b0316847f2cf43e54ac59609d59d271e77d37ce95c39198791320d279c5cffba46c0cb2c684426040516115de929190918252606060208301819052601290830152711514905394d1915497d2539255125055115160721b6080830152604082015260a00190565b611cef8282610c46565b611d235760405163e2517d3f60e01b81526001600160a01b0382166004820152602481018390526044015b60405180910390fd5b5050565b6000306001600160a01b037f000000000000000000000000000000000000000000000000000000000000000016148015611d8057507f000000000000000000000000000000000000000000000000000000000000000046145b15611daa57507f000000000000000000000000000000000000000000000000000000000000000090565b611a1b604080517f8b73c3c69bb8fe3d512ecc4cf759cc79239f7b179b0ffacaa9a75d522b39400f60208201527f0000000000000000000000000000000000000000000000000000000000000000918101919091527f000000000000000000000000000000000000000000000000000000000000000060608201524660808201523060a082015260009060c00160405160208183030381529060405280519060200120905090565b60008060008351604103611e8c5760208401516040850151606086015160001a611e7e88828585612003565b955095509550505050611e98565b50508151600091506002905b9250925092565b6000826003811115611eb357611eb3612797565b03611ebc575050565b6001826003811115611ed057611ed0612797565b03611eee5760405163f645eedf60e01b815260040160405180910390fd5b6002826003811115611f0257611f02612797565b03611f235760405163fce698f760e01b815260048101829052602401611d1a565b6003826003811115611f3757611f37612797565b03611d23576040516335e2f38360e21b815260048101829052602401611d1a565b606060ff8314611f7257611f6b836120d2565b9050610662565b818054611f7e90612600565b80601f0160208091040260200160405190810160405280929190818152602001828054611faa90612600565b8015611ff75780601f10611fcc57610100808354040283529160200191611ff7565b820191906000526020600020905b815481529060010190602001808311611fda57829003601f168201915b50505050509050610662565b600080807f7fffffffffffffffffffffffffffffff5d576e7357a4501ddfe92f46681b20a084111561203e57506000915060039050826120c8565b604080516000808252602082018084528a905260ff891692820192909252606081018790526080810186905260019060a0016020604051602081039080840390855afa158015612092573d6000803e3d6000fd5b5050604051601f1901519150506001600160a01b0381166120be575060009250600191508290506120c8565b9250600091508190505b9450945094915050565b606060006120df83612111565b604080516020808252818301909252919250600091906020820181803683375050509182525060208101929092525090565b600060ff8216601f81111561066257604051632cd44ac360e21b815260040160405180910390fd5b60006020828403121561214b57600080fd5b81356001600160e01b03198116811461216357600080fd5b9392505050565b60006020828403121561217c57600080fd5b5035919050565b6000815180845260005b818110156121a95760208185018101518683018201520161218d565b506000602082860101526020601f19601f83011685010191505092915050565b6020815260006121636020830184612183565b80356001600160a01b03811681146121f357600080fd5b919050565b6000806040838503121561220b57600080fd5b8235915061221b602084016121dc565b90509250929050565b60008083601f84011261223657600080fd5b50813567ffffffffffffffff81111561224e57600080fd5b60208301915083602082850101111561226657600080fd5b9250929050565b60008060008060006080868803121561228557600080fd5b853594506020860135935060408601359250606086013567ffffffffffffffff8111156122b157600080fd5b6122bd88828901612224565b969995985093965092949392505050565b60008151808452602080850194506020840160005b838110156123085781516001600160a01b0316875295820195908201906001016122e3565b509495945050505050565b60018060a01b038516815283602082015282604082015260806060820152600061234060808301846122ce565b9695505050505050565b6000806040838503121561235d57600080fd5b50508035926020909101359150565b60006020828403121561237e57600080fd5b612163826121dc565b60008151808452602080850194506020840160005b838110156123085781518752958201959082019060010161239c565b60ff60f81b8816815260e0602082015260006123d760e0830189612183565b82810360408401526123e98189612183565b606084018890526001600160a01b038716608085015260a0840186905283810360c0850152905061241a8185612387565b9a9950505050505050505050565b60018060a01b038616815284602082015283604082015282606082015260a06080820152600061245b60a0830184612183565b979650505050505050565b60808152600061247960808301876122ce565b82810360208481019190915286518083528782019282019060005b818110156124b057845183529383019391830191600101612494565b5050848103604086015286518082528282019350600581901b8201830183890160005b8381101561250157601f198584030187526124ef838351612183565b968601969250908501906001016124d3565b505086810360608801526125158189612387565b9b9a5050505050505050505050565b600080600080600080600060c0888a03121561253f57600080fd5b8735965061254f602089016121dc565b955060408801359450606088013593506080880135925060a088013567ffffffffffffffff81111561258057600080fd5b61258c8a828b01612224565b989b979a50959850939692959293505050565b6000806000606084860312156125b457600080fd5b505081359360208301359350604090920135919050565b6000806000606084860312156125e057600080fd5b833592506125f0602085016121dc565b9150604084013590509250925092565b600181811c9082168061261457607f821691505b60208210810361263457634e487b7160e01b600052602260045260246000fd5b50919050565b8082018082111561066257634e487b7160e01b600052601160045260246000fd5b634e487b7160e01b600052604160045260246000fd5b601f8211156107f0576000816000526020600020601f850160051c8101602086101561269a5750805b601f850160051c820191505b818110156126b9578281556001016126a6565b505050505050565b815167ffffffffffffffff8111156126db576126db61265b565b6126ef816126e98454612600565b84612671565b602080601f831160018114612724576000841561270c5750858301515b600019600386901b1c1916600185901b1785556126b9565b600085815260208120601f198616915b8281101561275357888601518255948401946001909101908401612734565b50858210156127715787850151600019600388901b60f8161c191681555b5050505050600190811b01905550565b634e487b7160e01b600052603260045260246000fd5b634e487b7160e01b600052602160045260246000fdfea2646970667358221220223a1737bb6ac8a1ba9204555a51d7b5b7efbaa89055af9111d563bcb6f885b364736f6c63430008180033","opcodes":"PUSH2 0x160 PUSH1 0x40 MSTORE CALLVALUE DUP1 ISZERO PUSH3 0x12 JUMPI PUSH1 0x0 DUP1 REVERT JUMPDEST POP PUSH1 0x40 MLOAD PUSH3 0x2CD2 CODESIZE SUB DUP1 PUSH3 0x2CD2 DUP4 CODECOPY DUP2 ADD PUSH1 0x40 DUP2 SWAP1 MSTORE PUSH3 0x35 SWAP2 PUSH3 0x279 JUMP JUMPDEST PUSH1 0x40 MLOAD DUP1 PUSH1 0x40 ADD PUSH1 0x40 MSTORE DUP1 PUSH1 0xB DUP2 MSTORE PUSH1 0x20 ADD PUSH11 0x29BAB838363CA1B430B4B7 PUSH1 0xA9 SHL DUP2 MSTORE POP PUSH1 0x40 MLOAD DUP1 PUSH1 0x40 ADD PUSH1 0x40 MSTORE DUP1 PUSH1 0x1 DUP2 MSTORE PUSH1 0x20 ADD PUSH1 0x31 PUSH1 0xF8 SHL DUP2 MSTORE POP PUSH3 0x89 PUSH1 0x1 DUP4 PUSH3 0x146 PUSH1 0x20 SHL SWAP1 SWAP2 SWAP1 PUSH1 0x20 SHR JUMP JUMPDEST PUSH2 0x120 MSTORE PUSH3 0x9A DUP2 PUSH1 0x2 PUSH3 0x146 JUMP JUMPDEST PUSH2 0x140 MSTORE DUP2 MLOAD PUSH1 0x20 DUP1 DUP5 ADD SWAP2 SWAP1 SWAP2 KECCAK256 PUSH1 0xE0 MSTORE DUP2 MLOAD SWAP1 DUP3 ADD KECCAK256 PUSH2 0x100 MSTORE CHAINID PUSH1 0xA0 MSTORE PUSH3 0x128 PUSH1 0xE0 MLOAD PUSH2 0x100 MLOAD PUSH1 0x40 DUP1 MLOAD PUSH32 0x8B73C3C69BB8FE3D512ECC4CF759CC79239F7B179B0FFACAA9A75D522B39400F PUSH1 0x20 DUP3 ADD MSTORE SWAP1 DUP2 ADD SWAP3 SWAP1 SWAP3 MSTORE PUSH1 0x60 DUP3 ADD MSTORE CHAINID PUSH1 0x80 DUP3 ADD MSTORE ADDRESS PUSH1 0xA0 DUP3 ADD MSTORE PUSH1 0x0 SWAP1 PUSH1 0xC0 ADD PUSH1 0x40 MLOAD PUSH1 0x20 DUP2 DUP4 SUB SUB DUP2 MSTORE SWAP1 PUSH1 0x40 MSTORE DUP1 MLOAD SWAP1 PUSH1 0x20 ADD KECCAK256 SWAP1 POP SWAP1 JUMP JUMPDEST PUSH1 0x80 MSTORE POP POP ADDRESS PUSH1 0xC0 MSTORE PUSH3 0x13E PUSH1 0x0 DUP3 PUSH3 0x17F JUMP JUMPDEST POP POP PUSH3 0x494 JUMP JUMPDEST PUSH1 0x0 PUSH1 0x20 DUP4 MLOAD LT ISZERO PUSH3 0x166 JUMPI PUSH3 0x15E DUP4 PUSH3 0x22D JUMP JUMPDEST SWAP1 POP PUSH3 0x179 JUMP JUMPDEST DUP2 PUSH3 0x173 DUP5 DUP3 PUSH3 0x352 JUMP JUMPDEST POP PUSH1 0xFF SWAP1 POP JUMPDEST SWAP3 SWAP2 POP POP JUMP JUMPDEST PUSH1 0x0 DUP3 DUP2 MSTORE PUSH1 0x20 DUP2 DUP2 MSTORE PUSH1 0x40 DUP1 DUP4 KECCAK256 PUSH1 0x1 PUSH1 0x1 PUSH1 0xA0 SHL SUB DUP6 AND DUP5 MSTORE SWAP1 SWAP2 MSTORE DUP2 KECCAK256 SLOAD PUSH1 0xFF AND PUSH3 0x224 JUMPI PUSH1 0x0 DUP4 DUP2 MSTORE PUSH1 0x20 DUP2 DUP2 MSTORE PUSH1 0x40 DUP1 DUP4 KECCAK256 PUSH1 0x1 PUSH1 0x1 PUSH1 0xA0 SHL SUB DUP7 AND DUP5 MSTORE SWAP1 SWAP2 MSTORE SWAP1 KECCAK256 DUP1 SLOAD PUSH1 0xFF NOT AND PUSH1 0x1 OR SWAP1 SSTORE PUSH3 0x1DB CALLER SWAP1 JUMP JUMPDEST PUSH1 0x1 PUSH1 0x1 PUSH1 0xA0 SHL SUB AND DUP3 PUSH1 0x1 PUSH1 0x1 PUSH1 0xA0 SHL SUB AND DUP5 PUSH32 0x2F8788117E7EFF1D82E926EC794901D17C78024A50270940304540A733656F0D PUSH1 0x40 MLOAD PUSH1 0x40 MLOAD DUP1 SWAP2 SUB SWAP1 LOG4 POP PUSH1 0x1 PUSH3 0x179 JUMP JUMPDEST POP PUSH1 0x0 PUSH3 0x179 JUMP JUMPDEST PUSH1 0x0 DUP1 DUP3 SWAP1 POP PUSH1 0x1F DUP2 MLOAD GT ISZERO PUSH3 0x264 JUMPI DUP3 PUSH1 0x40 MLOAD PUSH4 0x305A27A9 PUSH1 0xE0 SHL DUP2 MSTORE PUSH1 0x4 ADD PUSH3 0x25B SWAP2 SWAP1 PUSH3 0x41E JUMP JUMPDEST PUSH1 0x40 MLOAD DUP1 SWAP2 SUB SWAP1 REVERT JUMPDEST DUP1 MLOAD PUSH3 0x271 DUP3 PUSH3 0x46F JUMP JUMPDEST OR SWAP4 SWAP3 POP POP POP JUMP JUMPDEST PUSH1 0x0 PUSH1 0x20 DUP3 DUP5 SUB SLT ISZERO PUSH3 0x28C JUMPI PUSH1 0x0 DUP1 REVERT JUMPDEST DUP2 MLOAD PUSH1 0x1 PUSH1 0x1 PUSH1 0xA0 SHL SUB DUP2 AND DUP2 EQ PUSH3 0x2A4 JUMPI PUSH1 0x0 DUP1 REVERT JUMPDEST SWAP4 SWAP3 POP POP POP JUMP JUMPDEST PUSH4 0x4E487B71 PUSH1 0xE0 SHL PUSH1 0x0 MSTORE PUSH1 0x41 PUSH1 0x4 MSTORE PUSH1 0x24 PUSH1 0x0 REVERT JUMPDEST PUSH1 0x1 DUP2 DUP2 SHR SWAP1 DUP3 AND DUP1 PUSH3 0x2D6 JUMPI PUSH1 0x7F DUP3 AND SWAP2 POP JUMPDEST PUSH1 0x20 DUP3 LT DUP2 SUB PUSH3 0x2F7 JUMPI PUSH4 0x4E487B71 PUSH1 0xE0 SHL PUSH1 0x0 MSTORE PUSH1 0x22 PUSH1 0x4 MSTORE PUSH1 0x24 PUSH1 0x0 REVERT JUMPDEST POP SWAP2 SWAP1 POP JUMP JUMPDEST PUSH1 0x1F DUP3 GT ISZERO PUSH3 0x34D JUMPI PUSH1 0x0 DUP2 PUSH1 0x0 MSTORE PUSH1 0x20 PUSH1 0x0 KECCAK256 PUSH1 0x1F DUP6 ADD PUSH1 0x5 SHR DUP2 ADD PUSH1 0x20 DUP7 LT ISZERO PUSH3 0x328 JUMPI POP DUP1 JUMPDEST PUSH1 0x1F DUP6 ADD PUSH1 0x5 SHR DUP3 ADD SWAP2 POP JUMPDEST DUP2 DUP2 LT ISZERO PUSH3 0x349 JUMPI DUP3 DUP2 SSTORE PUSH1 0x1 ADD PUSH3 0x334 JUMP JUMPDEST POP POP POP JUMPDEST POP POP POP JUMP JUMPDEST DUP2 MLOAD PUSH1 0x1 PUSH1 0x1 PUSH1 0x40 SHL SUB DUP2 GT ISZERO PUSH3 0x36E JUMPI PUSH3 0x36E PUSH3 0x2AB JUMP JUMPDEST PUSH3 0x386 DUP2 PUSH3 0x37F DUP5 SLOAD PUSH3 0x2C1 JUMP JUMPDEST DUP5 PUSH3 0x2FD JUMP JUMPDEST PUSH1 0x20 DUP1 PUSH1 0x1F DUP4 GT PUSH1 0x1 DUP2 EQ PUSH3 0x3BE JUMPI PUSH1 0x0 DUP5 ISZERO PUSH3 0x3A5 JUMPI POP DUP6 DUP4 ADD MLOAD JUMPDEST PUSH1 0x0 NOT PUSH1 0x3 DUP7 SWAP1 SHL SHR NOT AND PUSH1 0x1 DUP6 SWAP1 SHL OR DUP6 SSTORE PUSH3 0x349 JUMP JUMPDEST PUSH1 0x0 DUP6 DUP2 MSTORE PUSH1 0x20 DUP2 KECCAK256 PUSH1 0x1F NOT DUP7 AND SWAP2 JUMPDEST DUP3 DUP2 LT ISZERO PUSH3 0x3EF JUMPI DUP9 DUP7 ADD MLOAD DUP3 SSTORE SWAP5 DUP5 ADD SWAP5 PUSH1 0x1 SWAP1 SWAP2 ADD SWAP1 DUP5 ADD PUSH3 0x3CE JUMP JUMPDEST POP DUP6 DUP3 LT ISZERO PUSH3 0x40E JUMPI DUP8 DUP6 ADD MLOAD PUSH1 0x0 NOT PUSH1 0x3 DUP9 SWAP1 SHL PUSH1 0xF8 AND SHR NOT AND DUP2 SSTORE JUMPDEST POP POP POP POP POP PUSH1 0x1 SWAP1 DUP2 SHL ADD SWAP1 SSTORE POP JUMP JUMPDEST PUSH1 0x0 PUSH1 0x20 DUP1 DUP4 MSTORE DUP4 MLOAD DUP1 PUSH1 0x20 DUP6 ADD MSTORE PUSH1 0x0 JUMPDEST DUP2 DUP2 LT ISZERO PUSH3 0x44E JUMPI DUP6 DUP2 ADD DUP4 ADD MLOAD DUP6 DUP3 ADD PUSH1 0x40 ADD MSTORE DUP3 ADD PUSH3 0x430 JUMP JUMPDEST POP PUSH1 0x0 PUSH1 0x40 DUP3 DUP7 ADD ADD MSTORE PUSH1 0x40 PUSH1 0x1F NOT PUSH1 0x1F DUP4 ADD AND DUP6 ADD ADD SWAP3 POP POP POP SWAP3 SWAP2 POP POP JUMP JUMPDEST DUP1 MLOAD PUSH1 0x20 DUP1 DUP4 ADD MLOAD SWAP2 SWAP1 DUP2 LT ISZERO PUSH3 0x2F7 JUMPI PUSH1 0x0 NOT PUSH1 0x20 SWAP2 SWAP1 SWAP2 SUB PUSH1 0x3 SHL SHL AND SWAP2 SWAP1 POP JUMP JUMPDEST PUSH1 0x80 MLOAD PUSH1 0xA0 MLOAD PUSH1 0xC0 MLOAD PUSH1 0xE0 MLOAD PUSH2 0x100 MLOAD PUSH2 0x120 MLOAD PUSH2 0x140 MLOAD PUSH2 0x27E3 PUSH3 0x4EF PUSH1 0x0 CODECOPY PUSH1 0x0 PUSH2 0x1A27 ADD MSTORE PUSH1 0x0 PUSH2 0x19F5 ADD MSTORE PUSH1 0x0 PUSH2 0x1E01 ADD MSTORE PUSH1 0x0 PUSH2 0x1DD9 ADD MSTORE PUSH1 0x0 PUSH2 0x1D34 ADD MSTORE PUSH1 0x0 PUSH2 0x1D5E ADD MSTORE PUSH1 0x0 PUSH2 0x1D88 ADD MSTORE PUSH2 0x27E3 PUSH1 0x0 RETURN INVALID PUSH1 0x80 PUSH1 0x40 MSTORE PUSH1 0x4 CALLDATASIZE LT PUSH2 0x19C JUMPI PUSH1 0x0 CALLDATALOAD PUSH1 0xE0 SHR DUP1 PUSH4 0x7ECEBE00 GT PUSH2 0xEC JUMPI DUP1 PUSH4 0xB35EEE19 GT PUSH2 0x8A JUMPI DUP1 PUSH4 0xD1685CC0 GT PUSH2 0x64 JUMPI DUP1 PUSH4 0xD1685CC0 EQ PUSH2 0x5B1 JUMPI DUP1 PUSH4 0xD547741F EQ PUSH2 0x5D1 JUMPI DUP1 PUSH4 0xD5AFC4B4 EQ PUSH2 0x5F1 JUMPI DUP1 PUSH4 0xDE901EAE EQ PUSH2 0x611 JUMPI PUSH1 0x0 DUP1 REVERT JUMPDEST DUP1 PUSH4 0xB35EEE19 EQ PUSH2 0x541 JUMPI DUP1 PUSH4 0xCC844E15 EQ PUSH2 0x561 JUMPI DUP1 PUSH4 0xCD407F37 EQ PUSH2 0x591 JUMPI PUSH1 0x0 DUP1 REVERT JUMPDEST DUP1 PUSH4 0x9912627F GT PUSH2 0xC6 JUMPI DUP1 PUSH4 0x9912627F EQ PUSH2 0x43B JUMPI DUP1 PUSH4 0x9C26149F EQ PUSH2 0x46C JUMPI DUP1 PUSH4 0xA217FDDF EQ PUSH2 0x4A0 JUMPI DUP1 PUSH4 0xB32C4D8D EQ PUSH2 0x4B5 JUMPI PUSH1 0x0 DUP1 REVERT JUMPDEST DUP1 PUSH4 0x7ECEBE00 EQ PUSH2 0x3C6 JUMPI DUP1 PUSH4 0x84B0196E EQ PUSH2 0x3F3 JUMPI DUP1 PUSH4 0x91D14854 EQ PUSH2 0x41B JUMPI PUSH1 0x0 DUP1 REVERT JUMPDEST DUP1 PUSH4 0x36568ABE GT PUSH2 0x159 JUMPI DUP1 PUSH4 0x57A096A1 GT PUSH2 0x133 JUMPI DUP1 PUSH4 0x57A096A1 EQ PUSH2 0x317 JUMPI DUP1 PUSH4 0x6352211E EQ PUSH2 0x347 JUMPI DUP1 PUSH4 0x656E49FA EQ PUSH2 0x37F JUMPI DUP1 PUSH4 0x797D7CC9 EQ PUSH2 0x392 JUMPI PUSH1 0x0 DUP1 REVERT JUMPDEST DUP1 PUSH4 0x36568ABE EQ PUSH2 0x2A3 JUMPI DUP1 PUSH4 0x49EC99EE EQ PUSH2 0x2C3 JUMPI DUP1 PUSH4 0x4FBF313B EQ PUSH2 0x2F7 JUMPI PUSH1 0x0 DUP1 REVERT JUMPDEST DUP1 PUSH4 0x1FFC9A7 EQ PUSH2 0x1A1 JUMPI DUP1 PUSH4 0x772D2D7 EQ PUSH2 0x1D6 JUMPI DUP1 PUSH4 0x248A9CA3 EQ PUSH2 0x204 JUMPI DUP1 PUSH4 0x274FAE7C EQ PUSH2 0x234 JUMPI DUP1 PUSH4 0x2D1BBC8E EQ PUSH2 0x256 JUMPI DUP1 PUSH4 0x2F2FF15D EQ PUSH2 0x283 JUMPI JUMPDEST PUSH1 0x0 DUP1 REVERT JUMPDEST CALLVALUE DUP1 ISZERO PUSH2 0x1AD JUMPI PUSH1 0x0 DUP1 REVERT JUMPDEST POP PUSH2 0x1C1 PUSH2 0x1BC CALLDATASIZE PUSH1 0x4 PUSH2 0x2139 JUMP JUMPDEST PUSH2 0x631 JUMP JUMPDEST PUSH1 0x40 MLOAD SWAP1 ISZERO ISZERO DUP2 MSTORE PUSH1 0x20 ADD JUMPDEST PUSH1 0x40 MLOAD DUP1 SWAP2 SUB SWAP1 RETURN JUMPDEST CALLVALUE DUP1 ISZERO PUSH2 0x1E2 JUMPI PUSH1 0x0 DUP1 REVERT JUMPDEST POP PUSH2 0x1F6 PUSH2 0x1F1 CALLDATASIZE PUSH1 0x4 PUSH2 0x216A JUMP JUMPDEST PUSH2 0x668 JUMP JUMPDEST PUSH1 0x40 MLOAD SWAP1 DUP2 MSTORE PUSH1 0x20 ADD PUSH2 0x1CD JUMP JUMPDEST CALLVALUE DUP1 ISZERO PUSH2 0x210 JUMPI PUSH1 0x0 DUP1 REVERT JUMPDEST POP PUSH2 0x1F6 PUSH2 0x21F CALLDATASIZE PUSH1 0x4 PUSH2 0x216A JUMP JUMPDEST PUSH1 0x0 SWAP1 DUP2 MSTORE PUSH1 0x20 DUP2 SWAP1 MSTORE PUSH1 0x40 SWAP1 KECCAK256 PUSH1 0x1 ADD SLOAD SWAP1 JUMP JUMPDEST CALLVALUE DUP1 ISZERO PUSH2 0x240 JUMPI PUSH1 0x0 DUP1 REVERT JUMPDEST POP PUSH2 0x254 PUSH2 0x24F CALLDATASIZE PUSH1 0x4 PUSH2 0x216A JUMP JUMPDEST PUSH2 0x6AF JUMP JUMPDEST STOP JUMPDEST CALLVALUE DUP1 ISZERO PUSH2 0x262 JUMPI PUSH1 0x0 DUP1 REVERT JUMPDEST POP PUSH2 0x276 PUSH2 0x271 CALLDATASIZE PUSH1 0x4 PUSH2 0x216A JUMP JUMPDEST PUSH2 0x6BC JUMP JUMPDEST PUSH1 0x40 MLOAD PUSH2 0x1CD SWAP2 SWAP1 PUSH2 0x21C9 JUMP JUMPDEST CALLVALUE DUP1 ISZERO PUSH2 0x28F JUMPI PUSH1 0x0 DUP1 REVERT JUMPDEST POP PUSH2 0x254 PUSH2 0x29E CALLDATASIZE PUSH1 0x4 PUSH2 0x21F8 JUMP JUMPDEST PUSH2 0x792 JUMP JUMPDEST CALLVALUE DUP1 ISZERO PUSH2 0x2AF JUMPI PUSH1 0x0 DUP1 REVERT JUMPDEST POP PUSH2 0x254 PUSH2 0x2BE CALLDATASIZE PUSH1 0x4 PUSH2 0x21F8 JUMP JUMPDEST PUSH2 0x7BD JUMP JUMPDEST CALLVALUE DUP1 ISZERO PUSH2 0x2CF JUMPI PUSH1 0x0 DUP1 REVERT JUMPDEST POP PUSH2 0x1F6 PUSH32 0x6659D833875B88922D2576DAD6C137A09BA676496BB2010BF8A72397792167A0 DUP2 JUMP JUMPDEST CALLVALUE DUP1 ISZERO PUSH2 0x303 JUMPI PUSH1 0x0 DUP1 REVERT JUMPDEST POP PUSH2 0x254 PUSH2 0x312 CALLDATASIZE PUSH1 0x4 PUSH2 0x226D JUMP JUMPDEST PUSH2 0x7F5 JUMP JUMPDEST CALLVALUE DUP1 ISZERO PUSH2 0x323 JUMPI PUSH1 0x0 DUP1 REVERT JUMPDEST POP PUSH2 0x337 PUSH2 0x332 CALLDATASIZE PUSH1 0x4 PUSH2 0x216A JUMP JUMPDEST PUSH2 0x931 JUMP JUMPDEST PUSH1 0x40 MLOAD PUSH2 0x1CD SWAP5 SWAP4 SWAP3 SWAP2 SWAP1 PUSH2 0x2313 JUMP JUMPDEST CALLVALUE DUP1 ISZERO PUSH2 0x353 JUMPI PUSH1 0x0 DUP1 REVERT JUMPDEST POP PUSH2 0x367 PUSH2 0x362 CALLDATASIZE PUSH1 0x4 PUSH2 0x216A JUMP JUMPDEST PUSH2 0x9FD JUMP JUMPDEST PUSH1 0x40 MLOAD PUSH1 0x1 PUSH1 0x1 PUSH1 0xA0 SHL SUB SWAP1 SWAP2 AND DUP2 MSTORE PUSH1 0x20 ADD PUSH2 0x1CD JUMP JUMPDEST PUSH2 0x254 PUSH2 0x38D CALLDATASIZE PUSH1 0x4 PUSH2 0x234A JUMP JUMPDEST PUSH2 0xA43 JUMP JUMPDEST CALLVALUE DUP1 ISZERO PUSH2 0x39E JUMPI PUSH1 0x0 DUP1 REVERT JUMPDEST POP PUSH2 0x1F6 PUSH32 0x6708279CB5B7899861C476830845B35DC693BCDDF85695A204B94CDA1C825834 DUP2 JUMP JUMPDEST CALLVALUE DUP1 ISZERO PUSH2 0x3D2 JUMPI PUSH1 0x0 DUP1 REVERT JUMPDEST POP PUSH2 0x1F6 PUSH2 0x3E1 CALLDATASIZE PUSH1 0x4 PUSH2 0x236C JUMP JUMPDEST PUSH1 0xA PUSH1 0x20 MSTORE PUSH1 0x0 SWAP1 DUP2 MSTORE PUSH1 0x40 SWAP1 KECCAK256 SLOAD DUP2 JUMP JUMPDEST CALLVALUE DUP1 ISZERO PUSH2 0x3FF JUMPI PUSH1 0x0 DUP1 REVERT JUMPDEST POP PUSH2 0x408 PUSH2 0xC00 JUMP JUMPDEST PUSH1 0x40 MLOAD PUSH2 0x1CD SWAP8 SWAP7 SWAP6 SWAP5 SWAP4 SWAP3 SWAP2 SWAP1 PUSH2 0x23B8 JUMP JUMPDEST CALLVALUE DUP1 ISZERO PUSH2 0x427 JUMPI PUSH1 0x0 DUP1 REVERT JUMPDEST POP PUSH2 0x1C1 PUSH2 0x436 CALLDATASIZE PUSH1 0x4 PUSH2 0x21F8 JUMP JUMPDEST PUSH2 0xC46 JUMP JUMPDEST CALLVALUE DUP1 ISZERO PUSH2 0x447 JUMPI PUSH1 0x0 DUP1 REVERT JUMPDEST POP PUSH2 0x45B PUSH2 0x456 CALLDATASIZE PUSH1 0x4 PUSH2 0x216A JUMP JUMPDEST PUSH2 0xC6F JUMP JUMPDEST PUSH1 0x40 MLOAD PUSH2 0x1CD SWAP6 SWAP5 SWAP4 SWAP3 SWAP2 SWAP1 PUSH2 0x2428 JUMP JUMPDEST CALLVALUE DUP1 ISZERO PUSH2 0x478 JUMPI PUSH1 0x0 DUP1 REVERT JUMPDEST POP PUSH2 0x1F6 PUSH32 0x85FACED7BDE13E1A7DAD704B895F006E704F207617D68166B31BA2D79624862D DUP2 JUMP JUMPDEST CALLVALUE DUP1 ISZERO PUSH2 0x4AC JUMPI PUSH1 0x0 DUP1 REVERT JUMPDEST POP PUSH2 0x1F6 PUSH1 0x0 DUP2 JUMP JUMPDEST CALLVALUE DUP1 ISZERO PUSH2 0x4C1 JUMPI PUSH1 0x0 DUP1 REVERT JUMPDEST POP PUSH2 0x50D PUSH2 0x4D0 CALLDATASIZE PUSH1 0x4 PUSH2 0x216A JUMP JUMPDEST PUSH1 0x3 PUSH1 0x20 DUP2 SWAP1 MSTORE PUSH1 0x0 SWAP2 DUP3 MSTORE PUSH1 0x40 SWAP1 SWAP2 KECCAK256 DUP1 SLOAD PUSH1 0x1 DUP3 ADD SLOAD PUSH1 0x2 DUP4 ADD SLOAD SWAP4 DUP4 ADD SLOAD PUSH1 0x4 SWAP1 SWAP4 ADD SLOAD PUSH1 0x1 PUSH1 0x1 PUSH1 0xA0 SHL SUB SWAP1 SWAP3 AND SWAP4 SWAP1 SWAP3 SWAP1 SWAP2 PUSH1 0xFF AND DUP6 JUMP JUMPDEST PUSH1 0x40 DUP1 MLOAD PUSH1 0x1 PUSH1 0x1 PUSH1 0xA0 SHL SUB SWAP1 SWAP7 AND DUP7 MSTORE PUSH1 0x20 DUP7 ADD SWAP5 SWAP1 SWAP5 MSTORE SWAP3 DUP5 ADD SWAP2 SWAP1 SWAP2 MSTORE PUSH1 0x60 DUP4 ADD MSTORE ISZERO ISZERO PUSH1 0x80 DUP3 ADD MSTORE PUSH1 0xA0 ADD PUSH2 0x1CD JUMP JUMPDEST CALLVALUE DUP1 ISZERO PUSH2 0x54D JUMPI PUSH1 0x0 DUP1 REVERT JUMPDEST POP PUSH2 0x1F6 PUSH2 0x55C CALLDATASIZE PUSH1 0x4 PUSH2 0x216A JUMP JUMPDEST PUSH2 0xD77 JUMP JUMPDEST CALLVALUE DUP1 ISZERO PUSH2 0x56D JUMPI PUSH1 0x0 DUP1 REVERT JUMPDEST POP PUSH2 0x581 PUSH2 0x57C CALLDATASIZE PUSH1 0x4 PUSH2 0x216A JUMP JUMPDEST PUSH2 0xDB1 JUMP JUMPDEST PUSH1 0x40 MLOAD PUSH2 0x1CD SWAP5 SWAP4 SWAP3 SWAP2 SWAP1 PUSH2 0x2466 JUMP JUMPDEST CALLVALUE DUP1 ISZERO PUSH2 0x59D JUMPI PUSH1 0x0 DUP1 REVERT JUMPDEST POP PUSH2 0x254 PUSH2 0x5AC CALLDATASIZE PUSH1 0x4 PUSH2 0x2524 JUMP JUMPDEST PUSH2 0x10ED JUMP JUMPDEST CALLVALUE DUP1 ISZERO PUSH2 0x5BD JUMPI PUSH1 0x0 DUP1 REVERT JUMPDEST POP PUSH2 0x254 PUSH2 0x5CC CALLDATASIZE PUSH1 0x4 PUSH2 0x259F JUMP JUMPDEST PUSH2 0x123D JUMP JUMPDEST CALLVALUE DUP1 ISZERO PUSH2 0x5DD JUMPI PUSH1 0x0 DUP1 REVERT JUMPDEST POP PUSH2 0x254 PUSH2 0x5EC CALLDATASIZE PUSH1 0x4 PUSH2 0x21F8 JUMP JUMPDEST PUSH2 0x15ED JUMP JUMPDEST CALLVALUE DUP1 ISZERO PUSH2 0x5FD JUMPI PUSH1 0x0 DUP1 REVERT JUMPDEST POP PUSH2 0x254 PUSH2 0x60C CALLDATASIZE PUSH1 0x4 PUSH2 0x21F8 JUMP JUMPDEST PUSH2 0x1612 JUMP JUMPDEST CALLVALUE DUP1 ISZERO PUSH2 0x61D JUMPI PUSH1 0x0 DUP1 REVERT JUMPDEST POP PUSH2 0x254 PUSH2 0x62C CALLDATASIZE PUSH1 0x4 PUSH2 0x25CB JUMP JUMPDEST PUSH2 0x1627 JUMP JUMPDEST PUSH1 0x0 PUSH1 0x1 PUSH1 0x1 PUSH1 0xE0 SHL SUB NOT DUP3 AND PUSH4 0x7965DB0B PUSH1 0xE0 SHL EQ DUP1 PUSH2 0x662 JUMPI POP PUSH4 0x1FFC9A7 PUSH1 0xE0 SHL PUSH1 0x1 PUSH1 0x1 PUSH1 0xE0 SHL SUB NOT DUP4 AND EQ JUMPDEST SWAP3 SWAP2 POP POP JUMP JUMPDEST PUSH1 0x0 DUP2 DUP2 MSTORE PUSH1 0x3 PUSH1 0x20 MSTORE PUSH1 0x40 DUP2 KECCAK256 PUSH1 0x4 DUP2 ADD SLOAD PUSH1 0xFF AND PUSH2 0x69B JUMPI PUSH1 0x40 MLOAD PUSH4 0x5AE7A895 PUSH1 0xE1 SHL DUP2 MSTORE PUSH1 0x4 ADD PUSH1 0x40 MLOAD DUP1 SWAP2 SUB SWAP1 REVERT JUMPDEST POP POP PUSH1 0x0 SWAP1 DUP2 MSTORE PUSH1 0x9 PUSH1 0x20 MSTORE PUSH1 0x40 SWAP1 KECCAK256 SLOAD SWAP1 JUMP JUMPDEST PUSH2 0x6B9 CALLER DUP3 PUSH2 0x1633 JUMP JUMPDEST POP JUMP JUMPDEST PUSH1 0x0 DUP2 DUP2 MSTORE PUSH1 0x3 PUSH1 0x20 MSTORE PUSH1 0x40 SWAP1 KECCAK256 PUSH1 0x4 DUP2 ADD SLOAD PUSH1 0x60 SWAP2 SWAP1 PUSH1 0xFF AND PUSH2 0x6F3 JUMPI PUSH1 0x40 MLOAD PUSH4 0x5AE7A895 PUSH1 0xE1 SHL DUP2 MSTORE PUSH1 0x4 ADD PUSH1 0x40 MLOAD DUP1 SWAP2 SUB SWAP1 REVERT JUMPDEST PUSH1 0x0 DUP4 DUP2 MSTORE PUSH1 0x8 PUSH1 0x20 MSTORE PUSH1 0x40 SWAP1 KECCAK256 DUP1 SLOAD PUSH2 0x70C SWAP1 PUSH2 0x2600 JUMP JUMPDEST DUP1 PUSH1 0x1F ADD PUSH1 0x20 DUP1 SWAP2 DIV MUL PUSH1 0x20 ADD PUSH1 0x40 MLOAD SWAP1 DUP2 ADD PUSH1 0x40 MSTORE DUP1 SWAP3 SWAP2 SWAP1 DUP2 DUP2 MSTORE PUSH1 0x20 ADD DUP3 DUP1 SLOAD PUSH2 0x738 SWAP1 PUSH2 0x2600 JUMP JUMPDEST DUP1 ISZERO PUSH2 0x785 JUMPI DUP1 PUSH1 0x1F LT PUSH2 0x75A JUMPI PUSH2 0x100 DUP1 DUP4 SLOAD DIV MUL DUP4 MSTORE SWAP2 PUSH1 0x20 ADD SWAP2 PUSH2 0x785 JUMP JUMPDEST DUP3 ADD SWAP2 SWAP1 PUSH1 0x0 MSTORE PUSH1 0x20 PUSH1 0x0 KECCAK256 SWAP1 JUMPDEST DUP2 SLOAD DUP2 MSTORE SWAP1 PUSH1 0x1 ADD SWAP1 PUSH1 0x20 ADD DUP1 DUP4 GT PUSH2 0x768 JUMPI DUP3 SWAP1 SUB PUSH1 0x1F AND DUP3 ADD SWAP2 JUMPDEST POP POP POP POP POP SWAP2 POP POP SWAP2 SWAP1 POP JUMP JUMPDEST PUSH1 0x0 DUP3 DUP2 MSTORE PUSH1 0x20 DUP2 SWAP1 MSTORE PUSH1 0x40 SWAP1 KECCAK256 PUSH1 0x1 ADD SLOAD PUSH2 0x7AD DUP2 PUSH2 0x1890 JUMP JUMPDEST PUSH2 0x7B7 DUP4 DUP4 PUSH2 0x189A JUMP JUMPDEST POP POP POP POP JUMP JUMPDEST PUSH1 0x1 PUSH1 0x1 PUSH1 0xA0 SHL SUB DUP2 AND CALLER EQ PUSH2 0x7E6 JUMPI PUSH1 0x40 MLOAD PUSH4 0x334BD919 PUSH1 0xE1 SHL DUP2 MSTORE PUSH1 0x4 ADD PUSH1 0x40 MLOAD DUP1 SWAP2 SUB SWAP1 REVERT JUMPDEST PUSH2 0x7F0 DUP3 DUP3 PUSH2 0x192C JUMP JUMPDEST POP POP POP JUMP JUMPDEST TIMESTAMP DUP4 LT ISZERO PUSH2 0x816 JUMPI PUSH1 0x40 MLOAD PUSH4 0x1AB7DA6B PUSH1 0xE0 SHL DUP2 MSTORE PUSH1 0x4 ADD PUSH1 0x40 MLOAD DUP1 SWAP2 SUB SWAP1 REVERT JUMPDEST PUSH1 0x40 DUP1 MLOAD PUSH32 0xB9B22616824A0FDD55759E861704FD4E426236BB7EA523E53A363CE2F3BB5E20 PUSH1 0x20 DUP3 ADD MSTORE SWAP1 DUP2 ADD DUP7 SWAP1 MSTORE PUSH1 0x60 DUP2 ADD DUP6 SWAP1 MSTORE PUSH1 0x80 DUP2 ADD DUP5 SWAP1 MSTORE PUSH1 0x0 SWAP1 PUSH1 0xA0 ADD PUSH1 0x40 MLOAD PUSH1 0x20 DUP2 DUP4 SUB SUB DUP2 MSTORE SWAP1 PUSH1 0x40 MSTORE DUP1 MLOAD SWAP1 PUSH1 0x20 ADD KECCAK256 SWAP1 POP PUSH1 0x0 PUSH2 0x8BF DUP5 DUP5 DUP1 DUP1 PUSH1 0x1F ADD PUSH1 0x20 DUP1 SWAP2 DIV MUL PUSH1 0x20 ADD PUSH1 0x40 MLOAD SWAP1 DUP2 ADD PUSH1 0x40 MSTORE DUP1 SWAP4 SWAP3 SWAP2 SWAP1 DUP2 DUP2 MSTORE PUSH1 0x20 ADD DUP4 DUP4 DUP1 DUP3 DUP5 CALLDATACOPY PUSH1 0x0 SWAP3 ADD SWAP2 SWAP1 SWAP2 MSTORE POP PUSH2 0x8B9 SWAP3 POP DUP7 SWAP2 POP PUSH2 0x1997 SWAP1 POP JUMP JUMPDEST SWAP1 PUSH2 0x19C4 JUMP JUMPDEST PUSH1 0x1 PUSH1 0x1 PUSH1 0xA0 SHL SUB DUP2 AND PUSH1 0x0 SWAP1 DUP2 MSTORE PUSH1 0xA PUSH1 0x20 MSTORE PUSH1 0x40 SWAP1 KECCAK256 SLOAD SWAP1 SWAP2 POP DUP7 EQ PUSH2 0x8FA JUMPI PUSH1 0x40 MLOAD PUSH4 0x8BAA579F PUSH1 0xE0 SHL DUP2 MSTORE PUSH1 0x4 ADD PUSH1 0x40 MLOAD DUP1 SWAP2 SUB SWAP1 REVERT JUMPDEST PUSH2 0x905 DUP7 PUSH1 0x1 PUSH2 0x263A JUMP JUMPDEST PUSH1 0x1 PUSH1 0x1 PUSH1 0xA0 SHL SUB DUP3 AND PUSH1 0x0 SWAP1 DUP2 MSTORE PUSH1 0xA PUSH1 0x20 MSTORE PUSH1 0x40 SWAP1 KECCAK256 SSTORE PUSH2 0x928 DUP2 DUP9 PUSH2 0x1633 JUMP JUMPDEST POP POP POP POP POP POP POP JUMP JUMPDEST PUSH1 0x0 DUP2 DUP2 MSTORE PUSH1 0x4 PUSH1 0x20 MSTORE PUSH1 0x40 DUP2 KECCAK256 PUSH1 0x3 DUP2 ADD SLOAD DUP3 SWAP2 DUP3 SWAP2 PUSH1 0x60 SWAP2 SWAP1 PUSH1 0xFF AND PUSH2 0x96C JUMPI PUSH1 0x40 MLOAD PUSH4 0x79DE4AF5 PUSH1 0xE0 SHL DUP2 MSTORE PUSH1 0x4 ADD PUSH1 0x40 MLOAD DUP1 SWAP2 SUB SWAP1 REVERT JUMPDEST PUSH1 0x1 DUP2 ADD SLOAD DUP2 SLOAD PUSH1 0x2 DUP4 ADD SLOAD PUSH1 0x0 DUP10 DUP2 MSTORE PUSH1 0x7 PUSH1 0x20 SWAP1 DUP2 MSTORE PUSH1 0x40 SWAP2 DUP3 SWAP1 KECCAK256 DUP1 SLOAD DUP4 MLOAD DUP2 DUP5 MUL DUP2 ADD DUP5 ADD SWAP1 SWAP5 MSTORE DUP1 DUP5 MSTORE PUSH1 0x1 PUSH1 0x1 PUSH1 0xA0 SHL SUB SWAP1 SWAP7 AND SWAP6 SWAP1 SWAP3 SWAP2 DUP4 SWAP2 SWAP1 DUP4 ADD DUP3 DUP3 DUP1 ISZERO PUSH2 0x9E6 JUMPI PUSH1 0x20 MUL DUP3 ADD SWAP2 SWAP1 PUSH1 0x0 MSTORE PUSH1 0x20 PUSH1 0x0 KECCAK256 SWAP1 JUMPDEST DUP2 SLOAD PUSH1 0x1 PUSH1 0x1 PUSH1 0xA0 SHL SUB AND DUP2 MSTORE PUSH1 0x1 SWAP1 SWAP2 ADD SWAP1 PUSH1 0x20 ADD DUP1 DUP4 GT PUSH2 0x9C8 JUMPI JUMPDEST POP POP POP POP POP SWAP1 POP SWAP5 POP SWAP5 POP SWAP5 POP SWAP5 POP POP SWAP2 SWAP4 POP SWAP2 SWAP4 JUMP JUMPDEST PUSH1 0x0 DUP2 DUP2 MSTORE PUSH1 0x4 PUSH1 0x20 MSTORE PUSH1 0x40 DUP2 KECCAK256 PUSH1 0x3 DUP2 ADD SLOAD PUSH1 0xFF AND PUSH2 0xA30 JUMPI PUSH1 0x40 MLOAD PUSH4 0x79DE4AF5 PUSH1 0xE0 SHL DUP2 MSTORE PUSH1 0x4 ADD PUSH1 0x40 MLOAD DUP1 SWAP2 SUB SWAP1 REVERT JUMPDEST PUSH1 0x1 ADD SLOAD PUSH1 0x1 PUSH1 0x1 PUSH1 0xA0 SHL SUB AND SWAP3 SWAP2 POP POP JUMP JUMPDEST PUSH32 0x6659D833875B88922D2576DAD6C137A09BA676496BB2010BF8A72397792167A0 PUSH2 0xA6D DUP2 PUSH2 0x1890 JUMP JUMPDEST CALLVALUE PUSH1 0x0 SUB PUSH2 0xA8E JUMPI PUSH1 0x40 MLOAD PUSH4 0x37C2E999 PUSH1 0xE2 SHL DUP2 MSTORE PUSH1 0x4 ADD PUSH1 0x40 MLOAD DUP1 SWAP2 SUB SWAP1 REVERT JUMPDEST DUP2 PUSH1 0x0 SUB PUSH2 0xAAF JUMPI PUSH1 0x40 MLOAD PUSH4 0x33B094A1 PUSH1 0xE0 SHL DUP2 MSTORE PUSH1 0x4 ADD PUSH1 0x40 MLOAD DUP1 SWAP2 SUB SWAP1 REVERT JUMPDEST PUSH1 0x0 DUP4 DUP2 MSTORE PUSH1 0x3 PUSH1 0x20 MSTORE PUSH1 0x40 SWAP1 KECCAK256 PUSH1 0x4 DUP2 ADD SLOAD PUSH1 0xFF AND ISZERO PUSH2 0xAE3 JUMPI PUSH1 0x40 MLOAD PUSH4 0xFA992D5 PUSH1 0xE3 SHL DUP2 MSTORE PUSH1 0x4 ADD PUSH1 0x40 MLOAD DUP1 SWAP2 SUB SWAP1 REVERT JUMPDEST DUP1 SLOAD PUSH1 0x1 PUSH1 0x1 PUSH1 0xA0 SHL SUB NOT AND CALLER OR DUP2 SSTORE PUSH1 0x1 DUP1 DUP3 ADD DUP5 SWAP1 SSTORE PUSH1 0x0 PUSH1 0x2 DUP4 ADD DUP2 SWAP1 SSTORE CALLVALUE PUSH1 0x3 DUP5 ADD SSTORE PUSH1 0x4 DUP4 ADD DUP1 SLOAD PUSH1 0xFF NOT AND SWAP1 SWAP3 OR SWAP1 SWAP2 SSTORE PUSH1 0x40 DUP1 MLOAD DUP1 DUP3 ADD DUP3 MSTORE PUSH1 0x7 DUP2 MSTORE PUSH7 0x10D49150551151 PUSH1 0xCA SHL PUSH1 0x20 DUP1 DUP4 ADD SWAP2 SWAP1 SWAP2 MSTORE DUP8 DUP5 MSTORE PUSH1 0x8 SWAP1 MSTORE SWAP2 KECCAK256 SWAP1 PUSH2 0xB4F SWAP1 DUP3 PUSH2 0x26C1 JUMP JUMPDEST POP PUSH1 0x0 DUP5 DUP2 MSTORE PUSH1 0x9 PUSH1 0x20 MSTORE PUSH1 0x40 DUP1 DUP3 KECCAK256 SWAP2 SWAP1 SWAP2 SSTORE MLOAD CALLER SWAP1 DUP6 SWAP1 PUSH32 0x393E916C1DFC22D76701413768477926C03C62E090A22793B40C4E1BAC3F0F00 SWAP1 PUSH2 0xBA0 SWAP1 DUP8 SWAP1 CALLVALUE SWAP1 SWAP2 DUP3 MSTORE PUSH1 0x20 DUP3 ADD MSTORE PUSH1 0x40 ADD SWAP1 JUMP JUMPDEST PUSH1 0x40 MLOAD DUP1 SWAP2 SUB SWAP1 LOG3 PUSH1 0x40 DUP1 MLOAD DUP2 DUP2 MSTORE PUSH1 0x7 DUP2 DUP4 ADD MSTORE PUSH7 0x10D49150551151 PUSH1 0xCA SHL PUSH1 0x60 DUP3 ADD MSTORE TIMESTAMP PUSH1 0x20 DUP3 ADD MSTORE SWAP1 MLOAD DUP6 SWAP2 PUSH32 0xD1F1A368B113312ABE993C35D4FE6DDEC3E14D22FCC65A0BFD2787FE1350E465 SWAP2 SWAP1 DUP2 SWAP1 SUB PUSH1 0x80 ADD SWAP1 LOG2 POP POP POP POP JUMP JUMPDEST PUSH1 0x0 PUSH1 0x60 DUP1 PUSH1 0x0 DUP1 PUSH1 0x0 PUSH1 0x60 PUSH2 0xC14 PUSH2 0x19EE JUMP JUMPDEST PUSH2 0xC1C PUSH2 0x1A20 JUMP JUMPDEST PUSH1 0x40 DUP1 MLOAD PUSH1 0x0 DUP1 DUP3 MSTORE PUSH1 0x20 DUP3 ADD SWAP1 SWAP3 MSTORE PUSH1 0xF PUSH1 0xF8 SHL SWAP12 SWAP4 SWAP11 POP SWAP2 SWAP9 POP CHAINID SWAP8 POP ADDRESS SWAP7 POP SWAP5 POP SWAP3 POP SWAP1 POP JUMP JUMPDEST PUSH1 0x0 SWAP2 DUP3 MSTORE PUSH1 0x20 DUP3 DUP2 MSTORE PUSH1 0x40 DUP1 DUP5 KECCAK256 PUSH1 0x1 PUSH1 0x1 PUSH1 0xA0 SHL SUB SWAP4 SWAP1 SWAP4 AND DUP5 MSTORE SWAP2 SWAP1 MSTORE SWAP1 KECCAK256 SLOAD PUSH1 0xFF AND SWAP1 JUMP JUMPDEST PUSH1 0x0 DUP2 DUP2 MSTORE PUSH1 0x3 PUSH1 0x20 MSTORE PUSH1 0x40 DUP2 KECCAK256 PUSH1 0x4 DUP2 ADD SLOAD DUP3 SWAP2 DUP3 SWAP2 DUP3 SWAP2 PUSH1 0x60 SWAP2 PUSH1 0xFF AND PUSH2 0xCAB JUMPI PUSH1 0x40 MLOAD PUSH4 0x5AE7A895 PUSH1 0xE1 SHL DUP2 MSTORE PUSH1 0x4 ADD PUSH1 0x40 MLOAD DUP1 SWAP2 SUB SWAP1 REVERT JUMPDEST DUP1 SLOAD PUSH1 0x1 DUP3 ADD SLOAD PUSH1 0x2 DUP4 ADD SLOAD PUSH1 0x3 DUP5 ADD SLOAD PUSH1 0x0 DUP12 DUP2 MSTORE PUSH1 0x8 PUSH1 0x20 MSTORE PUSH1 0x40 SWAP1 KECCAK256 DUP1 SLOAD PUSH1 0x1 PUSH1 0x1 PUSH1 0xA0 SHL SUB SWAP1 SWAP6 AND SWAP5 DUP2 SWAP1 PUSH2 0xCE3 SWAP1 PUSH2 0x2600 JUMP JUMPDEST DUP1 PUSH1 0x1F ADD PUSH1 0x20 DUP1 SWAP2 DIV MUL PUSH1 0x20 ADD PUSH1 0x40 MLOAD SWAP1 DUP2 ADD PUSH1 0x40 MSTORE DUP1 SWAP3 SWAP2 SWAP1 DUP2 DUP2 MSTORE PUSH1 0x20 ADD DUP3 DUP1 SLOAD PUSH2 0xD0F SWAP1 PUSH2 0x2600 JUMP JUMPDEST DUP1 ISZERO PUSH2 0xD5C JUMPI DUP1 PUSH1 0x1F LT PUSH2 0xD31 JUMPI PUSH2 0x100 DUP1 DUP4 SLOAD DIV MUL DUP4 MSTORE SWAP2 PUSH1 0x20 ADD SWAP2 PUSH2 0xD5C JUMP JUMPDEST DUP3 ADD SWAP2 SWAP1 PUSH1 0x0 MSTORE PUSH1 0x20 PUSH1 0x0 KECCAK256 SWAP1 JUMPDEST DUP2 SLOAD DUP2 MSTORE SWAP1 PUSH1 0x1 ADD SWAP1 PUSH1 0x20 ADD DUP1 DUP4 GT PUSH2 0xD3F JUMPI DUP3 SWAP1 SUB PUSH1 0x1F AND DUP3 ADD SWAP2 JUMPDEST POP POP POP POP POP SWAP1 POP SWAP6 POP SWAP6 POP SWAP6 POP SWAP6 POP SWAP6 POP POP SWAP2 SWAP4 SWAP6 SWAP1 SWAP3 SWAP5 POP JUMP JUMPDEST PUSH1 0x0 DUP2 DUP2 MSTORE PUSH1 0x4 PUSH1 0x20 MSTORE PUSH1 0x40 DUP2 KECCAK256 PUSH1 0x3 DUP2 ADD SLOAD PUSH1 0xFF AND PUSH2 0xDAA JUMPI PUSH1 0x40 MLOAD PUSH4 0x79DE4AF5 PUSH1 0xE0 SHL DUP2 MSTORE PUSH1 0x4 ADD PUSH1 0x40 MLOAD DUP1 SWAP2 SUB SWAP1 REVERT JUMPDEST SLOAD SWAP3 SWAP2 POP POP JUMP JUMPDEST PUSH1 0x0 DUP2 DUP2 MSTORE PUSH1 0x4 PUSH1 0x20 MSTORE PUSH1 0x40 SWAP1 KECCAK256 PUSH1 0x3 DUP2 ADD SLOAD PUSH1 0x60 SWAP2 DUP3 SWAP2 DUP3 SWAP2 DUP3 SWAP2 PUSH1 0xFF AND PUSH2 0xDED JUMPI PUSH1 0x40 MLOAD PUSH4 0x79DE4AF5 PUSH1 0xE0 SHL DUP2 MSTORE PUSH1 0x4 ADD PUSH1 0x40 MLOAD DUP1 SWAP2 SUB SWAP1 REVERT JUMPDEST PUSH1 0x0 DUP7 DUP2 MSTORE PUSH1 0x6 PUSH1 0x20 MSTORE PUSH1 0x40 SWAP1 KECCAK256 DUP1 SLOAD PUSH8 0xFFFFFFFFFFFFFFFF DUP2 GT ISZERO PUSH2 0xE15 JUMPI PUSH2 0xE15 PUSH2 0x265B JUMP JUMPDEST PUSH1 0x40 MLOAD SWAP1 DUP1 DUP3 MSTORE DUP1 PUSH1 0x20 MUL PUSH1 0x20 ADD DUP3 ADD PUSH1 0x40 MSTORE DUP1 ISZERO PUSH2 0xE3E JUMPI DUP2 PUSH1 0x20 ADD PUSH1 0x20 DUP3 MUL DUP1 CALLDATASIZE DUP4 CALLDATACOPY ADD SWAP1 POP JUMPDEST POP DUP2 SLOAD SWAP1 SWAP7 POP PUSH8 0xFFFFFFFFFFFFFFFF DUP2 GT ISZERO PUSH2 0xE5C JUMPI PUSH2 0xE5C PUSH2 0x265B JUMP JUMPDEST PUSH1 0x40 MLOAD SWAP1 DUP1 DUP3 MSTORE DUP1 PUSH1 0x20 MUL PUSH1 0x20 ADD DUP3 ADD PUSH1 0x40 MSTORE DUP1 ISZERO PUSH2 0xE85 JUMPI DUP2 PUSH1 0x20 ADD PUSH1 0x20 DUP3 MUL DUP1 CALLDATASIZE DUP4 CALLDATACOPY ADD SWAP1 POP JUMPDEST POP DUP2 SLOAD SWAP1 SWAP6 POP PUSH8 0xFFFFFFFFFFFFFFFF DUP2 GT ISZERO PUSH2 0xEA3 JUMPI PUSH2 0xEA3 PUSH2 0x265B JUMP JUMPDEST PUSH1 0x40 MLOAD SWAP1 DUP1 DUP3 MSTORE DUP1 PUSH1 0x20 MUL PUSH1 0x20 ADD DUP3 ADD PUSH1 0x40 MSTORE DUP1 ISZERO PUSH2 0xED6 JUMPI DUP2 PUSH1 0x20 ADD JUMPDEST PUSH1 0x60 DUP2 MSTORE PUSH1 0x20 ADD SWAP1 PUSH1 0x1 SWAP1 SUB SWAP1 DUP2 PUSH2 0xEC1 JUMPI SWAP1 POP JUMPDEST POP DUP2 SLOAD SWAP1 SWAP5 POP PUSH8 0xFFFFFFFFFFFFFFFF DUP2 GT ISZERO PUSH2 0xEF4 JUMPI PUSH2 0xEF4 PUSH2 0x265B JUMP JUMPDEST PUSH1 0x40 MLOAD SWAP1 DUP1 DUP3 MSTORE DUP1 PUSH1 0x20 MUL PUSH1 0x20 ADD DUP3 ADD PUSH1 0x40 MSTORE DUP1 ISZERO PUSH2 0xF1D JUMPI DUP2 PUSH1 0x20 ADD PUSH1 0x20 DUP3 MUL DUP1 CALLDATASIZE DUP4 CALLDATACOPY ADD SWAP1 POP JUMPDEST POP SWAP3 POP PUSH1 0x0 JUMPDEST DUP2 SLOAD DUP2 LT ISZERO PUSH2 0x10E3 JUMPI DUP2 DUP2 DUP2 SLOAD DUP2 LT PUSH2 0xF3E JUMPI PUSH2 0xF3E PUSH2 0x2781 JUMP JUMPDEST PUSH1 0x0 SWAP2 DUP3 MSTORE PUSH1 0x20 SWAP1 SWAP2 KECCAK256 PUSH1 0x4 SWAP1 SWAP2 MUL ADD SLOAD DUP8 MLOAD PUSH1 0x1 PUSH1 0x1 PUSH1 0xA0 SHL SUB SWAP1 SWAP2 AND SWAP1 DUP9 SWAP1 DUP4 SWAP1 DUP2 LT PUSH2 0xF6F JUMPI PUSH2 0xF6F PUSH2 0x2781 JUMP JUMPDEST PUSH1 0x20 MUL PUSH1 0x20 ADD ADD SWAP1 PUSH1 0x1 PUSH1 0x1 PUSH1 0xA0 SHL SUB AND SWAP1 DUP2 PUSH1 0x1 PUSH1 0x1 PUSH1 0xA0 SHL SUB AND DUP2 MSTORE POP POP DUP2 DUP2 DUP2 SLOAD DUP2 LT PUSH2 0xFA1 JUMPI PUSH2 0xFA1 PUSH2 0x2781 JUMP JUMPDEST SWAP1 PUSH1 0x0 MSTORE PUSH1 0x20 PUSH1 0x0 KECCAK256 SWAP1 PUSH1 0x4 MUL ADD PUSH1 0x1 ADD SLOAD DUP7 DUP3 DUP2 MLOAD DUP2 LT PUSH2 0xFC5 JUMPI PUSH2 0xFC5 PUSH2 0x2781 JUMP JUMPDEST PUSH1 0x20 MUL PUSH1 0x20 ADD ADD DUP2 DUP2 MSTORE POP POP DUP2 DUP2 DUP2 SLOAD DUP2 LT PUSH2 0xFE3 JUMPI PUSH2 0xFE3 PUSH2 0x2781 JUMP JUMPDEST SWAP1 PUSH1 0x0 MSTORE PUSH1 0x20 PUSH1 0x0 KECCAK256 SWAP1 PUSH1 0x4 MUL ADD PUSH1 0x2 ADD DUP1 SLOAD PUSH2 0xFFF SWAP1 PUSH2 0x2600 JUMP JUMPDEST DUP1 PUSH1 0x1F ADD PUSH1 0x20 DUP1 SWAP2 DIV MUL PUSH1 0x20 ADD PUSH1 0x40 MLOAD SWAP1 DUP2 ADD PUSH1 0x40 MSTORE DUP1 SWAP3 SWAP2 SWAP1 DUP2 DUP2 MSTORE PUSH1 0x20 ADD DUP3 DUP1 SLOAD PUSH2 0x102B SWAP1 PUSH2 0x2600 JUMP JUMPDEST DUP1 ISZERO PUSH2 0x1078 JUMPI DUP1 PUSH1 0x1F LT PUSH2 0x104D JUMPI PUSH2 0x100 DUP1 DUP4 SLOAD DIV MUL DUP4 MSTORE SWAP2 PUSH1 0x20 ADD SWAP2 PUSH2 0x1078 JUMP JUMPDEST DUP3 ADD SWAP2 SWAP1 PUSH1 0x0 MSTORE PUSH1 0x20 PUSH1 0x0 KECCAK256 SWAP1 JUMPDEST DUP2 SLOAD DUP2 MSTORE SWAP1 PUSH1 0x1 ADD SWAP1 PUSH1 0x20 ADD DUP1 DUP4 GT PUSH2 0x105B JUMPI DUP3 SWAP1 SUB PUSH1 0x1F AND DUP3 ADD SWAP2 JUMPDEST POP POP POP POP POP DUP6 DUP3 DUP2 MLOAD DUP2 LT PUSH2 0x108F JUMPI PUSH2 0x108F PUSH2 0x2781 JUMP JUMPDEST PUSH1 0x20 MUL PUSH1 0x20 ADD ADD DUP2 SWAP1 MSTORE POP DUP2 DUP2 DUP2 SLOAD DUP2 LT PUSH2 0x10AC JUMPI PUSH2 0x10AC PUSH2 0x2781 JUMP JUMPDEST SWAP1 PUSH1 0x0 MSTORE PUSH1 0x20 PUSH1 0x0 KECCAK256 SWAP1 PUSH1 0x4 MUL ADD PUSH1 0x3 ADD SLOAD DUP5 DUP3 DUP2 MLOAD DUP2 LT PUSH2 0x10D0 JUMPI PUSH2 0x10D0 PUSH2 0x2781 JUMP JUMPDEST PUSH1 0x20 SWAP1 DUP2 MUL SWAP2 SWAP1 SWAP2 ADD ADD MSTORE PUSH1 0x1 ADD PUSH2 0xF23 JUMP JUMPDEST POP POP POP SWAP2 SWAP4 POP SWAP2 SWAP4 JUMP JUMPDEST TIMESTAMP DUP4 LT ISZERO PUSH2 0x110E JUMPI PUSH1 0x40 MLOAD PUSH4 0x1AB7DA6B PUSH1 0xE0 SHL DUP2 MSTORE PUSH1 0x4 ADD PUSH1 0x40 MLOAD DUP1 SWAP2 SUB SWAP1 REVERT JUMPDEST PUSH1 0x40 DUP1 MLOAD PUSH32 0xC67E7F265B2128FB39CE2A871A16CD8421FEE5213CDE6FA5F562D0759C3AEFB7 PUSH1 0x20 DUP3 ADD MSTORE SWAP1 DUP2 ADD DUP9 SWAP1 MSTORE PUSH1 0x1 PUSH1 0x1 PUSH1 0xA0 SHL SUB DUP8 AND PUSH1 0x60 DUP3 ADD MSTORE PUSH1 0x80 DUP2 ADD DUP7 SWAP1 MSTORE PUSH1 0xA0 DUP2 ADD DUP6 SWAP1 MSTORE PUSH1 0xC0 DUP2 ADD DUP5 SWAP1 MSTORE PUSH1 0x0 SWAP1 PUSH1 0xE0 ADD PUSH1 0x40 MLOAD PUSH1 0x20 DUP2 DUP4 SUB SUB DUP2 MSTORE SWAP1 PUSH1 0x40 MSTORE DUP1 MLOAD SWAP1 PUSH1 0x20 ADD KECCAK256 SWAP1 POP PUSH1 0x0 PUSH2 0x11C7 DUP5 DUP5 DUP1 DUP1 PUSH1 0x1F ADD PUSH1 0x20 DUP1 SWAP2 DIV MUL PUSH1 0x20 ADD PUSH1 0x40 MLOAD SWAP1 DUP2 ADD PUSH1 0x40 MSTORE DUP1 SWAP4 SWAP3 SWAP2 SWAP1 DUP2 DUP2 MSTORE PUSH1 0x20 ADD DUP4 DUP4 DUP1 DUP3 DUP5 CALLDATACOPY PUSH1 0x0 SWAP3 ADD SWAP2 SWAP1 SWAP2 MSTORE POP PUSH2 0x8B9 SWAP3 POP DUP7 SWAP2 POP PUSH2 0x1997 SWAP1 POP JUMP JUMPDEST PUSH1 0x1 PUSH1 0x1 PUSH1 0xA0 SHL SUB DUP2 AND PUSH1 0x0 SWAP1 DUP2 MSTORE PUSH1 0xA PUSH1 0x20 MSTORE PUSH1 0x40 SWAP1 KECCAK256 SLOAD SWAP1 SWAP2 POP DUP7 EQ PUSH2 0x1202 JUMPI PUSH1 0x40 MLOAD PUSH4 0x8BAA579F PUSH1 0xE0 SHL DUP2 MSTORE PUSH1 0x4 ADD PUSH1 0x40 MLOAD DUP1 SWAP2 SUB SWAP1 REVERT JUMPDEST PUSH2 0x120D DUP7 PUSH1 0x1 PUSH2 0x263A JUMP JUMPDEST PUSH1 0x1 PUSH1 0x1 PUSH1 0xA0 SHL SUB DUP3 AND PUSH1 0x0 SWAP1 DUP2 MSTORE PUSH1 0xA PUSH1 0x20 MSTORE PUSH1 0x40 SWAP1 KECCAK256 SSTORE PUSH2 0x1232 DUP2 DUP11 DUP11 DUP11 PUSH2 0x1A4D JUMP JUMPDEST POP POP POP POP POP POP POP POP POP JUMP JUMPDEST PUSH32 0x6659D833875B88922D2576DAD6C137A09BA676496BB2010BF8A72397792167A0 PUSH2 0x1267 DUP2 PUSH2 0x1890 JUMP JUMPDEST PUSH1 0x0 DUP5 DUP2 MSTORE PUSH1 0x4 PUSH1 0x20 MSTORE PUSH1 0x40 SWAP1 KECCAK256 PUSH1 0x3 ADD SLOAD PUSH1 0xFF AND ISZERO PUSH2 0x129A JUMPI PUSH1 0x40 MLOAD PUSH4 0x7AFEB2E1 PUSH1 0xE0 SHL DUP2 MSTORE PUSH1 0x4 ADD PUSH1 0x40 MLOAD DUP1 SWAP2 SUB SWAP1 REVERT JUMPDEST PUSH1 0x0 DUP4 DUP2 MSTORE PUSH1 0x3 PUSH1 0x20 MSTORE PUSH1 0x40 SWAP1 KECCAK256 PUSH1 0x4 DUP2 ADD SLOAD PUSH1 0xFF AND PUSH2 0x12CD JUMPI PUSH1 0x40 MLOAD PUSH4 0x5AE7A895 PUSH1 0xE1 SHL DUP2 MSTORE PUSH1 0x4 ADD PUSH1 0x40 MLOAD DUP1 SWAP2 SUB SWAP1 REVERT JUMPDEST DUP1 SLOAD PUSH1 0x1 PUSH1 0x1 PUSH1 0xA0 SHL SUB AND CALLER EQ PUSH2 0x12F7 JUMPI PUSH1 0x40 MLOAD PUSH4 0xEA8E4EB5 PUSH1 0xE0 SHL DUP2 MSTORE PUSH1 0x4 ADD PUSH1 0x40 MLOAD DUP1 SWAP2 SUB SWAP1 REVERT JUMPDEST DUP1 PUSH1 0x1 ADD SLOAD DUP2 PUSH1 0x2 ADD SLOAD LT PUSH2 0x131F JUMPI PUSH1 0x40 MLOAD PUSH4 0x479290CF PUSH1 0xE0 SHL DUP2 MSTORE PUSH1 0x4 ADD PUSH1 0x40 MLOAD DUP1 SWAP2 SUB SWAP1 REVERT JUMPDEST PUSH1 0x1 DUP2 PUSH1 0x2 ADD PUSH1 0x0 DUP3 DUP3 SLOAD PUSH2 0x1334 SWAP2 SWAP1 PUSH2 0x263A JUMP JUMPDEST SWAP1 SWAP2 SSTORE POP POP PUSH1 0x0 DUP5 DUP2 MSTORE PUSH1 0x9 PUSH1 0x20 MSTORE PUSH1 0x40 DUP2 KECCAK256 DUP1 SLOAD PUSH1 0x1 SWAP3 SWAP1 PUSH2 0x1358 SWAP1 DUP5 SWAP1 PUSH2 0x263A JUMP JUMPDEST SWAP1 SWAP2 SSTORE POP POP PUSH1 0x40 DUP1 MLOAD PUSH1 0x80 DUP1 DUP3 ADD DUP4 MSTORE DUP7 DUP3 MSTORE CALLER PUSH1 0x20 DUP1 DUP5 ADD DUP3 DUP2 MSTORE DUP5 DUP7 ADD DUP10 DUP2 MSTORE PUSH1 0x1 PUSH1 0x60 DUP1 DUP9 ADD DUP3 DUP2 MSTORE PUSH1 0x0 DUP16 DUP2 MSTORE PUSH1 0x4 DUP1 DUP9 MSTORE DUP12 DUP3 KECCAK256 SWAP11 MLOAD DUP12 SSTORE SWAP6 MLOAD DUP11 DUP6 ADD DUP1 SLOAD PUSH1 0x1 PUSH1 0x1 PUSH1 0xA0 SHL SUB NOT SWAP1 DUP2 AND PUSH1 0x1 PUSH1 0x1 PUSH1 0xA0 SHL SUB SWAP4 DUP5 AND OR SWAP1 SWAP2 SSTORE SWAP6 MLOAD PUSH1 0x2 DUP1 DUP14 ADD SWAP2 SWAP1 SWAP2 SSTORE SWAP3 MLOAD PUSH1 0x3 SWAP1 SWAP12 ADD DUP1 SLOAD PUSH1 0xFF NOT AND SWAP12 ISZERO ISZERO SWAP12 SWAP1 SWAP12 OR SWAP1 SWAP11 SSTORE PUSH1 0x6 DUP1 DUP9 MSTORE DUP12 DUP3 KECCAK256 DUP13 MLOAD SWAP11 DUP12 ADD DUP14 MSTORE SWAP9 DUP11 MSTORE DUP10 DUP9 ADD DUP3 DUP2 MSTORE DUP13 MLOAD DUP1 DUP15 ADD DUP15 MSTORE SWAP2 DUP3 MSTORE PUSH6 0x135253951151 PUSH1 0xD2 SHL DUP3 DUP11 ADD MSTORE SWAP12 DUP11 ADD SWAP1 DUP2 MSTORE TIMESTAMP SWAP4 DUP11 ADD SWAP4 SWAP1 SWAP4 MSTORE DUP8 SLOAD DUP1 DUP6 ADD DUP10 SSTORE SWAP8 DUP2 MSTORE SWAP6 SWAP1 SWAP6 KECCAK256 DUP8 MLOAD SWAP7 SWAP1 SWAP5 MUL SWAP1 SWAP4 ADD DUP1 SLOAD SWAP1 SWAP3 AND SWAP5 SWAP1 SWAP7 AND SWAP4 SWAP1 SWAP4 OR DUP4 SSTORE SWAP5 MLOAD SWAP4 DUP3 ADD SWAP4 SWAP1 SWAP4 SSTORE SWAP3 MLOAD SWAP1 SWAP3 SWAP2 DUP3 ADD SWAP1 PUSH2 0x1458 SWAP1 DUP3 PUSH2 0x26C1 JUMP JUMPDEST POP PUSH1 0x60 SWAP2 SWAP1 SWAP2 ADD MLOAD PUSH1 0x3 SWAP1 SWAP2 ADD SSTORE PUSH1 0x0 DUP6 DUP2 MSTORE PUSH1 0x7 PUSH1 0x20 SWAP1 DUP2 MSTORE PUSH1 0x40 DUP3 KECCAK256 DUP1 SLOAD PUSH1 0x1 DUP2 DUP2 ADD DUP4 SSTORE SWAP2 DUP5 MSTORE SWAP2 SWAP1 SWAP3 KECCAK256 ADD DUP1 SLOAD PUSH1 0x1 PUSH1 0x1 PUSH1 0xA0 SHL SUB NOT AND CALLER OR SWAP1 SSTORE DUP2 ADD SLOAD PUSH1 0x2 DUP3 ADD SLOAD SUB PUSH2 0x1541 JUMPI PUSH1 0x40 MLOAD DUP1 PUSH1 0x40 ADD PUSH1 0x40 MSTORE DUP1 PUSH1 0xC DUP2 MSTORE PUSH1 0x20 ADD PUSH12 0x119553131657D35253951151 PUSH1 0xA2 SHL DUP2 MSTORE POP PUSH1 0x8 PUSH1 0x0 DUP7 DUP2 MSTORE PUSH1 0x20 ADD SWAP1 DUP2 MSTORE PUSH1 0x20 ADD PUSH1 0x0 KECCAK256 SWAP1 DUP2 PUSH2 0x14E8 SWAP2 SWAP1 PUSH2 0x26C1 JUMP JUMPDEST POP PUSH1 0x40 DUP1 MLOAD DUP2 DUP2 MSTORE PUSH1 0xC DUP2 DUP4 ADD MSTORE PUSH12 0x119553131657D35253951151 PUSH1 0xA2 SHL PUSH1 0x60 DUP3 ADD MSTORE TIMESTAMP PUSH1 0x20 DUP3 ADD MSTORE SWAP1 MLOAD DUP6 SWAP2 PUSH32 0xD1F1A368B113312ABE993C35D4FE6DDEC3E14D22FCC65A0BFD2787FE1350E465 SWAP2 SWAP1 DUP2 SWAP1 SUB PUSH1 0x80 ADD SWAP1 LOG2 JUMPDEST CALLER PUSH1 0x1 PUSH1 0x1 PUSH1 0xA0 SHL SUB AND DUP5 DUP7 PUSH32 0x70BCBF02D2425E532F5C505D1BE92EA51A88E339EC8350CCDD2C8ED88E652184 DUP7 PUSH1 0x40 MLOAD PUSH2 0x157E SWAP2 DUP2 MSTORE PUSH1 0x20 ADD SWAP1 JUMP JUMPDEST PUSH1 0x40 MLOAD DUP1 SWAP2 SUB SWAP1 LOG4 PUSH1 0x40 DUP1 MLOAD PUSH1 0x0 DUP2 MSTORE PUSH1 0x60 PUSH1 0x20 DUP3 ADD DUP2 SWAP1 MSTORE PUSH1 0x6 SWAP1 DUP3 ADD MSTORE PUSH6 0x135253951151 PUSH1 0xD2 SHL PUSH1 0x80 DUP3 ADD MSTORE TIMESTAMP SWAP2 DUP2 ADD SWAP2 SWAP1 SWAP2 MSTORE CALLER SWAP1 DUP7 SWAP1 PUSH32 0x2CF43E54AC59609D59D271E77D37CE95C39198791320D279C5CFFBA46C0CB2C6 SWAP1 PUSH1 0xA0 ADD JUMPDEST PUSH1 0x40 MLOAD DUP1 SWAP2 SUB SWAP1 LOG3 POP POP POP POP POP JUMP JUMPDEST PUSH1 0x0 DUP3 DUP2 MSTORE PUSH1 0x20 DUP2 SWAP1 MSTORE PUSH1 0x40 SWAP1 KECCAK256 PUSH1 0x1 ADD SLOAD PUSH2 0x1608 DUP2 PUSH2 0x1890 JUMP JUMPDEST PUSH2 0x7B7 DUP4 DUP4 PUSH2 0x192C JUMP JUMPDEST PUSH1 0x0 PUSH2 0x161D DUP2 PUSH2 0x1890 JUMP JUMPDEST PUSH2 0x7F0 DUP4 DUP4 PUSH2 0x792 JUMP JUMPDEST PUSH2 0x7F0 CALLER DUP5 DUP5 DUP5 PUSH2 0x1A4D JUMP JUMPDEST PUSH1 0x0 DUP2 DUP2 MSTORE PUSH1 0x4 PUSH1 0x20 MSTORE PUSH1 0x40 SWAP1 KECCAK256 PUSH1 0x3 DUP2 ADD SLOAD PUSH1 0xFF AND PUSH2 0x1666 JUMPI PUSH1 0x40 MLOAD PUSH4 0x79DE4AF5 PUSH1 0xE0 SHL DUP2 MSTORE PUSH1 0x4 ADD PUSH1 0x40 MLOAD DUP1 SWAP2 SUB SWAP1 REVERT JUMPDEST PUSH1 0x0 DUP3 DUP2 MSTORE PUSH1 0x5 PUSH1 0x20 MSTORE PUSH1 0x40 SWAP1 KECCAK256 PUSH1 0x2 DUP2 ADD SLOAD PUSH1 0xFF AND PUSH2 0x1699 JUMPI PUSH1 0x40 MLOAD PUSH4 0x357A03ED PUSH1 0xE2 SHL DUP2 MSTORE PUSH1 0x4 ADD PUSH1 0x40 MLOAD DUP1 SWAP2 SUB SWAP1 REVERT JUMPDEST DUP1 SLOAD PUSH1 0x1 PUSH1 0x1 PUSH1 0xA0 SHL SUB DUP6 DUP2 AND SWAP2 AND EQ PUSH2 0x16C6 JUMPI PUSH1 0x40 MLOAD PUSH4 0xEA8E4EB5 PUSH1 0xE0 SHL DUP2 MSTORE PUSH1 0x4 ADD PUSH1 0x40 MLOAD DUP1 SWAP2 SUB SWAP1 REVERT JUMPDEST PUSH1 0x1 DUP1 DUP4 ADD DUP1 SLOAD PUSH1 0x1 PUSH1 0x1 PUSH1 0xA0 SHL SUB DUP8 DUP2 AND PUSH1 0x1 PUSH1 0x1 PUSH1 0xA0 SHL SUB NOT DUP1 DUP5 AND DUP3 OR SWAP1 SWAP5 SSTORE PUSH1 0x0 DUP9 DUP2 MSTORE PUSH1 0x5 PUSH1 0x20 SWAP1 DUP2 MSTORE PUSH1 0x40 DUP1 DUP4 KECCAK256 DUP1 SLOAD DUP9 AND DUP2 SSTORE DUP1 DUP10 ADD DUP5 SWAP1 SSTORE PUSH1 0x2 SWAP1 DUP2 ADD DUP1 SLOAD PUSH1 0xFF NOT AND SWAP1 SSTORE PUSH1 0x6 DUP4 MSTORE DUP2 DUP5 KECCAK256 DUP3 MLOAD PUSH1 0x80 DUP2 ADD DUP5 MSTORE SWAP6 DUP7 MSTORE DUP11 DUP11 ADD SLOAD DUP7 DUP6 ADD SWAP1 DUP2 MSTORE DUP4 MLOAD DUP1 DUP6 ADD DUP6 MSTORE PUSH1 0x11 DUP2 MSTORE PUSH17 0x1514905394D1915497D050D0D154151151 PUSH1 0x7A SHL DUP2 DUP8 ADD MSTORE SWAP4 DUP8 ADD SWAP4 DUP5 MSTORE TIMESTAMP PUSH1 0x60 DUP9 ADD MSTORE DUP2 SLOAD DUP1 DUP13 ADD DUP4 SSTORE SWAP2 DUP7 MSTORE SWAP4 SWAP1 SWAP5 KECCAK256 DUP6 MLOAD PUSH1 0x4 SWAP1 SWAP6 MUL ADD DUP1 SLOAD SWAP5 DUP8 AND SWAP5 SWAP1 SWAP9 AND SWAP4 SWAP1 SWAP4 OR DUP8 SSTORE SWAP1 MLOAD SWAP7 DUP7 ADD SWAP7 SWAP1 SWAP7 SSTORE SWAP5 MLOAD SWAP2 SWAP1 SWAP3 AND SWAP4 SWAP2 SWAP3 SWAP2 DUP3 ADD SWAP1 PUSH2 0x17A4 SWAP1 DUP3 PUSH2 0x26C1 JUMP JUMPDEST POP PUSH1 0x60 SWAP2 SWAP1 SWAP2 ADD MLOAD PUSH1 0x3 SWAP1 SWAP2 ADD SSTORE PUSH1 0x0 DUP5 DUP2 MSTORE PUSH1 0x7 PUSH1 0x20 SWAP1 DUP2 MSTORE PUSH1 0x40 DUP1 DUP4 KECCAK256 DUP1 SLOAD PUSH1 0x1 DUP2 ADD DUP3 SSTORE SWAP1 DUP5 MSTORE SWAP2 DUP4 KECCAK256 SWAP1 SWAP2 ADD DUP1 SLOAD PUSH1 0x1 PUSH1 0x1 PUSH1 0xA0 SHL SUB NOT AND PUSH1 0x1 PUSH1 0x1 PUSH1 0xA0 SHL SUB DUP10 DUP2 AND SWAP2 DUP3 OR SWAP1 SWAP3 SSTORE SWAP2 MLOAD SWAP2 SWAP3 SWAP1 DUP5 AND SWAP2 DUP8 SWAP2 PUSH32 0x9CC86532AFD4843C8838F17D7972E7F29389FE47D6712B6666AF2D42DF29AB38 SWAP2 LOG4 DUP5 PUSH1 0x1 PUSH1 0x1 PUSH1 0xA0 SHL SUB AND DUP5 PUSH32 0x2CF43E54AC59609D59D271E77D37CE95C39198791320D279C5CFFBA46C0CB2C6 DUP5 PUSH1 0x1 ADD SLOAD TIMESTAMP PUSH1 0x40 MLOAD PUSH2 0x15DE SWAP3 SWAP2 SWAP1 SWAP2 DUP3 MSTORE PUSH1 0x60 PUSH1 0x20 DUP4 ADD DUP2 SWAP1 MSTORE PUSH1 0x11 SWAP1 DUP4 ADD MSTORE PUSH17 0x1514905394D1915497D050D0D154151151 PUSH1 0x7A SHL PUSH1 0x80 DUP4 ADD MSTORE PUSH1 0x40 DUP3 ADD MSTORE PUSH1 0xA0 ADD SWAP1 JUMP JUMPDEST PUSH2 0x6B9 DUP2 CALLER PUSH2 0x1CE5 JUMP JUMPDEST PUSH1 0x0 PUSH2 0x18A6 DUP4 DUP4 PUSH2 0xC46 JUMP JUMPDEST PUSH2 0x1924 JUMPI PUSH1 0x0 DUP4 DUP2 MSTORE PUSH1 0x20 DUP2 DUP2 MSTORE PUSH1 0x40 DUP1 DUP4 KECCAK256 PUSH1 0x1 PUSH1 0x1 PUSH1 0xA0 SHL SUB DUP7 AND DUP5 MSTORE SWAP1 SWAP2 MSTORE SWAP1 KECCAK256 DUP1 SLOAD PUSH1 0xFF NOT AND PUSH1 0x1 OR SWAP1 SSTORE PUSH2 0x18DC CALLER SWAP1 JUMP JUMPDEST PUSH1 0x1 PUSH1 0x1 PUSH1 0xA0 SHL SUB AND DUP3 PUSH1 0x1 PUSH1 0x1 PUSH1 0xA0 SHL SUB AND DUP5 PUSH32 0x2F8788117E7EFF1D82E926EC794901D17C78024A50270940304540A733656F0D PUSH1 0x40 MLOAD PUSH1 0x40 MLOAD DUP1 SWAP2 SUB SWAP1 LOG4 POP PUSH1 0x1 PUSH2 0x662 JUMP JUMPDEST POP PUSH1 0x0 PUSH2 0x662 JUMP JUMPDEST PUSH1 0x0 PUSH2 0x1938 DUP4 DUP4 PUSH2 0xC46 JUMP JUMPDEST ISZERO PUSH2 0x1924 JUMPI PUSH1 0x0 DUP4 DUP2 MSTORE PUSH1 0x20 DUP2 DUP2 MSTORE PUSH1 0x40 DUP1 DUP4 KECCAK256 PUSH1 0x1 PUSH1 0x1 PUSH1 0xA0 SHL SUB DUP7 AND DUP1 DUP6 MSTORE SWAP3 MSTORE DUP1 DUP4 KECCAK256 DUP1 SLOAD PUSH1 0xFF NOT AND SWAP1 SSTORE MLOAD CALLER SWAP3 DUP7 SWAP2 PUSH32 0xF6391F5C32D9C69D2A47EA670B442974B53935D1EDC7FD64EB21E047A839171B SWAP2 SWAP1 LOG4 POP PUSH1 0x1 PUSH2 0x662 JUMP JUMPDEST PUSH1 0x0 PUSH2 0x662 PUSH2 0x19A4 PUSH2 0x1D27 JUMP JUMPDEST DUP4 PUSH1 0x40 MLOAD PUSH2 0x1901 PUSH1 0xF0 SHL DUP2 MSTORE PUSH1 0x2 DUP2 ADD SWAP3 SWAP1 SWAP3 MSTORE PUSH1 0x22 DUP3 ADD MSTORE PUSH1 0x42 SWAP1 KECCAK256 SWAP1 JUMP JUMPDEST PUSH1 0x0 DUP1 PUSH1 0x0 DUP1 PUSH2 0x19D4 DUP7 DUP7 PUSH2 0x1E52 JUMP JUMPDEST SWAP3 POP SWAP3 POP SWAP3 POP PUSH2 0x19E4 DUP3 DUP3 PUSH2 0x1E9F JUMP JUMPDEST POP SWAP1 SWAP5 SWAP4 POP POP POP POP JUMP JUMPDEST PUSH1 0x60 PUSH2 0x1A1B PUSH32 0x0 PUSH1 0x1 PUSH2 0x1F58 JUMP JUMPDEST SWAP1 POP SWAP1 JUMP JUMPDEST PUSH1 0x60 PUSH2 0x1A1B PUSH32 0x0 PUSH1 0x2 PUSH2 0x1F58 JUMP JUMPDEST PUSH1 0x0 DUP4 DUP2 MSTORE PUSH1 0x4 PUSH1 0x20 MSTORE PUSH1 0x40 SWAP1 KECCAK256 PUSH1 0x3 DUP2 ADD SLOAD PUSH1 0xFF AND PUSH2 0x1A80 JUMPI PUSH1 0x40 MLOAD PUSH4 0x79DE4AF5 PUSH1 0xE0 SHL DUP2 MSTORE PUSH1 0x4 ADD PUSH1 0x40 MLOAD DUP1 SWAP2 SUB SWAP1 REVERT JUMPDEST PUSH1 0x1 DUP2 ADD SLOAD PUSH1 0x1 PUSH1 0x1 PUSH1 0xA0 SHL SUB DUP7 DUP2 AND SWAP2 AND EQ PUSH2 0x1AB0 JUMPI PUSH1 0x40 MLOAD PUSH4 0xEA8E4EB5 PUSH1 0xE0 SHL DUP2 MSTORE PUSH1 0x4 ADD PUSH1 0x40 MLOAD DUP1 SWAP2 SUB SWAP1 REVERT JUMPDEST PUSH1 0x0 DUP5 DUP2 MSTORE PUSH1 0x5 PUSH1 0x20 MSTORE PUSH1 0x40 SWAP1 KECCAK256 PUSH1 0x2 ADD SLOAD PUSH1 0xFF AND ISZERO PUSH2 0x1AE3 JUMPI PUSH1 0x40 MLOAD PUSH4 0xA8B24613 PUSH1 0xE0 SHL DUP2 MSTORE PUSH1 0x4 ADD PUSH1 0x40 MLOAD DUP1 SWAP2 SUB SWAP1 REVERT JUMPDEST PUSH1 0x1 PUSH1 0x1 PUSH1 0xA0 SHL SUB DUP4 AND ISZERO DUP1 PUSH2 0x1B0A JUMPI POP DUP5 PUSH1 0x1 PUSH1 0x1 PUSH1 0xA0 SHL SUB AND DUP4 PUSH1 0x1 PUSH1 0x1 PUSH1 0xA0 SHL SUB AND EQ JUMPDEST ISZERO PUSH2 0x1B28 JUMPI PUSH1 0x40 MLOAD PUSH4 0x1E4EC46B PUSH1 0xE0 SHL DUP2 MSTORE PUSH1 0x4 ADD PUSH1 0x40 MLOAD DUP1 SWAP2 SUB SWAP1 REVERT JUMPDEST PUSH1 0x40 DUP1 MLOAD PUSH1 0x60 DUP1 DUP3 ADD DUP4 MSTORE PUSH1 0x1 PUSH1 0x1 PUSH1 0xA0 SHL SUB DUP7 DUP2 AND DUP4 MSTORE PUSH1 0x20 DUP1 DUP5 ADD DUP8 DUP2 MSTORE PUSH1 0x1 DUP6 DUP8 ADD DUP2 DUP2 MSTORE PUSH1 0x0 DUP13 DUP2 MSTORE PUSH1 0x5 DUP6 MSTORE DUP9 DUP2 KECCAK256 SWAP8 MLOAD DUP9 SLOAD PUSH1 0x1 PUSH1 0x1 PUSH1 0xA0 SHL SUB NOT SWAP1 DUP2 AND SWAP2 DUP9 AND SWAP2 SWAP1 SWAP2 OR DUP10 SSTORE SWAP4 MLOAD DUP9 DUP5 ADD SSTORE SWAP1 MLOAD PUSH1 0x2 SWAP8 DUP9 ADD DUP1 SLOAD PUSH1 0xFF NOT AND SWAP2 ISZERO ISZERO SWAP2 SWAP1 SWAP2 OR SWAP1 SSTORE PUSH1 0x6 DUP5 MSTORE DUP8 DUP2 KECCAK256 DUP9 MLOAD PUSH1 0x80 DUP2 ADD DUP11 MSTORE DUP15 DUP8 AND DUP2 MSTORE DUP1 DUP7 ADD DUP13 DUP2 MSTORE DUP11 MLOAD DUP1 DUP13 ADD DUP13 MSTORE PUSH1 0x12 DUP2 MSTORE PUSH18 0x1514905394D1915497D25392551250551151 PUSH1 0x72 SHL DUP2 DUP10 ADD MSTORE SWAP11 DUP3 ADD SWAP11 DUP12 MSTORE TIMESTAMP SWAP9 DUP3 ADD SWAP9 SWAP1 SWAP9 MSTORE DUP2 SLOAD DUP1 DUP6 ADD DUP4 SSTORE SWAP2 DUP4 MSTORE SWAP5 SWAP1 SWAP2 KECCAK256 DUP5 MLOAD PUSH1 0x4 SWAP1 SWAP3 MUL ADD DUP1 SLOAD SWAP1 SWAP4 AND SWAP5 AND SWAP4 SWAP1 SWAP4 OR DUP2 SSTORE SWAP3 MLOAD SWAP2 DUP4 ADD SWAP2 SWAP1 SWAP2 SSTORE SWAP3 MLOAD SWAP1 SWAP2 DUP3 ADD SWAP1 PUSH2 0x1C1B SWAP1 DUP3 PUSH2 0x26C1 JUMP JUMPDEST POP PUSH1 0x60 DUP3 ADD MLOAD DUP2 PUSH1 0x3 ADD SSTORE POP POP DUP3 PUSH1 0x1 PUSH1 0x1 PUSH1 0xA0 SHL SUB AND DUP6 PUSH1 0x1 PUSH1 0x1 PUSH1 0xA0 SHL SUB AND DUP6 PUSH32 0xAE06B6DB978FEAC2DEBB593397295212069AB4D158CCC78101767A183E4FEEF3 DUP6 PUSH1 0x40 MLOAD PUSH2 0x1C6E SWAP2 DUP2 MSTORE PUSH1 0x20 ADD SWAP1 JUMP JUMPDEST PUSH1 0x40 MLOAD DUP1 SWAP2 SUB SWAP1 LOG4 DUP5 PUSH1 0x1 PUSH1 0x1 PUSH1 0xA0 SHL SUB AND DUP5 PUSH32 0x2CF43E54AC59609D59D271E77D37CE95C39198791320D279C5CFFBA46C0CB2C6 DUP5 TIMESTAMP PUSH1 0x40 MLOAD PUSH2 0x15DE SWAP3 SWAP2 SWAP1 SWAP2 DUP3 MSTORE PUSH1 0x60 PUSH1 0x20 DUP4 ADD DUP2 SWAP1 MSTORE PUSH1 0x12 SWAP1 DUP4 ADD MSTORE PUSH18 0x1514905394D1915497D25392551250551151 PUSH1 0x72 SHL PUSH1 0x80 DUP4 ADD MSTORE PUSH1 0x40 DUP3 ADD MSTORE PUSH1 0xA0 ADD SWAP1 JUMP JUMPDEST PUSH2 0x1CEF DUP3 DUP3 PUSH2 0xC46 JUMP JUMPDEST PUSH2 0x1D23 JUMPI PUSH1 0x40 MLOAD PUSH4 0xE2517D3F PUSH1 0xE0 SHL DUP2 MSTORE PUSH1 0x1 PUSH1 0x1 PUSH1 0xA0 SHL SUB DUP3 AND PUSH1 0x4 DUP3 ADD MSTORE PUSH1 0x24 DUP2 ADD DUP4 SWAP1 MSTORE PUSH1 0x44 ADD JUMPDEST PUSH1 0x40 MLOAD DUP1 SWAP2 SUB SWAP1 REVERT JUMPDEST POP POP JUMP JUMPDEST PUSH1 0x0 ADDRESS PUSH1 0x1 PUSH1 0x1 PUSH1 0xA0 SHL SUB PUSH32 0x0 AND EQ DUP1 ISZERO PUSH2 0x1D80 JUMPI POP PUSH32 0x0 CHAINID EQ JUMPDEST ISZERO PUSH2 0x1DAA JUMPI POP PUSH32 0x0 SWAP1 JUMP JUMPDEST PUSH2 0x1A1B PUSH1 0x40 DUP1 MLOAD PUSH32 0x8B73C3C69BB8FE3D512ECC4CF759CC79239F7B179B0FFACAA9A75D522B39400F PUSH1 0x20 DUP3 ADD MSTORE PUSH32 0x0 SWAP2 DUP2 ADD SWAP2 SWAP1 SWAP2 MSTORE PUSH32 0x0 PUSH1 0x60 DUP3 ADD MSTORE CHAINID PUSH1 0x80 DUP3 ADD MSTORE ADDRESS PUSH1 0xA0 DUP3 ADD MSTORE PUSH1 0x0 SWAP1 PUSH1 0xC0 ADD PUSH1 0x40 MLOAD PUSH1 0x20 DUP2 DUP4 SUB SUB DUP2 MSTORE SWAP1 PUSH1 0x40 MSTORE DUP1 MLOAD SWAP1 PUSH1 0x20 ADD KECCAK256 SWAP1 POP SWAP1 JUMP JUMPDEST PUSH1 0x0 DUP1 PUSH1 0x0 DUP4 MLOAD PUSH1 0x41 SUB PUSH2 0x1E8C JUMPI PUSH1 0x20 DUP5 ADD MLOAD PUSH1 0x40 DUP6 ADD MLOAD PUSH1 0x60 DUP7 ADD MLOAD PUSH1 0x0 BYTE PUSH2 0x1E7E DUP9 DUP3 DUP6 DUP6 PUSH2 0x2003 JUMP JUMPDEST SWAP6 POP SWAP6 POP SWAP6 POP POP POP POP PUSH2 0x1E98 JUMP JUMPDEST POP POP DUP2 MLOAD PUSH1 0x0 SWAP2 POP PUSH1 0x2 SWAP1 JUMPDEST SWAP3 POP SWAP3 POP SWAP3 JUMP JUMPDEST PUSH1 0x0 DUP3 PUSH1 0x3 DUP2 GT ISZERO PUSH2 0x1EB3 JUMPI PUSH2 0x1EB3 PUSH2 0x2797 JUMP JUMPDEST SUB PUSH2 0x1EBC JUMPI POP POP JUMP JUMPDEST PUSH1 0x1 DUP3 PUSH1 0x3 DUP2 GT ISZERO PUSH2 0x1ED0 JUMPI PUSH2 0x1ED0 PUSH2 0x2797 JUMP JUMPDEST SUB PUSH2 0x1EEE JUMPI PUSH1 0x40 MLOAD PUSH4 0xF645EEDF PUSH1 0xE0 SHL DUP2 MSTORE PUSH1 0x4 ADD PUSH1 0x40 MLOAD DUP1 SWAP2 SUB SWAP1 REVERT JUMPDEST PUSH1 0x2 DUP3 PUSH1 0x3 DUP2 GT ISZERO PUSH2 0x1F02 JUMPI PUSH2 0x1F02 PUSH2 0x2797 JUMP JUMPDEST SUB PUSH2 0x1F23 JUMPI PUSH1 0x40 MLOAD PUSH4 0xFCE698F7 PUSH1 0xE0 SHL DUP2 MSTORE PUSH1 0x4 DUP2 ADD DUP3 SWAP1 MSTORE PUSH1 0x24 ADD PUSH2 0x1D1A JUMP JUMPDEST PUSH1 0x3 DUP3 PUSH1 0x3 DUP2 GT ISZERO PUSH2 0x1F37 JUMPI PUSH2 0x1F37 PUSH2 0x2797 JUMP JUMPDEST SUB PUSH2 0x1D23 JUMPI PUSH1 0x40 MLOAD PUSH4 0x35E2F383 PUSH1 0xE2 SHL DUP2 MSTORE PUSH1 0x4 DUP2 ADD DUP3 SWAP1 MSTORE PUSH1 0x24 ADD PUSH2 0x1D1A JUMP JUMPDEST PUSH1 0x60 PUSH1 0xFF DUP4 EQ PUSH2 0x1F72 JUMPI PUSH2 0x1F6B DUP4 PUSH2 0x20D2 JUMP JUMPDEST SWAP1 POP PUSH2 0x662 JUMP JUMPDEST DUP2 DUP1 SLOAD PUSH2 0x1F7E SWAP1 PUSH2 0x2600 JUMP JUMPDEST DUP1 PUSH1 0x1F ADD PUSH1 0x20 DUP1 SWAP2 DIV MUL PUSH1 0x20 ADD PUSH1 0x40 MLOAD SWAP1 DUP2 ADD PUSH1 0x40 MSTORE DUP1 SWAP3 SWAP2 SWAP1 DUP2 DUP2 MSTORE PUSH1 0x20 ADD DUP3 DUP1 SLOAD PUSH2 0x1FAA SWAP1 PUSH2 0x2600 JUMP JUMPDEST DUP1 ISZERO PUSH2 0x1FF7 JUMPI DUP1 PUSH1 0x1F LT PUSH2 0x1FCC JUMPI PUSH2 0x100 DUP1 DUP4 SLOAD DIV MUL DUP4 MSTORE SWAP2 PUSH1 0x20 ADD SWAP2 PUSH2 0x1FF7 JUMP JUMPDEST DUP3 ADD SWAP2 SWAP1 PUSH1 0x0 MSTORE PUSH1 0x20 PUSH1 0x0 KECCAK256 SWAP1 JUMPDEST DUP2 SLOAD DUP2 MSTORE SWAP1 PUSH1 0x1 ADD SWAP1 PUSH1 0x20 ADD DUP1 DUP4 GT PUSH2 0x1FDA JUMPI DUP3 SWAP1 SUB PUSH1 0x1F AND DUP3 ADD SWAP2 JUMPDEST POP POP POP POP POP SWAP1 POP PUSH2 0x662 JUMP JUMPDEST PUSH1 0x0 DUP1 DUP1 PUSH32 0x7FFFFFFFFFFFFFFFFFFFFFFFFFFFFFFF5D576E7357A4501DDFE92F46681B20A0 DUP5 GT ISZERO PUSH2 0x203E JUMPI POP PUSH1 0x0 SWAP2 POP PUSH1 0x3 SWAP1 POP DUP3 PUSH2 0x20C8 JUMP JUMPDEST PUSH1 0x40 DUP1 MLOAD PUSH1 0x0 DUP1 DUP3 MSTORE PUSH1 0x20 DUP3 ADD DUP1 DUP5 MSTORE DUP11 SWAP1 MSTORE PUSH1 0xFF DUP10 AND SWAP3 DUP3 ADD SWAP3 SWAP1 SWAP3 MSTORE PUSH1 0x60 DUP2 ADD DUP8 SWAP1 MSTORE PUSH1 0x80 DUP2 ADD DUP7 SWAP1 MSTORE PUSH1 0x1 SWAP1 PUSH1 0xA0 ADD PUSH1 0x20 PUSH1 0x40 MLOAD PUSH1 0x20 DUP2 SUB SWAP1 DUP1 DUP5 SUB SWAP1 DUP6 GAS STATICCALL ISZERO DUP1 ISZERO PUSH2 0x2092 JUMPI RETURNDATASIZE PUSH1 0x0 DUP1 RETURNDATACOPY RETURNDATASIZE PUSH1 0x0 REVERT JUMPDEST POP POP PUSH1 0x40 MLOAD PUSH1 0x1F NOT ADD MLOAD SWAP2 POP POP PUSH1 0x1 PUSH1 0x1 PUSH1 0xA0 SHL SUB DUP2 AND PUSH2 0x20BE JUMPI POP PUSH1 0x0 SWAP3 POP PUSH1 0x1 SWAP2 POP DUP3 SWAP1 POP PUSH2 0x20C8 JUMP JUMPDEST SWAP3 POP PUSH1 0x0 SWAP2 POP DUP2 SWAP1 POP JUMPDEST SWAP5 POP SWAP5 POP SWAP5 SWAP2 POP POP JUMP JUMPDEST PUSH1 0x60 PUSH1 0x0 PUSH2 0x20DF DUP4 PUSH2 0x2111 JUMP JUMPDEST PUSH1 0x40 DUP1 MLOAD PUSH1 0x20 DUP1 DUP3 MSTORE DUP2 DUP4 ADD SWAP1 SWAP3 MSTORE SWAP2 SWAP3 POP PUSH1 0x0 SWAP2 SWAP1 PUSH1 0x20 DUP3 ADD DUP2 DUP1 CALLDATASIZE DUP4 CALLDATACOPY POP POP POP SWAP2 DUP3 MSTORE POP PUSH1 0x20 DUP2 ADD SWAP3 SWAP1 SWAP3 MSTORE POP SWAP1 JUMP JUMPDEST PUSH1 0x0 PUSH1 0xFF DUP3 AND PUSH1 0x1F DUP2 GT ISZERO PUSH2 0x662 JUMPI PUSH1 0x40 MLOAD PUSH4 0x2CD44AC3 PUSH1 0xE2 SHL DUP2 MSTORE PUSH1 0x4 ADD PUSH1 0x40 MLOAD DUP1 SWAP2 SUB SWAP1 REVERT JUMPDEST PUSH1 0x0 PUSH1 0x20 DUP3 DUP5 SUB SLT ISZERO PUSH2 0x214B JUMPI PUSH1 0x0 DUP1 REVERT JUMPDEST DUP2 CALLDATALOAD PUSH1 0x1 PUSH1 0x1 PUSH1 0xE0 SHL SUB NOT DUP2 AND DUP2 EQ PUSH2 0x2163 JUMPI PUSH1 0x0 DUP1 REVERT JUMPDEST SWAP4 SWAP3 POP POP POP JUMP JUMPDEST PUSH1 0x0 PUSH1 0x20 DUP3 DUP5 SUB SLT ISZERO PUSH2 0x217C JUMPI PUSH1 0x0 DUP1 REVERT JUMPDEST POP CALLDATALOAD SWAP2 SWAP1 POP JUMP JUMPDEST PUSH1 0x0 DUP2 MLOAD DUP1 DUP5 MSTORE PUSH1 0x0 JUMPDEST DUP2 DUP2 LT ISZERO PUSH2 0x21A9 JUMPI PUSH1 0x20 DUP2 DUP6 ADD DUP2 ADD MLOAD DUP7 DUP4 ADD DUP3 ADD MSTORE ADD PUSH2 0x218D JUMP JUMPDEST POP PUSH1 0x0 PUSH1 0x20 DUP3 DUP7 ADD ADD MSTORE PUSH1 0x20 PUSH1 0x1F NOT PUSH1 0x1F DUP4 ADD AND DUP6 ADD ADD SWAP2 POP POP SWAP3 SWAP2 POP POP JUMP JUMPDEST PUSH1 0x20 DUP2 MSTORE PUSH1 0x0 PUSH2 0x2163 PUSH1 0x20 DUP4 ADD DUP5 PUSH2 0x2183 JUMP JUMPDEST DUP1 CALLDATALOAD PUSH1 0x1 PUSH1 0x1 PUSH1 0xA0 SHL SUB DUP2 AND DUP2 EQ PUSH2 0x21F3 JUMPI PUSH1 0x0 DUP1 REVERT JUMPDEST SWAP2 SWAP1 POP JUMP JUMPDEST PUSH1 0x0 DUP1 PUSH1 0x40 DUP4 DUP6 SUB SLT ISZERO PUSH2 0x220B JUMPI PUSH1 0x0 DUP1 REVERT JUMPDEST DUP3 CALLDATALOAD SWAP2 POP PUSH2 0x221B PUSH1 0x20 DUP5 ADD PUSH2 0x21DC JUMP JUMPDEST SWAP1 POP SWAP3 POP SWAP3 SWAP1 POP JUMP JUMPDEST PUSH1 0x0 DUP1 DUP4 PUSH1 0x1F DUP5 ADD SLT PUSH2 0x2236 JUMPI PUSH1 0x0 DUP1 REVERT JUMPDEST POP DUP2 CALLDATALOAD PUSH8 0xFFFFFFFFFFFFFFFF DUP2 GT ISZERO PUSH2 0x224E JUMPI PUSH1 0x0 DUP1 REVERT JUMPDEST PUSH1 0x20 DUP4 ADD SWAP2 POP DUP4 PUSH1 0x20 DUP3 DUP6 ADD ADD GT ISZERO PUSH2 0x2266 JUMPI PUSH1 0x0 DUP1 REVERT JUMPDEST SWAP3 POP SWAP3 SWAP1 POP JUMP JUMPDEST PUSH1 0x0 DUP1 PUSH1 0x0 DUP1 PUSH1 0x0 PUSH1 0x80 DUP7 DUP9 SUB SLT ISZERO PUSH2 0x2285 JUMPI PUSH1 0x0 DUP1 REVERT JUMPDEST DUP6 CALLDATALOAD SWAP5 POP PUSH1 0x20 DUP7 ADD CALLDATALOAD SWAP4 POP PUSH1 0x40 DUP7 ADD CALLDATALOAD SWAP3 POP PUSH1 0x60 DUP7 ADD CALLDATALOAD PUSH8 0xFFFFFFFFFFFFFFFF DUP2 GT ISZERO PUSH2 0x22B1 JUMPI PUSH1 0x0 DUP1 REVERT JUMPDEST PUSH2 0x22BD DUP9 DUP3 DUP10 ADD PUSH2 0x2224 JUMP JUMPDEST SWAP7 SWAP10 SWAP6 SWAP9 POP SWAP4 SWAP7 POP SWAP3 SWAP5 SWAP4 SWAP3 POP POP POP JUMP JUMPDEST PUSH1 0x0 DUP2 MLOAD DUP1 DUP5 MSTORE PUSH1 0x20 DUP1 DUP6 ADD SWAP5 POP PUSH1 0x20 DUP5 ADD PUSH1 0x0 JUMPDEST DUP4 DUP2 LT ISZERO PUSH2 0x2308 JUMPI DUP2 MLOAD PUSH1 0x1 PUSH1 0x1 PUSH1 0xA0 SHL SUB AND DUP8 MSTORE SWAP6 DUP3 ADD SWAP6 SWAP1 DUP3 ADD SWAP1 PUSH1 0x1 ADD PUSH2 0x22E3 JUMP JUMPDEST POP SWAP5 SWAP6 SWAP5 POP POP POP POP POP JUMP JUMPDEST PUSH1 0x1 DUP1 PUSH1 0xA0 SHL SUB DUP6 AND DUP2 MSTORE DUP4 PUSH1 0x20 DUP3 ADD MSTORE DUP3 PUSH1 0x40 DUP3 ADD MSTORE PUSH1 0x80 PUSH1 0x60 DUP3 ADD MSTORE PUSH1 0x0 PUSH2 0x2340 PUSH1 0x80 DUP4 ADD DUP5 PUSH2 0x22CE JUMP JUMPDEST SWAP7 SWAP6 POP POP POP POP POP POP JUMP JUMPDEST PUSH1 0x0 DUP1 PUSH1 0x40 DUP4 DUP6 SUB SLT ISZERO PUSH2 0x235D JUMPI PUSH1 0x0 DUP1 REVERT JUMPDEST POP POP DUP1 CALLDATALOAD SWAP3 PUSH1 0x20 SWAP1 SWAP2 ADD CALLDATALOAD SWAP2 POP JUMP JUMPDEST PUSH1 0x0 PUSH1 0x20 DUP3 DUP5 SUB SLT ISZERO PUSH2 0x237E JUMPI PUSH1 0x0 DUP1 REVERT JUMPDEST PUSH2 0x2163 DUP3 PUSH2 0x21DC JUMP JUMPDEST PUSH1 0x0 DUP2 MLOAD DUP1 DUP5 MSTORE PUSH1 0x20 DUP1 DUP6 ADD SWAP5 POP PUSH1 0x20 DUP5 ADD PUSH1 0x0 JUMPDEST DUP4 DUP2 LT ISZERO PUSH2 0x2308 JUMPI DUP2 MLOAD DUP8 MSTORE SWAP6 DUP3 ADD SWAP6 SWAP1 DUP3 ADD SWAP1 PUSH1 0x1 ADD PUSH2 0x239C JUMP JUMPDEST PUSH1 0xFF PUSH1 0xF8 SHL DUP9 AND DUP2 MSTORE PUSH1 0xE0 PUSH1 0x20 DUP3 ADD MSTORE PUSH1 0x0 PUSH2 0x23D7 PUSH1 0xE0 DUP4 ADD DUP10 PUSH2 0x2183 JUMP JUMPDEST DUP3 DUP2 SUB PUSH1 0x40 DUP5 ADD MSTORE PUSH2 0x23E9 DUP2 DUP10 PUSH2 0x2183 JUMP JUMPDEST PUSH1 0x60 DUP5 ADD DUP9 SWAP1 MSTORE PUSH1 0x1 PUSH1 0x1 PUSH1 0xA0 SHL SUB DUP8 AND PUSH1 0x80 DUP6 ADD MSTORE PUSH1 0xA0 DUP5 ADD DUP7 SWAP1 MSTORE DUP4 DUP2 SUB PUSH1 0xC0 DUP6 ADD MSTORE SWAP1 POP PUSH2 0x241A DUP2 DUP6 PUSH2 0x2387 JUMP JUMPDEST SWAP11 SWAP10 POP POP POP POP POP POP POP POP POP POP JUMP JUMPDEST PUSH1 0x1 DUP1 PUSH1 0xA0 SHL SUB DUP7 AND DUP2 MSTORE DUP5 PUSH1 0x20 DUP3 ADD MSTORE DUP4 PUSH1 0x40 DUP3 ADD MSTORE DUP3 PUSH1 0x60 DUP3 ADD MSTORE PUSH1 0xA0 PUSH1 0x80 DUP3 ADD MSTORE PUSH1 0x0 PUSH2 0x245B PUSH1 0xA0 DUP4 ADD DUP5 PUSH2 0x2183 JUMP JUMPDEST SWAP8 SWAP7 POP POP POP POP POP POP POP JUMP JUMPDEST PUSH1 0x80 DUP2 MSTORE PUSH1 0x0 PUSH2 0x2479 PUSH1 0x80 DUP4 ADD DUP8 PUSH2 0x22CE JUMP JUMPDEST DUP3 DUP2 SUB PUSH1 0x20 DUP5 DUP2 ADD SWAP2 SWAP1 SWAP2 MSTORE DUP7 MLOAD DUP1 DUP4 MSTORE DUP8 DUP3 ADD SWAP3 DUP3 ADD SWAP1 PUSH1 0x0 JUMPDEST DUP2 DUP2 LT ISZERO PUSH2 0x24B0 JUMPI DUP5 MLOAD DUP4 MSTORE SWAP4 DUP4 ADD SWAP4 SWAP2 DUP4 ADD SWAP2 PUSH1 0x1 ADD PUSH2 0x2494 JUMP JUMPDEST POP POP DUP5 DUP2 SUB PUSH1 0x40 DUP7 ADD MSTORE DUP7 MLOAD DUP1 DUP3 MSTORE DUP3 DUP3 ADD SWAP4 POP PUSH1 0x5 DUP2 SWAP1 SHL DUP3 ADD DUP4 ADD DUP4 DUP10 ADD PUSH1 0x0 JUMPDEST DUP4 DUP2 LT ISZERO PUSH2 0x2501 JUMPI PUSH1 0x1F NOT DUP6 DUP5 SUB ADD DUP8 MSTORE PUSH2 0x24EF DUP4 DUP4 MLOAD PUSH2 0x2183 JUMP JUMPDEST SWAP7 DUP7 ADD SWAP7 SWAP3 POP SWAP1 DUP6 ADD SWAP1 PUSH1 0x1 ADD PUSH2 0x24D3 JUMP JUMPDEST POP POP DUP7 DUP2 SUB PUSH1 0x60 DUP9 ADD MSTORE PUSH2 0x2515 DUP2 DUP10 PUSH2 0x2387 JUMP JUMPDEST SWAP12 SWAP11 POP POP POP POP POP POP POP POP POP POP POP JUMP JUMPDEST PUSH1 0x0 DUP1 PUSH1 0x0 DUP1 PUSH1 0x0 DUP1 PUSH1 0x0 PUSH1 0xC0 DUP9 DUP11 SUB SLT ISZERO PUSH2 0x253F JUMPI PUSH1 0x0 DUP1 REVERT JUMPDEST DUP8 CALLDATALOAD SWAP7 POP PUSH2 0x254F PUSH1 0x20 DUP10 ADD PUSH2 0x21DC JUMP JUMPDEST SWAP6 POP PUSH1 0x40 DUP9 ADD CALLDATALOAD SWAP5 POP PUSH1 0x60 DUP9 ADD CALLDATALOAD SWAP4 POP PUSH1 0x80 DUP9 ADD CALLDATALOAD SWAP3 POP PUSH1 0xA0 DUP9 ADD CALLDATALOAD PUSH8 0xFFFFFFFFFFFFFFFF DUP2 GT ISZERO PUSH2 0x2580 JUMPI PUSH1 0x0 DUP1 REVERT JUMPDEST PUSH2 0x258C DUP11 DUP3 DUP12 ADD PUSH2 0x2224 JUMP JUMPDEST SWAP9 SWAP12 SWAP8 SWAP11 POP SWAP6 SWAP9 POP SWAP4 SWAP7 SWAP3 SWAP6 SWAP3 SWAP4 POP POP POP JUMP JUMPDEST PUSH1 0x0 DUP1 PUSH1 0x0 PUSH1 0x60 DUP5 DUP7 SUB SLT ISZERO PUSH2 0x25B4 JUMPI PUSH1 0x0 DUP1 REVERT JUMPDEST POP POP DUP2 CALLDATALOAD SWAP4 PUSH1 0x20 DUP4 ADD CALLDATALOAD SWAP4 POP PUSH1 0x40 SWAP1 SWAP3 ADD CALLDATALOAD SWAP2 SWAP1 POP JUMP JUMPDEST PUSH1 0x0 DUP1 PUSH1 0x0 PUSH1 0x60 DUP5 DUP7 SUB SLT ISZERO PUSH2 0x25E0 JUMPI PUSH1 0x0 DUP1 REVERT JUMPDEST DUP4 CALLDATALOAD SWAP3 POP PUSH2 0x25F0 PUSH1 0x20 DUP6 ADD PUSH2 0x21DC JUMP JUMPDEST SWAP2 POP PUSH1 0x40 DUP5 ADD CALLDATALOAD SWAP1 POP SWAP3 POP SWAP3 POP SWAP3 JUMP JUMPDEST PUSH1 0x1 DUP2 DUP2 SHR SWAP1 DUP3 AND DUP1 PUSH2 0x2614 JUMPI PUSH1 0x7F DUP3 AND SWAP2 POP JUMPDEST PUSH1 0x20 DUP3 LT DUP2 SUB PUSH2 0x2634 JUMPI PUSH4 0x4E487B71 PUSH1 0xE0 SHL PUSH1 0x0 MSTORE PUSH1 0x22 PUSH1 0x4 MSTORE PUSH1 0x24 PUSH1 0x0 REVERT JUMPDEST POP SWAP2 SWAP1 POP JUMP JUMPDEST DUP1 DUP3 ADD DUP1 DUP3 GT ISZERO PUSH2 0x662 JUMPI PUSH4 0x4E487B71 PUSH1 0xE0 SHL PUSH1 0x0 MSTORE PUSH1 0x11 PUSH1 0x4 MSTORE PUSH1 0x24 PUSH1 0x0 REVERT JUMPDEST PUSH4 0x4E487B71 PUSH1 0xE0 SHL PUSH1 0x0 MSTORE PUSH1 0x41 PUSH1 0x4 MSTORE PUSH1 0x24 PUSH1 0x0 REVERT JUMPDEST PUSH1 0x1F DUP3 GT ISZERO PUSH2 0x7F0 JUMPI PUSH1 0x0 DUP2 PUSH1 0x0 MSTORE PUSH1 0x20 PUSH1 0x0 KECCAK256 PUSH1 0x1F DUP6 ADD PUSH1 0x5 SHR DUP2 ADD PUSH1 0x20 DUP7 LT ISZERO PUSH2 0x269A JUMPI POP DUP1 JUMPDEST PUSH1 0x1F DUP6 ADD PUSH1 0x5 SHR DUP3 ADD SWAP2 POP JUMPDEST DUP2 DUP2 LT ISZERO PUSH2 0x26B9 JUMPI DUP3 DUP2 SSTORE PUSH1 0x1 ADD PUSH2 0x26A6 JUMP JUMPDEST POP POP POP POP POP POP JUMP JUMPDEST DUP2 MLOAD PUSH8 0xFFFFFFFFFFFFFFFF DUP2 GT ISZERO PUSH2 0x26DB JUMPI PUSH2 0x26DB PUSH2 0x265B JUMP JUMPDEST PUSH2 0x26EF DUP2 PUSH2 0x26E9 DUP5 SLOAD PUSH2 0x2600 JUMP JUMPDEST DUP5 PUSH2 0x2671 JUMP JUMPDEST PUSH1 0x20 DUP1 PUSH1 0x1F DUP4 GT PUSH1 0x1 DUP2 EQ PUSH2 0x2724 JUMPI PUSH1 0x0 DUP5 ISZERO PUSH2 0x270C JUMPI POP DUP6 DUP4 ADD MLOAD JUMPDEST PUSH1 0x0 NOT PUSH1 0x3 DUP7 SWAP1 SHL SHR NOT AND PUSH1 0x1 DUP6 SWAP1 SHL OR DUP6 SSTORE PUSH2 0x26B9 JUMP JUMPDEST PUSH1 0x0 DUP6 DUP2 MSTORE PUSH1 0x20 DUP2 KECCAK256 PUSH1 0x1F NOT DUP7 AND SWAP2 JUMPDEST DUP3 DUP2 LT ISZERO PUSH2 0x2753 JUMPI DUP9 DUP7 ADD MLOAD DUP3 SSTORE SWAP5 DUP5 ADD SWAP5 PUSH1 0x1 SWAP1 SWAP2 ADD SWAP1 DUP5 ADD PUSH2 0x2734 JUMP JUMPDEST POP DUP6 DUP3 LT ISZERO PUSH2 0x2771 JUMPI DUP8 DUP6 ADD MLOAD PUSH1 0x0 NOT PUSH1 0x3 DUP9 SWAP1 SHL PUSH1 0xF8 AND SHR NOT AND DUP2 SSTORE JUMPDEST POP POP POP POP POP PUSH1 0x1 SWAP1 DUP2 SHL ADD SWAP1 SSTORE POP JUMP JUMPDEST PUSH4 0x4E487B71 PUSH1 0xE0 SHL PUSH1 0x0 MSTORE PUSH1 0x32 PUSH1 0x4 MSTORE PUSH1 0x24 PUSH1 0x0 REVERT JUMPDEST PUSH4 0x4E487B71 PUSH1 0xE0 SHL PUSH1 0x0 MSTORE PUSH1 0x21 PUSH1 0x4 MSTORE PUSH1 0x24 PUSH1 0x0 REVERT INVALID LOG2 PUSH5 0x6970667358 0x22 SLT KECCAK256 0x22 GASPRICE OR CALLDATACOPY 0xBB PUSH11 0xC8A1BA9204555A51D7B5B7 0xEF 0xBA 0xA8 SWAP1 SSTORE 0xAF SWAP2 GT 0xD5 PUSH4 0xBCB6F885 0xB3 PUSH5 0x736F6C6343 STOP ADDMOD XOR STOP CALLER "},"methodIdentifiers":{"DEFAULT_ADMIN_ROLE()":"a217fddf","DISTRIBUTOR()":"9c26149f","INSPECTOR()":"797d7cc9","MANUFACTURER()":"49ec99ee","acceptTransfer(uint256)":"274fae7c","acceptTransferWithSig(uint256,uint256,uint256,bytes)":"4fbf313b","batches(uint256)":"b32c4d8d","eip712Domain()":"84b0196e","getBatchMetadata(uint256)":"9912627f","getBatchProductCount(uint256)":"0772d2d7","getBatchStatus(uint256)":"2d1bbc8e","getProductHistory(uint256)":"57a096a1","getProductProvenance(uint256)":"cc844e15","getRoleAdmin(bytes32)":"248a9ca3","grantRole(bytes32,address)":"2f2ff15d","grantRoleSafe(bytes32,address)":"d5afc4b4","hasRole(bytes32,address)":"91d14854","initiateTransfer(uint256,address,bytes32)":"de901eae","initiateTransferWithSig(uint256,address,bytes32,uint256,uint256,bytes)":"cd407f37","mintProduct(uint256,uint256,bytes32)":"d1685cc0","nonces(address)":"7ecebe00","ownerOf(uint256)":"6352211e","productBatch(uint256)":"b35eee19","registerBatch(uint256,uint256)":"656e49fa","renounceRole(bytes32,address)":"36568abe","revokeRole(bytes32,address)":"d547741f","supportsInterface(bytes4)":"01ffc9a7"}}}}}